:100000000C9422020C9441020C9441020C94410283
:100010000C9441020C9441020C9441020C94410254
:100020000C9441020C9441020C9441020C94410244
:100030000C9441020C949B0B0C9441020C944102D1
:100040000C9441020C9441020C9441020C94410224
:100050000C9443020C9476020C9441020C944102DD
:100060000C9441020C9441020C9441020C94410204
:100070000C9407030C943A030C94B9060C944102B7
:100080000C9425080C9441020C944102A20DA40D7D
:10009000A60DA80DF50EF50EF50E9F0DF50EF50E3D
:1000A000F50E9D0DF50EF50EF50E910DF50EF50EF6
:1000B000F50E870D810D810D810D810D810D810D55
:1000C000810D810DF50EF50EF50EF50EF50EF50E02
:1000D000F50EF50EF50EF50EF50EF50EF50EF50E08
:1000E000F50EF50EF50EF50EF50EF50EF50EF50EF8
:1000F000F50EF50EF50EF50EF50EF50EF50EF50EE8
:10010000F50EF50E6B0DF50EF50EF50E810D7D0D50
:10011000F50EF50E810D810DF50EF50E810D810D9B
:10012000F50EF50E810D810DF50EF50E810D810D8B
:10013000F50EF50E770D7A0D02050C1122050C0552
:100140000C001010202001010002050C1122050CEA
:10015000050C00000000000101000000000001008B
:100160000100010001000200020002000200030081
:10017000030003000400040004000500050005005E
:100180000600060006000700070007000800080038
:100190000800090009000A000A000A000B000B0011
:1001A0000C000C000D000D000E000E000F000F00E3
:1001B00010001000110011001200120013001300B3
:1001C0001400140015001600160017001700180080
:1001D000190019001A001B001C001C001D001E0045
:1001E0001E001F0020002100220022002300240006
:1001F0002500260027002800280029002A002B00BF
:100200002C002D002E002F00300031003200340071
:10021000350036003700380039003B003C003D0017
:100220003E004000410042004400450046004800B6
:1002300049004B004C004E004F0051005300540049
:100240005600580059005B005D005F0060006200CE
:100250006400660068006A006C006E007000720046
:100260007500770079007B007E00800082008500A9
:1002700087008A008D008F009200940097009A00FA
:100280009D00A000A300A600A900AC00AF00B20032
:10029000B500B900BC00BF00C300C600CA00CE0054
:1002A000D100D500D900DD00E100E500E900ED0056
:1002B000F100F600FA00FE00030107010C01110134
:1002C00016011B01200125012A012F0134013A01E9
:1002D0003F0145014B01510156015C016301690178
:1002E0006F0176017C0183018901900197019E01D4
:1002F000A601AD01B401BC01C401CB01D301DC01F5
:10030000E401EC01F501FD0106020F0218022102D1
:100310002B0234023E02480252025C026702710262
:100320007C02870292029D02A902B502C102CD029F
:10033000D902E502F202FF020C031A032703350378
:100340004303510360036E037D038D039C03AC03E1
:10035000BC03CC03DD03EE03FF030020A016001056
:10036000500B0008A8050004D40200026A01000135
:10037000B50080005A0040002D002000160010003B
:100380000B0064006400640000006400000064006E
:1003900000006400000064000000640000006400CD
:1003A00000006400000064000000640000006400BD
:1003B00000006400000064006400640064006400E5
:1003C000640064006400640064006400FFFFFFFFD9
:1003D000FFFF000000FFFFFFFFFFFF000000000025
:1003E00000FF0000FF000000FF0000FF000000FF12
:1003F0000000FFFFFFFFFFFFFFFFFFFFFFFFFFFF0B
:10040000FFFFFFFFFFFFFFFFFFFFFFFFFFFFFFFFFC
:10041000FFFFFFFFFFFFFFFFFFFFFFFFFFFF0000EA
:1004200000FF000000FFFFFFFFFFFFFFFFFFFFFFD8
:10043000FFFFFFFFFFFFFFFFFFFFFF000103070DAF
:100440001B1E250011241FBECFEFD0E4DEBFCDBFA1
:1004500011E0A0E0B1E0E8E8FEE100E00BBF02C07F
:1004600007900D92A233B107D9F712E0A2E3B1E0F1
:1004700001C01D92A436B107E1F70E94740C0C94E0
:10048000420F0C9400001F920F920FB60F9211248E
:100490000BB60F921BBE2F938F939F93EF93FF93F7
:1004A0008091C0009091C6008871E0917901EF5F62
:1004B000EF7120917801E21739F0E0937901F0E0D3
:1004C000E458FE4F908301C082E090917701982B11
:1004D00090937701FF91EF919F918F912F910F90C2
:1004E0000BBE0F900FBE0F901F9018951F920F928A
:1004F0000FB60F9211240BB60F921BBE8F939F93D2
:10050000EF93FF9390917B0180917A01981769F0A6
:10051000E0917A01EF5FEF71E0937A01F0E0E45649
:10052000FE4F80818093C60005C08091C1008F7D01
:100530008093C100FF91EF919F918F910F900BBE1F
:100540000F900FBE0F901F90189510927B01109284
:100550007A01109279011092780197FF04C022E08D
:100560002093C0009F779093C5008093C40088E9D2
:100570008093C10086E08093C20008959091790134
:1005800080917801981781F0E0917801EF5FEF7129
:10059000E0937801F0E0E458FE4F208180917701EC
:1005A0001092770130E002C020E031E0C9010895E7
:1005B00090917B019F5F9F7120917A019217E1F3E7
:1005C000E92FF0E0E456FE4F808390937B01809109
:1005D000C10080628093C1000895CF93DF93EC0146
:1005E00002C00E94D80289918111FBCFDF91CF9187
:1005F0000895CF93DF93EC0102C00E94D802FE0160
:10060000219684918111F9CFDF91CF9108951F92A6
:100610000F920FB60F9211240BB60F921BBE2F93A1
:100620008F939F93EF93FF938091C8009091CE009A
:100630008871E0913401EF5FEF7120913301E2178F
:1006400039F0E0933401F0E0E95CFE4F908301C0A3
:1006500082E090913201982B90933201FF91EF91BB
:100660009F918F912F910F900BBE0F900FBE0F9007
:100670001F9018951F920F920FB60F9211240BB670
:100680000F921BBE8F939F93EF93FF939091360130
:1006900080913501981769F0E0913501EF5FEF71B6
:1006A000E0933501F0E0E95AFE4F80818093CE005F
:1006B00005C08091C9008F7D8093C900FF91EF91A3
:1006C0009F918F910F900BBE0F900FBE0F901F90B8
:1006D0001895109236011092350110923401109243
:1006E000330197FF04C022E02093C8009F779093C6
:1006F000CD008093CC0088E98093C90086E0809388
:10070000CA0008959091340180913301981781F0C7
:10071000E0913301EF5FEF71E0933301F0E0E95CCA
:10072000FE4F2081809132011092770130E002C0AB
:1007300020E031E0C9010895909136019F5F9F71DB
:10074000209135019217E1F3E92FF0E0E95AFE4FCD
:100750008083909336018091C90080628093C900A4
:100760000895CF93DF93EC0102C00E949C0389910E
:100770008111FBCFDF91CF910895CF93DF93EC01EF
:1007800002C00E949C03FE01219684918111F9CF41
:10079000DF91CF9108956091CD017091DA016717D3
:1007A00030F19091DB01691710F54091E00190E084
:1007B0002091CB013091CC01442381F0462F50E0B1
:1007C000471B510902C0880F991F4A95E2F7822BF7
:1007D000932B9093CC018093CB0132C0220F331F17
:1007E000282B392B3093CC012093CB0129C0709159
:1007F000DC01671728F19091DD01691708F5409138
:10080000E00190E02091C9013091CA01442381F0B8
:10081000462F50E0471B510902C0880F991F4A9587
:10082000E2F7822B932B9093CA018093C90108C0F1
:10083000220F331F282B392B3093CA012093C90173
:100840006F5F6093CD010895299821980895FC0168
:100850008091C4018823B9F18091C3018230A9F548
:100860008091BF019091C0012091BF013091C001E2
:10087000892F99272095309533278217930709F4FC
:1008800014C08091C1019091C2018E3E9748B9F485
:100890008BE08093C3018091BF019091C001892FAB
:1008A00099279093C2018093C1018091BF019091DB
:1008B000C00199279093C0018093BF0106C080E0DA
:1008C0001092C401089580E008958091C30180834F
:1008D0008091C1019091C201928381838091BF0177
:1008E0009091C001948383838091BC018583109291
:1008F000C0011092BF011092C2011092C10110926A
:10090000BC0181E0DDCF83B19091C401911182C11E
:1009100082709091C50191112EC09091C6018111F4
:1009200004C09F5F9093C60175C19923A9F081E02F
:100930008093C5018093C7011092C8011092CA012B
:100940001092C9011092CC011092CB019FEF9093AD
:10095000CD018093CE015EC18091CF019091D001F5
:100960008F3F2FEF920709F455C101969093D00164
:100970008093CF014FC19091C7019923D1F1882372
:1009800049F08091CE018F5F8093CE018A3E08F4BA
:10099000A8C065C08091C6018E55843560F48091F1
:1009A000CE0190E08E32910524F08A35910544F015
:1009B00002C0479744F41092C50160E070E005C0A2
:1009C00068E371E002C069E471E08091C5018823A9
:1009D00031F041E150E081ED91E00E94390F109239
:1009E000CD0181E08093C6011092CE011092C70123
:1009F00078C09091C801992309F466C0882309F44E
:100A00000CC14091CD018091DE01481311C090913D
:100A1000DF01913069F48091C6019091D601891768
:100A2000F0F09091D7019817D0F01092DF0159C0E3
:100A30009091CE019F5F9093CE019A3E08F451C0F1
:100A4000242F30E090E001972817390741F4809176
:100A5000DF01811104C04F5F4093CD0142C010926D
:100A6000C5011092C6011092CE013BC09091D301F6
:100A7000981760F09091CE012091D401921730F038
:100A80002091D501291710F081E013C09091D60173
:100A90008917A0F09091D701981780F08091CE012E
:100AA0009091D801891750F09091D901981730F0A2
:100AB00080E00E94CB031092C80104C01092C501CF
:100AC0001092CE0181E005C0811106C08091C6015F
:100AD0008F5F8093C60105C081E08093C801809339
:100AE000CE018091C501882309F494C03091CD01D5
:100AF0008091DE0138138EC08091DF0181118AC0A0
:100B000040910001509101018091C9019091CA0169
:100B10004817590769F48091CF019091D001803B2B
:100B2000944030F48091E2018F5F8093E20102C033
:100B30001092E20181E08093C4012091D101223022
:100B400009F531111FC08091CF019091D0018830FB
:100B50009740B0F480910201909103019093CC01F1
:100B60008093CB015093CA014093C9018091BC018D
:100B700081608093BC011092D0011092CF0102C01D
:100B80001092C4012093C3018091CB019091CC01BC
:100B90009093C2018093C101223021F4909303010C
:100BA000809302012091C9013091CA013093C001A4
:100BB0002093BF016091C401662311F142175307CE
:100BC00099F440910201509103014817590761F4CB
:100BD0004091CF015091D0014A3C584028F44091B7
:100BE000BC0141604093BC019093030180930201DA
:100BF00030930101209300011092D0011092CF0197
:100C00001092C5011092CA011092C9011092C6013A
:100C10001092CE018091C40108958091C6019091F7
:100C2000D201891708F022CF31CF8A3010F4805DCD
:100C30000895895C0895FC0120E030E018C091918E
:100C4000492F40534A3058F04151463010F49753E1
:100C500007C0492F4156463018F4975501C0942FCC
:100C600044E0220F331F4A95E1F7290F311D9E2FD3
:100C7000981B961720F3C9010895E0911302EF5FC6
:100C8000E0931302F0E0ED5EFD4F8083809113024C
:100C90008230A1F020F4813009F051C006C08430C8
:100CA000B1F1863009F04BC043C080911402823606
:100CB00009F445C08C3609F442C026C09091140254
:100CC000923619F09C3601F514C0909115029836B1
:100CD00041F0933749F09136B9F493E090930F02C5
:100CE00010C080930F022BC081E080930F0284E03C
:100CF00008C080911502833739F487E080930F0292
:100D000086E080930D021BC01092130218C062E0AF
:100D100086E192E00E941B068093300290910F02C0
:100D2000923069F490910D02980F90930D0207C0D4
:100D300062E088E192E00E941B068093310280917C
:100D40001302823048F090910D02891305C0109271
:100D5000130280910F02089580E00895A0EFB1E0A2
:100D6000EC91EF5FEC93F0E0EA0FFB1F808380E0F3
:100D700008951F920F920FB60F9211240F900FBE7D
:100D80000F901F9018951092130281E890E00E9436
:100D9000A5021092F00181E890E00E946903549A44
:100DA000089580910A0190910B01209108013091E2
:100DB000090130930B0120930A019093090180935C
:100DC0000801809106019091070120910401309162
:100DD000050130930701209306019093050180934C
:100DE000040108951F93CF93DF93CFE3D2E0A0E5F2
:100DF000B2E09D0181E090E070E060E2E0910401EA
:100E0000F0910501E80FF91F462F40954083E991C5
:100E1000F0E0EE0FFF1FE65AFE4F45915491F901A5
:100E2000419351939F01452B09F0762B660F019654
:100E30008430910519F7E0910401F0910501708368
:100E400081E090E03CC0E52FF0E0EE0FFF1FE25B99
:100E5000FD4F608171816217730710F49B01452F6C
:100E60005F5F543080F34C1721F150E0FA01EE0F30
:100E7000FF1FE25BFD4F208131816D917C911197C5
:100E80007183608311963C932E93209104013091DD
:100E90000501F901E40FF51F4081E901C80FD91FD1
:100EA00028812083E0910401F0910501E80FF91FEA
:100EB0004083129601968430910509F457C0C82FDB
:100EC000482F582F2FEF33E0BECF232B71F0209106
:100ED000040130910501D901A40FB51FE901C80F24
:100EE000D91F2C91888128232C934E2F1BC0842F2F
:100EF00090E0DC01AA0FBB1FA05BBD4F2D913C9180
:100F0000DC01AA0FBB1FA25BBD4F2D933C93A091A8
:100F10000401B0910501A80FB91F11968C9111978A
:100F20008C934F5F411718F311508E2F90E0DC0126
:100F3000AA0FBB1FA25BBD4F2D913C91AC014F5F2F
:100F40005F4FDA01AA0FBB1FA25BBD4F6D917C9171
:100F50002617370721F0232B09F46FC003C0E117D0
:100F600008F4B3CFEF5FE11700F303C0E1E013E053
:100F7000DCCFF0E0EE0FFF1FE25BFD4F808191813F
:100F8000892B09F41150E0910801F0910901111128
:100F900008C080E090E3918380839383828311E093
:100FA0003FC0812F90E0880F991FEF01C80FD91F14
:100FB000DC01A25BBD4F2D913C91119748EE42039D
:100FC000C001439F900D1124905A998388832D91DD
:100FD0003C91412F415058E119C0842F90E0880F77
:100FE000991FEF01C80FD91FDC01A25BBD4F8D9186
:100FF0009C911197281B390B529FC001539F900D54
:101000001124998388832D913C9141504111E5CF62
:1010100048E1429FC001439F900D1124918380833A
:1010200010923602809136028823E1F3F8940E94F0
:10103000D10610930C01789404C0E11708F455CF41
:1010400091CFDF91CF911F9108951F920F920FB60C
:101050000F9211240BB60F921BBE2F933F934F9309
:101060005F936F938F939F93EF93FF93809198007B
:10107000909199006091E301262F30E0A901440F7F
:10108000551FE0910A01F0910B01E40FF51F40811B
:101090005181840F951F9093990080939800E0915F
:1010A0000601F0910701E20FF31F9081611105C065
:1010B00092B981E08093E30110C082B1892382B9A3
:1010C00080910C01681306C081E080933602109273
:1010D000E30103C06F5F6093E301FF91EF919F9184
:1010E0008F916F915F914F913F912F910F900BBE18
:1010F0000F900FBE0F901F90189580EE81B982E07F
:1011000080939100E1E7F0E0808182608083089520
:10111000653029F130F4633091F0C8F46230F1F5B4
:1011200006C0673061F118F16830C1F52FC097E053
:10113000899FF0011124E05FFE4F8481089597E0BC
:10114000899FF0011124E05FFE4F8581089597E0AB
:10115000899FF0011124E05FFE4F8681089597E09A
:10116000899FF0011124E05FFE4F8181089597E08F
:10117000899FF0011124E05FFE4F80810895689FF0
:10118000F0011124E05FFE4F8281089597E0899F6E
:10119000F0011124E05FFE4F8381089580E00895FF
:1011A000CF9380910E0190910F01892B09F041C0DE
:1011B000E091E50183E0E89FF0011124E453FC4F46
:1011C0006591749160931401E091E50183E0E89FDB
:1011D000F0011124E353FC4F4591549140931501C4
:1011E000E091E50183E0E89FF0011124E253FC4F18
:1011F00025913491209316018091110190E0689F10
:10120000F001699FF00D1124F0934002489FB00156
:10121000499F700D112470933F02289FA001299FC0
:10122000500D1124509341020E94F206CF910C946C
:10123000C909C091130180910D01C81759F180911E
:101240000E0190910F01EC2FF0E0EE0FFF1FE65A18
:10125000FC4F25913491289FA001299F500D112406
:1012600050930F0140930E0180910E0190910F0158
:10127000E0910D01F0E0EE0FFF1FE65AFC4F659183
:10128000749177270E941F0F70930F0160930E01D6
:10129000C0930D0180910E0190910F019195819560
:1012A00091099093610280936002E091E50183E0EF
:1012B000E89FF0011124E453FC4F859194919091A3
:1012C0001401981710F421E001C02FEF209357026A
:1012D000213011F4891B02C0981B892F809356027C
:1012E00020910E0130910F0190E0821B930B90939F
:1012F000630280936202E091E50183E0E89FF001E0
:101300001124E353FC4F8591949190911501981706
:1013100010F421E001C02FEF20935B02213011F483
:10132000891B02C0981B892F80935A0220910E01BD
:1013300030910F0190E0821B930B90935D0280939C
:101340005C02E091E50183E0E89FF0011124E253A3
:10135000FC4F8591949190911601981710F421E01B
:1013600001C02FEF20935902213011F4891B02C0D4
:10137000981B892F8093580220910E0130910F0104
:1013800090E0821B930B90935F0280935E02CF915B
:10139000089580911201811107C08FEF9FEF909304
:1013A0000F0180930E0108959091E5019F5F909346
:1013B000E5014091E50190E0FC01E55CFB4F2591E2
:1013C0003491421738F0FC01E65CFB4F8591949113
:1013D0008093E501E091E501F0E0EE0FFF1FEE578D
:1013E000FC4F85919491E0911301F0E0EE0FFF1F07
:1013F000E65AFC4F25913491289FA001299F500D5A
:10140000389F500D1124852F992790930F018093B9
:101410000E010C94D008CF93DF93882369F080915C
:101420000E0190910F01019790930F0180930E018F
:10143000892B11F40E94C90980911201882309F4B3
:101440008CC08091600290916102D0915702A0916E
:1014500014012091620230916302BC01660F771F74
:10146000A901440F551FB0E004C0460F571FB1E05B
:10147000AC2FF901CA2FCD0F280F391F84179507FC
:10148000A4F3A093140120915602AF01420F511D05
:101490005093630240936202D0915B02A0911501C8
:1014A00020915C0230915D02A901440F551F04C0D8
:1014B000460F571FB1E0AC2FF901CA2FCD0F280FEF
:1014C000391F84179507A4F3A093150120915A02A0
:1014D000AF01420F511D50935D0240935C02D091C9
:1014E0005902A091160120915E0230915F02A9017C
:1014F000440F551F04C0460F571FB1E0AC2FF90130
:10150000CA2FCD0F280F391F84179507A4F3A09376
:101510001601809158029F01280F311D30935F0200
:1015200020935E02BB23C9F0209114018091110128
:10153000829F900111243093400220911501289F31
:101540009001112430933F02A89FC0011124909371
:101550004102DF91CF910C94F206DF91CF91089573
:101560002F923F924F925F926F927F928F929F92B3
:10157000AF92BF92CF92DF92EF92FF920F931F93A1
:10158000CF93DF931F92CDB7DEB7542E11E1C12E5A
:1015900011E0D12E04E1802E01E0902E95E1A92EDC
:1015A00091E0B92E26E1E22E21E0F22E02E111E0D7
:1015B000212C312C412C682E712CC301022C02C02D
:1015C000959587950A94E2F780FF7BC06530B9F165
:1015D00038F46330E1F058F5623009F072C009C0A8
:1015E000673009F44FC008F469C0683009F069C079
:1015F0005BC0F8011082F4015082211062C0F60134
:101600008081859DC0011124909340020DC0F80196
:101610001082F5015082211054C0F6018081859D11
:10162000C001112490933F02442443944AC0F8011E
:101630001082F7015082211044C0F60117C0F60154
:10164000508221103EC080911201811116C0F40118
:101650008081859DC001112490934002F501808115
:10166000859DC001112490933F02F7018081859DE3
:10167000C001112490934102D7CF80E069830E947A
:101680000B0A1AC0F801508221101BC0E091120110
:10169000F0E0E55CFB4F8591949181508093E501EA
:1016A00069830E94C90908C0F7013397508221104D
:1016B00008C069830E94D008698103C0F70136978A
:1016C00050828091120181110AC0442041F0809122
:1016D000E401811104C069830E94F2066981FFEF71
:1016E0002F1A3F0A27E0C20ED11C87E0880E911CFA
:1016F000E7E0AE0EB11CF7E0EF0EF11C095F1F4FE3
:1017000022E02216310409F058CF1092E4010F9024
:10171000DF91CF911F910F91FF90EF90DF90CF90CD
:10172000BF90AF909F908F907F906F905F904F9001
:101730003F902F9008951F920F920FB60F92112491
:101740000BB60F921BBE2F933F934F935F936F93F4
:101750007F938F939F93AF93BF93EF93FF931092D9
:101760006F0078940E9483048091E6019091E701D4
:1017700001969093E7018093E6018091EF01982F05
:101780009F5F9093EF018639A0F081E08093EA019A
:101790001092EF018091E8019091E901019649F0E2
:1017A0008091E8019091E90101969093E90180937D
:1017B000E801F89482E080936F00FF91EF91BF9170
:1017C000AF919F918F917F916F915F914F913F91D9
:1017D0002F910F900BBE0F900FBE0F901F9018957A
:1017E00084E395E0909389008093880089E080935A
:1017F000810082E080936F000895FF920F931F9302
:10180000CF93DF93182F062FF42E5C9A8EE191E090
:101810000E94B103812F0E9415060E949C03802F15
:101820000E9415060E949C03CF2DDD27C7FDD09591
:10183000C07FDD2784E0D595C7958A95E1F78C2F89
:101840000E9415060E949C03DF2DDF708D2F0E94E1
:1018500015060E949C038EE191E00E94ED02812F0B
:101860000E9415060E94D802802F0E9415060E9431
:10187000D8028C2F0E9415060E94D8028D2F0E943C
:1018800015060E94D8024F2D602F812FDF91CF9136
:101890001F910F91FF900C94B00A1F93CF93DF9389
:1018A000162FD42FC1E0C093E401482F62E083E0FB
:1018B0000E94FD0BC093E401412F63E083E00E948E
:1018C000FD0B4D2F64E083E0DF91CF911F910C94CD
:1018D000FD0B0895861708F4682F862F0895681762
:1018E00008F4682F862F0895CF93DF9300D000D09F
:1018F00000D0CDB7DEB70E9424040E94C3065C98D6
:101900000E94F00B0E947D087894712C10E0E12C6D
:10191000F12C412C512C812CA12C40EFB42E0E9493
:10192000BE0290FD49C00E943D06813021F0873003
:1019300009F042C014C0809130028130E9F581E2A3
:1019400091E00E94ED022FEF88E09DE3215080405E
:101950009040E1F700C00000F50109952DC05C9AA8
:101960008EE191E00E94B1038091300282958F70E8
:101970000E9415060E949C03809130028F700E9485
:1019800015060E949C038091310282958F700E94FF
:1019900015060E949C03809131028F700E941506EB
:1019A0000E949C0380913002682F6F704091310239
:1019B00082958F700E94B00A0E9482036C0190FD94
:1019C00008C00E94AE0683E60E94D8028C2D0E94B9
:1019D000D802CE0101960E942704882351F0898104
:1019E000823039F48A819B8181159F4F11F42C81BB
:1019F00001C020E081E08816A9F093E0891611F07B
:101A000081100DC0222309F414C21092E901109232
:101A1000E801122F412C512C8824839438C0E2E035
:101A20008E120AC02111FFC18091E8019091E90155
:101A3000459708F0FBC1F7C1F4E08F1221C02111D6
:101A400008C08091E8019091E901459708F0F1C143
:101A50001EC02223C1F0121316C08091E80190919C
:101A6000E901480E591E1092E9011092E80122E0A6
:101A7000821209C083E34816510408F0DCC1B5C1E5
:101A8000882009F4B2C192E0891609F4AEC110347D
:101A900059F0772049F081E08093E401472D65E01B
:101AA00083E00E94FD0B712CE3E08E1609F452C016
:101AB000F4E08F1609F4D5C021E0821296C1812F7F
:101AC00090E0FC013497E635F10508F08EC1EA5B41
:101AD000FF4F0C94330F65E080E00E948808D82EF9
:101AE000472D65E083E00E94FD0B7D2C7EC140E028
:101AF00060E009C040E06FEF02C04FEF60E080E0BF
:101B000003C04FEF6FEF8FEF0E944D0C6EC168E086
:101B100080E00E948808843108F083E1482F4F5FFD
:101B200009C068E080E00E948808811101C081E05E
:101B3000482F415068E083E056C142E001C043E0D5
:101B400067E0F9CF44E0FCCF45E0FACF46E0F8CFBC
:101B500047E0F6CF123109F466C070F41D3009F485
:101B600076C020F41C3009F040C167C0103191F1FB
:101B7000113109F03AC143C0163109F44AC030F4BA
:101B80001431F1F0153109F030C12FC01C3521F0AE
:101B90001D3509F02AC10AC065E080E00E9488086E
:101BA000803F08F08FEE482F405F94C065E080E0F2
:101BB0000E948808803108F480E1482F40518AC093
:101BC00062E080E00E948808803F08F08FEE482F96
:101BD000405F09C062E080E00E948808803108F41C
:101BE00080E1482F405162E0A6CF63E080E00E9490
:101BF0008808803F08F08FEE482F405FA2C063E066
:101C000080E00E948808803108F480E1482F40512C
:101C100098C064E080E00E948808803F08F08FEE62
:101C2000482F405FA5C064E080E00E9488088031B2
:101C300008F480E1482F40519BC066E081E00E949B
:101C4000880887FF02C040E0A4C04FEFA2C066E052
:101C500080E00E94880887FF02C040E0C2C04FEFCA
:101C6000C0C0842D8E19823008F4BFC0D82ED694FF
:101C700082E0D89EE00CF11C1124123109F46FC0EF
:101C800070F41D3009F493C020F41C3009F0ADC08D
:101C900071C01031B9F1113109F0A7C049C0163136
:101CA00009F451C030F4143109F1153109F09DC027
:101CB00033C01C3521F01D3509F097C00DC065E01B
:101CC00080E00E9488089D2D9095981708F4892F30
:101CD000482F4D0D65E02FCF65E080E00E94880819
:101CE0008D1508F48D2D482F4D19F4CF62E080E05A
:101CF0000E9488089D2D9095981708F4892F482FE9
:101D00004D0D71CF62E080E00E9488088D1508F4C7
:101D10008D2D482F4D1967CF63E080E00E94880821
:101D20009D2D9095981708F4892F482F4D0D09C0C7
:101D300063E080E00E9488088D1508F48D2D482FFF
:101D40004D1963E0F8CE64E080E00E9488089D2D84
:101D50009095981708F4892F482F4D0D09C064E01D
:101D600080E00E9488088D1508F48D2D482F4D19AC
:101D700064E0E1CE66E081E00E94880866E087FFCB
:101D80000BC081E00E9488088D1508F48D2D482F26
:101D90004D1966E082E027C081E00E9488089D2DF1
:101DA0009095981708F4892F482F4D0DF2CF66E0D3
:101DB00080E00E94880866E087FF09C080E00E94FA
:101DC00088088D1508F48D2D482F4D190AC080E024
:101DD0000E9488089D2D9095981708F4892F482F08
:101DE0004D0D66E081E00E94FD0B8091EA018823A1
:101DF00009F495CD1092EA018091EB019091EC01EC
:101E0000A091ED01B091EE010196A11DB11D80934D
:101E1000EB019093EC01A093ED01B093EE0181E012
:101E20000E940B0A7CCD32E0832E13CE23E0822E5B
:101E30002ECE812CDACF720194E0892E28CEAA1BF7
:101E4000BB1B51E107C0AA1FBB1FA617B70710F0A5
:101E5000A61BB70B881F991F5A95A9F780959095D7
:101E6000BC01CD010895EE0FFF1F0590F491E02D08
:101E70000994FB01DC0102C005900D9241505040D5
:081E8000D8F70895F894FFCF94
:101E8800FFFFFFFF4A023202370242020108010047
:101E980000FF010800000000FF01080000006C734B
:101EA80000737461727420426F6F746C6F61646543
:021EB8007200B6
:00000001FF
