:100000000C946B010C948A010C948A010C948A0163
:100010000C948A010C948A010C948A010C948A0134
:100020000C948A010C948A010C948A010C948A0124
:100030000C948A010C9400090C948A010C948A0196
:100040000C948A010C948A010C948A010C948A0104
:100050000C948C010C94BE010C948A010C948A01BE
:100060000C948A010C948A010C948A010C948A01E4
:100070000C9456020C9488020C949D050C948A01F1
:100080000C941C070C948A010C948A0102050C1133
:1000900022050C050C001010202001010002050CA7
:1000A0001122050C050C00000000000101000000F9
:1000B0000000010001000100010002000200020036
:1000C0000200030003000300040004000400050014
:1000D00005000500060006000600070007000700EF
:1000E000080008000800090009000A000A000A00C8
:1000F0000B000B000C000C000D000D000E000E009C
:100100000F000F001000100011001100120012006B
:100110001300130014001400150016001600170039
:1001200017001800190019001A001B001C001C0001
:100130001D001E001E001F002000210022002200C2
:10014000230024002500260027002800280029007D
:100150002A002B002C002D002E002F003000310033
:1001600032003400350036003700380039003B00DB
:100170003C003D003E00400041004200440045007C
:100180004600480049004B004C004E004F00510013
:10019000530054005600580059005B005D005F009A
:1001A000600062006400660068006A006C006E0017
:1001B000700072007500770079007B007E0080007F
:1001C0008200850087008A008D008F0092009400D5
:1001D00097009A009D00A000A300A600A900AC0013
:1001E000AF00B200B500B900BC00BF00C300C6003C
:1001F000CA00CE00D100D500D900DD00E100E50045
:10020000E900ED00F100F600FA00FE00030107012D
:100210000C01110116011B01200125012A012F01EA
:1002200034013A013F0145014B01510156015C0186
:10023000630169016F0176017C01830189019001ED
:1002400097019E01A601AD01B401BC01C401CB011F
:10025000D301DC01E401EC01F501FD0106020F020E
:10026000180221022B0234023E02480252025C02B2
:10027000670271027C02870292029D02A902B50206
:10028000C102CD02D902E502F202FF020C031A03F9
:10029000270335034303510360036E037D038D037E
:1002A0009C03AC03BC03CC03DD03EE03FF0300207F
:1002B000A0160010500B0008A8050004D40200028C
:1002C0006A010001B50080005A0040002D002000A6
:1002D000160010000B0011241FBECFEFD0E4DEBFCC
:1002E000CDBF11E0A0E0B1E0EAE7F3E100E00BBF31
:1002F00002C007900D92A63BB107D9F712E0A6EB1A
:10030000B1E001C01D92A43EB107E1F70E942F09A0
:100310000C94BB090C9400001F920F920FB60F9221
:100320000BB60F9211242F938F939F93EF93FF930C
:100330009091C0008091C600E0911E02EF5FEF71C6
:1003400020911F02E21741F09871E0931E02F0E045
:10035000E05EFD4F808301C092E08091FB01892B1C
:100360008093FB01FF91EF919F918F912F910F90BF
:100370000BBE0F900FBE0F901F9018951F920F92FB
:100380000FB60F920BB60F9211248F939F93EF939A
:10039000FF939091FC018091FD01981769F0E09125
:1003A000FD01EF5FEF71E093FD01F0E0E250FE4FE1
:1003B00080818093C60005C08091C1008F7D8093AD
:1003C000C100FF91EF919F918F910F900BBE0F9005
:1003D0000FBE0F901F9018951092FC011092FD0116
:1003E00010921E0210921F0297FF04C022E0209379
:1003F000C0009F779093C5008093C40088E98093E4
:10040000C10086E08093C200089590911E02809101
:100410001F02981781F0E0911F02EF5FEF71E093E8
:100420001F02F0E0E05EFD4F20818091FB01109201
:10043000FB0130E002C020E031E0C9010895909155
:10044000FC019F5F9F712091FD019217E1F3E92F5D
:10045000F0E0E250FE4F80839093FC018091C10058
:1004600080628093C1000895EF92FF92CF93DF9353
:10047000E82EE7017E01F92EE70102C00E941F026B
:1004800089918823D9F7DF91CF91FF90EF9008955C
:10049000CF93DF93EC0102C00E941F02FE01219660
:1004A00084918823C9F7DF91CF9108951F920F920D
:1004B0000FB60F920BB60F9211242F938F939F9329
:1004C000EF93FF939091C8008091CE00E091D80106
:1004D000EF5FEF712091D901E21741F09871E0933D
:1004E000D801F0E0E652FE4F808301C092E0809197
:1004F000FA01892B8093FA01FF91EF919F918F91DF
:100500002F910F900BBE0F900FBE0F901F9018955C
:100510001F920F920FB60F920BB60F9211248F936A
:100520009F93EF93FF939091B6018091B701981735
:1005300069F0E091B701EF5FEF71E093B701F0E090
:10054000E854FE4F80818093CE0005C08091C900A1
:100550008F7D8093C900FF91EF919F918F910F90B4
:100560000BBE0F900FBE0F901F9018951092B60102
:100570001092B7011092D8011092D90197FF04C0D0
:1005800022E02093C8009F779093CD008093CC0009
:1005900088E98093C90086E08093CA00089590910D
:1005A000D8018091D901981781F0E091D901EF5FCE
:1005B000EF71E093D901F0E0E652FE4F2081809187
:1005C000FA011092FB0130E002C020E031E0C901E5
:1005D00008959091B6019F5F9F712091B701921786
:1005E000E1F3E92FF0E0E854FE4F80839093B601E9
:1005F0008091C90080628093C9000895EF92FF92B4
:10060000CF93DF93E82EE7017E01F92EE70102C0C8
:100610000E94E90289918823D9F7DF91CF91FF9059
:10062000EF900895CF93DF93EC0102C00E94E9029E
:10063000FE01219684918823C9F7DF91CF91089517
:100640006091450270914F02671730F1909150020E
:10065000691710F54091550290E0209143023091C6
:100660004402442381F0462F50E0471B510902C049
:10067000880F991F4A95E2F7822B932B909344029F
:100680008093430232C0220F331F282B392B309323
:1006900044022093430229C070915102671728F148
:1006A00090915202691708F54091550290E020910F
:1006B000410230914202442381F0462F50E0471B13
:1006C000510902C0880F991F4A95E2F7822B932B9C
:1006D000909342028093410208C0220F331F282BBF
:1006E000392B30934202209341026F5F60934502A1
:1006F0000895299821980895FC018091400288234B
:10070000B9F1809158028230A9F580915B029091F5
:100710005C0220915B0230915C02892F9927209521
:100720003095307082179307A9F08091590290910B
:100730005A0227E88E3E9207B9F48BE08093580264
:1007400080915B0290915C02892F992790935A02C5
:100750008093590280915B0290915C02907090931B
:100760005C0280935B0206C080E010924002089514
:1007700080E0089580915802808380915902909181
:100780005A029283818380915B0290915C029483F0
:10079000838380915702858310925C0210925B02E2
:1007A00010925A02109259021092570281E0DDCF46
:1007B00083B190914002992309F08CC1827090918D
:1007C0006402992371F590916102882321F49F5F5F
:1007D000909361027FC19923A9F081E08093640224
:1007E00080936202109263021092420210924102C0
:1007F00010924402109243029FEF9093450280931F
:10080000600268C180915E0290915F022FEF8F3F7E
:10081000920709F45FC1019690935F0280935E0294
:1008200059C1909162029923D9F1882349F08091AE
:1008300060028F5F809360028A3E08F4A9C066C0A0
:10084000809161028E55843568F48091600290E059
:100850008E32910524F08A3591054CF003C0873122
:10086000910544F41092640260E070E005C06CE809
:1008700070E002C06DE970E080916402882331F07D
:1008800086E492E041E150E00E94B20910924502F4
:1008900081E080936102109260021092620278C03F
:1008A00090916302992309F466C0882309F415C165
:1008B0004091450280915302481789F49091540267
:1008C000913069F48091610290914B028917F0F0A8
:1008D00090914C029817D0F01092540259C0909108
:1008E00060029F5F909360029A3E08F451C0242FEB
:1008F00030E090E001972817390741F480915402C5
:10090000882321F44F5F4093450242C01092640255
:1009100010926102109260023BC0909148029817B9
:1009200060F09091600220914902921730F020917E
:100930004A02291710F081E013C090914B028917E9
:10094000A0F090914C02981780F0809160029091F5
:100950004D02891750F090914E02981730F080E0C8
:100960000E9420031092630204C01092640210924D
:10097000600281E005C0882331F4809161028F5FBD
:100980008093610205C081E08093630280936002DE
:1009900080916402882309F49DC0509145028091A2
:1009A0005302581709F096C080915402882309F029
:1009B00091C08091000190910101209141023091FC
:1009C00042028217930771F420915E0230915F0218
:1009D00044E0203B340730F420915D022F5F2093E8
:1009E0005D0202C010925D0221E02093400240911E
:1009F0004602423011F5552301F520915E023091F7
:100A00005F0257E028303507B0F4209102013091A1
:100A10000301309344022093430290934202809357
:100A200041028091570281608093570210925F02C9
:100A300010925E0202C010924002409358028091D0
:100A400043029091440290935A028093590242309B
:100A500021F490930301809302012091410230918F
:100A6000420230935C0220935B0240914002442397
:100A700039F1409100015091010142175307A1F44F
:100A800040910201509103014817590769F44091C0
:100A90005E0250915F0268E04A3C560728F440919C
:100AA00057024160409357029093030180930201E3
:100AB000309301012093000110925F0210925E02B8
:100AC000109264021092420210924102109261024E
:100AD000109260028091400208958091610290918D
:100AE0004702891708F019CF28CF282F392FF9018D
:100AF00020E030E090E019C08191482F40534A3007
:100B000058F04151463010F4875307C0482F4156E2
:100B1000463018F4875501C0842F44E0220F331F5C
:100B20004A95E1F7280F311D9F5F961728F3C901F9
:100B3000089580E0089580E008951F920F920FB607
:100B40000F9211242C980F900FBE0F901F901895A4
:100B50001092930281E890E00E94EC0110927002E2
:100B600081E890E00E94B6022C9AE9ECF0E08081E6
:100B70008064808308958091050190910601209101
:100B800007013091080130930601209305019093ED
:100B90000801809307018091090190910A01209139
:100BA0000B0130910C0130930A01209309019093BD
:100BB0000C0180930B0108951F93CF93DF932FEBCC
:100BC00032E0A0EDB2E0ED0180E090E070E060E2A4
:100BD0000196E0910B01F0910C01E80FF91F462FEF
:100BE00040954083F90141919F01E42FF0E0EE0F21
:100BF000FF1FE255FF4F4591549149935993411579
:100C0000510509F0762B8330910511F0660FE0CF86
:100C1000E0910B01F0910C01708380E090E040C006
:100C2000E62FF0E0EE0FFF1FE253FD4F40815181B0
:100C30004217530710F49A01162F6F5F643080F348
:100C4000171741F1212F30E0F901EE0FFF1FE2539A
:100C5000FD4F408151816D917C911197718360832B
:100C600011965C934E9340910B0150910C01FA0147
:100C7000E20FF31F60819C012F5F3F4F420F531F14
:100C8000EA0148814083E0910B01F0910C01E20FF1
:100C9000F31F6083019612968330910509F45FC0BB
:100CA000782F7F5F172F672F2FEF33E0C7CF009785
:100CB00089F020910B0130910C018E2F90E0DC0126
:100CC0001196A20FB31F820F931F2C91EC01888104
:100CD00028232C934E2F1BC0842F90E0DC01AA0FF9
:100CE000BB1FA253BD4FEC01CC0FDD1FC053DD4F26
:100CF000288139812D933C93A0910B01B0910C0177
:100D0000A80FB91F11968C9111978C934F5F4117C3
:100D100018F31150AE2FB0E0ED01CC0FDD1FC25320
:100D2000DD4F88819981AA0FBB1FA053BD4F2D9124
:100D30003C9111978217930711F0009719F4E1176E
:100D400008F4B5CFEF5FE11728F3F0E0EE0FFF1FD7
:100D5000E253FD4F80819181009729F403C0E1E0C7
:100D600013E0D8CF1150E0910701F0910801112351
:100D700041F480E090E3918380839383828311E048
:100D80004BC0812F90E0880F991FEF01C80FD91F2A
:100D9000DC01A253BD4F4D915C91119788EE9FEFFE
:100DA000489F9001499F300D589F300D11242050CD
:100DB000304A398328832D913C911197412F1EC0D1
:100DC000842F90E0880F991FEF01C80FD91FDC0115
:100DD000A253BD4F8D919C911197281B390BC901CE
:100DE000880F991F820F931F53E0880F991F5A9500
:100DF000E1F7998388832D913C911197415001F738
:100E0000C901880F991F820F931F23E0880F991F34
:100E10002A95E1F7918380831092B6028091B60201
:100E20008823E1F3F8940E94BB05109304017894A1
:100E3000DF91CF911F9108951F920F920FB60F92DD
:100E40000BB60F9211242F933F934F935F936F93A1
:100E50008F939F93EF93FF938091980090919900C7
:100E600060916502262F30E0A901440F551FE091E3
:100E70000501F0910601E40FF51F40815181840FB7
:100E8000951F9093990080939800E0910901F0914B
:100E90000A01E20FF31F9081662329F492B981E0E1
:100EA0008093650210C082B1892382B980910401C8
:100EB000681731F481E08093B6021092650203C096
:100EC0006F5F609365022F9895B182B18078892B0E
:100ED00085B9FF91EF919F918F916F915F914F91A4
:100EE0003F912F910F900BBE0F900FBE0F901F9050
:100EF00018958FEF81B984B982E080939100E1E782
:100F0000F0E08081826080830895E0911101A091DA
:100F10001201EA17F9F0B0E0AA0FBB1FA255BD4FAE
:100F2000F0E0EE0FFF1FE255FD4F8D919C91608127
:100F300071810E949E0920910F0130911001269F1E
:100F4000C001279F900D369F900D112490931001A2
:100F500080930F0180910F01909110012227332778
:100F6000281B390B3093E1022093E002E0916902E3
:100F700023E0E29FF0011124DF01A55CBE4F2C911C
:100F800030916602321710F441E001C04FEF4093F8
:100F9000D702413011F4231B02C0321B232F2093B0
:100FA000D60230E0281B390B3093E3022093E20293
:100FB000DF01A55CBE4F11962C911197309167020D
:100FC000321710F441E001C04FEF4093DB02413093
:100FD00011F4231B02C0321B232F2093DA0230E0CE
:100FE000281B390B3093DD022093DC02E55CFE4FB9
:100FF000228130916802321710F441E001C04FEFB6
:101000004093D902413011F4231B02C0321B232F1D
:101010002093D80230E0281B390B3093DF02209355
:10102000DE020895E0916902EF5FE0936902E43126
:1010300048F4F0E0EE0FFF1FED5EFE4F80819181DE
:10104000009779F410926902809113019091140134
:10105000009739F48FEF9FEF9093100180930F0169
:101060000895E0911101F0E0EE0FFF1FE255FD4FF2
:1010700085919491E0916902F0E0EE0FFF1FED5E23
:10108000FE4F40815181849F9001859F300D949F38
:10109000300D112430930F01109210010E9485072A
:1010A0000895EF92FF920F931F93CF93DF93809158
:1010B0000F019091100101979093100180930F01FF
:1010C000009711F40E94120880911301909114016D
:1010D000009709F48EC08091E0029091E102F090B7
:1010E000D702009166024091E2025091E302FC01B6
:1010F000EE0FFF1FBA01660F771F10E0222733277C
:10110000281B390B220F331F02C00E2D11E0DA010C
:10111000E02EEF0C480F591F6E0F7F1FEB01C20F1F
:10112000D31F8C179D078CF3009366024091D60263
:10113000BD01640F711D7093E3026093E202F090B1
:10114000DB02009167024091DC025091DD02BA019E
:10115000660F771F02C00E2D11E0DA01E02EEF0CB2
:10116000480F591F6E0F7F1FEB01C20FD31F8C1743
:101170009D078CF3009367024091DA02BD01640F72
:10118000711D7093DD026093DC02F090D902009132
:1011900068024091DE025091DF02BA01660F771FAC
:1011A00002C00E2D11E0DA01E02EEF0C480F591F9E
:1011B0006E0F7F1FEB01C20FD31F8C179D078CF39F
:1011C000009368028091D8029D01280F311D309351
:1011D000DF022093DE02112361F08091660280938A
:1011E000C002809167028093BF020093C1020E94F7
:1011F000DC05DF91CF911F910F91FF90EF90089543
:101200001F920F920FB60F9211248F939F931092FB
:101210006F00789480916A02982F9F5F90936A0282
:10122000863928F081E080936F0210926A02F89468
:1012300082E080936F009F918F910F900FBE0F906F
:101240001F90189584E395E090938900809388001F
:1012500089E08093810082E080936F000895CF93AE
:10126000DF930E94A8050E9422090E9479077894C2
:101270008FE78093C0021092BF021092C1020E94B9
:10128000DC0587E791E00E943402C0E0D0EF809156
:101290006F028823B9F010926F0280916B029091D7
:1012A0006C02A0916D02B0916E020196A11DB11D5C
:1012B00080936B0290936C02A0936D02B0936E02C8
:1012C0000E9451080E94050290FD31C00E949905BC
:1012D000813019F0843059F514C08091B00281300A
:1012E00031F584E991E00E9434028FEF98E0ADE39C
:1012F00081509040A040E1F700C00000FE01099538
:1013000016C0809194028150833088F485EA91E080
:101310000E94340280919502882319F48FEA91E0AB
:1013200004C0813021F483EB91E00E9434020E94DA
:10133000CF0290FDACCF0E949B05A9CFAA1BBB1B7F
:1013400051E107C0AA1FBB1FA617B70710F0A61BC5
:10135000B70B881F991F5A95A9F780959095BC01E6
:10136000CD010895FB01DC0102C005900D924150B2
:0A1370005040D8F70895F894FFCF1D
:10137A00FFFFFFFF01C202B702B202CA02FFFF016A
:10138A00000808640064006400640064000000004F
:10139A000000000000000000000000000000000043
:1013AA000000000000000000000000000000003FF4
:1013BA0000007F3F3F3F003F0000000000000000A8
:1013CA000000000000000000000000000000000013
:1013DA000000000000000000000000000000000003
:1013EA00000000000000000A6769746875622E63D5
:1013FA006F6D2F426F6D616E2F6C656444696D6D00
:10140A0065720A00737461727420426F6F746C6F34
:10141A006164657200536574204C69676874004F93
:06142A006666004F6E0033
:00000001FF
