:020000021000EC
:10F000000C9446F80C9465F80C9465F80C9465F82B
:10F010000C9465F80C9465F80C9465F80C9465F8FC
:10F020000C9465F80C9465F80C9465F80C9465F8EC
:10F030000C9465F80C9465F80C9465F80C9465F8DC
:10F040000C9465F80C9465F80C9465F80C9465F8CC
:10F050000C9467F80C9499F80C9465F80C9465F886
:10F060000C9465F80C9465F80C9465F80C9465F8AC
:10F070000C9431F90C9463F90C9465F80C9465F8D0
:10F080000C9465F80C9465F80C9465F811241FBE77
:10F09000CFEFD0E4DEBFCDBF11E0A0E0B1E0E6ED00
:10F0A000F8EF01E00BBF02C007900D92A832B10744
:10F0B000D9F712E0A8E2B1E001C01D92A13DB1076D
:10F0C000E1F70E94E7FB0C9469FC0C9400F81F9296
:10F0D0000F920FB60F920BB60F9211242F938F93AE
:10F0E0009F93EF93FF939091C0008091C600E091B1
:10F0F0009001EF5FEF7120919101E21741F098715B
:10F10000E0939001F0E0EE56FE4F808301C092E064
:10F1100080916D01892B80936D01FF91EF919F91FB
:10F120008F912F910F900BBE0F900FBE0F901F90DD
:10F1300018951F920F920FB60F920BB60F921124D3
:10F140008F939F93EF93FF9390916E0180916F0146
:10F15000981769F0E0916F01EF5FEF71E0936F0135
:10F16000F0E0E059FE4F80818093C60005C0809199
:10F17000C1008F7D8093C100FF91EF919F918F918E
:10F180000F900BBE0F900FBE0F901F90189510920E
:10F190006E0110926F01109290011092910197FFF1
:10F1A00004C022E02093C0009F779093C500809315
:10F1B000C40088E98093C10086E08093C20008956E
:10F1C0009091900180919101981781F0E0919101C7
:10F1D000EF5FEF71E0939101F0E0EE56FE4F20817A
:10F1E00080916D0110926D0130E002C020E031E0AD
:10F1F000C901089590916E019F5F9F7120916F01E9
:10F200009217E1F3E92FF0E0E059FE4F80839093ED
:10F210006E018091C10080628093C1000895EF92D9
:10F22000FF92CF93DF93E82EE7017E01F92EE701ED
:10F2300002C00E94FAF889918823D9F7DF91CF9113
:10F24000FF90EF900895CF93DF93EC0102C00E94EE
:10F25000FAF8FE01219684918823C9F7DF91CF91B6
:10F2600008951F920F920FB60F920BB60F921124B2
:10F270002F938F939F93EF93FF939091C80080916A
:10F28000CE00E0914A01EF5FEF7120914B01E21750
:10F2900041F09871E0934A01F0E0E45BFE4F808317
:10F2A00001C092E080916C01892B80936C01FF91E9
:10F2B000EF919F918F912F910F900BBE0F900FBEEA
:10F2C0000F901F9018951F920F920FB60F920BB6CA
:10F2D0000F9211248F939F93EF93FF9390912801A6
:10F2E00080912901981769F0E0912901EF5FEF7192
:10F2F000E0932901F0E0E65DFE4F80818093CE002F
:10F3000005C08091C9008F7D8093C900FF91EF9166
:10F310009F918F910F900BBE0F900FBE0F901F907B
:10F320001895109228011092290110924A0110920A
:10F330004B0197FF04C022E02093C8009F77909371
:10F34000CD008093CC0088E98093C90086E080934B
:10F35000CA00089590914A0180914B01981781F05D
:10F36000E0914B01EF5FEF71E0934B01F0E0E45B64
:10F37000FE4F208180916C0110926D0130E002C03F
:10F3800020E031E0C9010895909128019F5F9F71AD
:10F39000209129019217E1F3E92FF0E0E65DFE4F9D
:10F3A0008083909328018091C90080628093C90076
:10F3B0000895EF92FF92CF93DF93E82EE7017E014D
:10F3C000F92EE70102C00E94C4F989918823D9F778
:10F3D000DF91CF91FF90EF900895CF93DF93EC01F1
:10F3E00002C00E94C4F9FE01219684918823C9F7C6
:10F3F000DF91CF910895ECECF2E090E08E0F9F1F2B
:10F4000020E030E018C04191542F50535A3058F04A
:10F410005151563010F4475307C0542F51565630AF
:10F4200018F4475501C0452F54E0220F331F5A9559
:10F43000E1F7240F311DE817F90729F7C9010895ED
:10F44000E091CB02F0E0EF53FD4F80838091CB023F
:10F450008F5F8093CB029091C102973051F483303B
:10F4600050F09091C202891741F41092CB0287E0CC
:10F4700008951092CB0280E0089580E00895CF9225
:10F48000DF92EF92FF920F931F93CF93DF93DA01F6
:10F49000DFB6F894F999FECF23E0FB0180935B007F
:10F4A00020935700E89507B600FCFDCF9B01AC0107
:10F4B00000E010E0CC24C394EC911196FC901197DD
:10F4C000EE24E701CE0FD11D12960E01F9014093F3
:10F4D0005B00C0925700E89511240E5F1F4F2E5F0E
:10F4E0003F4F4F4F5F4FE1E000301E0729F725E007
:10F4F000FB0180935B0020935700E89507B600FC62
:10F50000FDCF81E180935700E895DFBEDF91CF9179
:10F510001F910F91FF90EF90DF90CF900895CF93C0
:10F52000DF9320912501213009F04EC19091BA015D
:10F53000933009F471C0943028F49130C9F09230BE
:10F54000C0F50AC0953009F4F8C0953008F48EC0B3
:10F55000963009F039C135C18A3309F035C120939D
:10F56000BA011092BB011092B7011092B6012CC1E2
:10F570009091BB01E92FF0E0E453FD4F8083892F88
:10F580008F5F8093BB01823009F01EC18093BA0166
:10F590001092BB010E94FBF98093BC012091B6013F
:10F5A0003091B701280F311D3093B7012093B60178
:10F5B0000BC19091BB01E92FF0E0E453FD4F808334
:10F5C000892F8F5F8093BB01843009F0FDC083E0F9
:10F5D0008093BA011092BB0184E00E94FBF99093E2
:10F5E000B3018093B2012091B6013091B701280F89
:10F5F000311D290F311D3093B7012093B6012091A1
:10F600002601222309F4E0C080709093B501809315
:10F61000B40110922601D8C09091BB01E92FF0E00F
:10F62000E453FD4F8083892F8F5F8093BB0182302D
:10F6300009F0CAC01092BB011092BD010E94FBF9F3
:10F640008093BE012091B6013091B701280F311D82
:10F650003093B7012093B601882331F0813021F433
:10F6600085E08093BA01B0C084E0FBCF9091BB01EC
:10F67000E92FF0E0E453FD4F8083892F8F5F809363
:10F68000BB01823009F0A0C08EE20E94FAF810920D
:10F69000BB01C091B801D091B90182E00E94FBF991
:10F6A000FE01EF53FE4F80832091B6013091B701E8
:10F6B000280F311D3093B7012093B6012196D093C6
:10F6C000B901C093B8018091BD018F5F8093BD01E6
:10F6D0009091BC01891729F485E08093BA011092BA
:10F6E000BD0181E0C030D80709F06EC080E091E034
:10F6F0000E940FF98FE79AE1A6E081509040A04068
:10F70000E1F700C000006091B4017091B50180E0A4
:10F7100090E041EC51E00E943FFA81EC91E06FEF04
:10F7200070E040E051E00E9462FC1092B90110923A
:10F73000B80181E08093260147C09091BB01E92F79
:10F74000F0E0E453FD4F8083892F8F5F8093BB01EE
:10F750008230D1F50E94FBF98093BF012091B60160
:10F760003091B701280F311D30703093B7012093CD
:10F77000B6018091BE018130C9F480E091E00E9421
:10F780000FF98FE79AE1A6E081509040A040E1F7A1
:10F7900000C000006091B4017091B50180E090E07C
:10F7A00041EC51E00E943FFA109225018091B60190
:10F7B0009091B701009719F41092BA0105C086E044
:10F7C00050CF83E20E94FAF8DF91CF910895EF9233
:10F7D000FF920F931F93CF93DF931092C90285E09E
:10F7E000ECECF2E0DF011D928A95E9F781EC91E003
:10F7F0006FEF70E040E051E00E9462FC85B78093BB
:10F80000C001982F916095BF826085BF81E890E02C
:10F810000E94C7F8789484E091E00E940FF98FEF7E
:10F8200091E1AAE781509040A040E1F700C00000BC
:10F830000E94E0F890FD21C00E9420FA8730E9F490
:10F8400003EC12E0C2E0D0E00BC07801D8018D914A
:10F850008D010E948FFAF70180810E94FAF82196AB
:10F860008091C20290E0C817D9077CF383E191E050
:10F870000E940FF981E00E94FAF880912501882307
:10F88000B9F688E191E00E940FF98FEF98E0ADE3BF
:10F8900081509040A040E1F700C0000085B7809300
:10F8A000C001982F916095BF8D7F85BFE0E0F0E0AB
:10F8B000099580E090E0DF91CF911F910F91FF902B
:10F8C000EF900895DC0101C06D9341505040E0F786
:06F8D0000895F894FFCF3B
:10F8D600500A0D004865782D426F6F746C6F616435
:10F8E600657200656D7066005265736574204156D9
:08F8F60052210A0D000101007E
:040000031000F000F9
:00000001FF
