:020000021000EC
:10F000000C9446F80C9465F80C9465F80C9465F82B
:10F010000C9465F80C9465F80C9465F80C9465F8FC
:10F020000C9465F80C9465F80C9465F80C9465F8EC
:10F030000C9465F80C9465F80C9465F80C9465F8DC
:10F040000C9465F80C9465F80C9465F80C9465F8CC
:10F050000C9467F80C9499F80C9465F80C9465F886
:10F060000C9465F80C9465F80C9465F80C9465F8AC
:10F070000C9431F90C9463F90C9465F80C9465F8D0
:10F080000C9465F80C9465F80C9465F811241FBE77
:10F09000CFEFD0E4DEBFCDBF11E0A0E0B1E0ECE205
:10F0A000F9EF01E00BBF02C007900D92AC31B10740
:10F0B000D9F712E0ACE1B1E001C01D92A23EB10768
:10F0C000E1F70E9423FC0C9494FC0C9400F81F922E
:10F0D0000F920FB60F920BB60F9211242F938F93AE
:10F0E0009F93EF93FF939091C0008091C600E091B1
:10F0F0008401EF5FEF7120918501E21741F0987173
:10F10000E0938401F0E0EA57FE4F808301C092E073
:10F1100080916101892B80936101FF91EF919F9113
:10F120008F912F910F900BBE0F900FBE0F901F90DD
:10F1300018951F920F920FB60F920BB60F921124D3
:10F140008F939F93EF93FF9390916201809163015E
:10F15000981769F0E0916301EF5FEF71E09363014D
:10F16000F0E0EC59FE4F80818093C60005C080918D
:10F17000C1008F7D8093C100FF91EF919F918F918E
:10F180000F900BBE0F900FBE0F901F90189510920E
:10F19000620110926301109284011092850197FF21
:10F1A00004C022E02093C0009F779093C500809315
:10F1B000C40088E98093C10086E08093C20008956E
:10F1C0009091840180918501981781F0E0918501EB
:10F1D000EF5FEF71E0938501F0E0EA57FE4F208189
:10F1E000809161011092610130E002C020E031E0C5
:10F1F000C9010895909162019F5F9F712091630101
:10F200009217E1F3E92FF0E0EC59FE4F80839093E1
:10F2100062018091C10080628093C1000895EF92E5
:10F22000FF92CF93DF93E82EE7017E01F92EE701ED
:10F2300002C00E94FAF889918823D9F7DF91CF9113
:10F24000FF90EF900895CF93DF93EC0102C00E94EE
:10F25000FAF8FE01219684918823C9F7DF91CF91B6
:10F2600008951F920F920FB60F920BB60F921124B2
:10F270002F938F939F93EF93FF939091C80080916A
:10F28000CE00E0913E01EF5FEF7120913F01E21768
:10F2900041F09871E0933E01F0E0E05CFE4F808326
:10F2A00001C092E080916001892B80936001FF9101
:10F2B000EF919F918F912F910F900BBE0F900FBEEA
:10F2C0000F901F9018951F920F920FB60F920BB6CA
:10F2D0000F9211248F939F93EF93FF9390911C01B2
:10F2E00080911D01981769F0E0911D01EF5FEF71AA
:10F2F000E0931D01F0E0E25EFE4F80818093CE003E
:10F3000005C08091C9008F7D8093C900FF91EF9166
:10F310009F918F910F900BBE0F900FBE0F901F907B
:10F32000189510921C0110921D0110923E0110922E
:10F330003F0197FF04C022E02093C8009F7790937D
:10F34000CD008093CC0088E98093C90086E080934B
:10F35000CA00089590913E0180913F01981781F075
:10F36000E0913F01EF5FEF71E0933F01F0E0E05C7F
:10F37000FE4F2081809160011092610130E002C057
:10F3800020E031E0C901089590911C019F5F9F71B9
:10F3900020911D019217E1F3E92FF0E0E25EFE4FAC
:10F3A000808390931C018091C90080628093C90082
:10F3B0000895EF92FF92CF93DF93E82EE7017E014D
:10F3C000F92EE70102C00E94C4F989918823D9F778
:10F3D000DF91CF91FF90EF900895CF93DF93EC01F1
:10F3E00002C00E94C4F9FE01219684918823C9F7C6
:10F3F000DF91CF910895282F392FF90120E030E0D7
:10F4000090E019C08191482F40534A3058F0415143
:10F41000463010F4875307C0482F4156463018F441
:10F42000875501C0842F44E0220F331F4A95E1F72E
:10F43000280F311D9F5F961728F3C9010895E091A9
:10F44000B802EF5FE093B802F0E0E854FD4F80832C
:10F450008091B802823049F08430C9F0813069F57A
:10F460008091B902823681F428C09091B902923617
:10F4700059F49091BA02983619F0933729F481E043
:10F480008093B70184E017C01092B80216C0809133
:10F49000B902823691F48BEB92E062E00E94FBF9B4
:10F4A0008093B5018091BA02883639F49091B60103
:10F4B0008091B501890F8093B6018091B8028230A6
:10F4C00048F09091B601891739F41092B8028091F2
:10F4D000B701089580E0089580E00895CF92DF920B
:10F4E000EF92FF920F931F93CF93DF93DA01DFB672
:10F4F000F894F999FECF23E0FB0180935B00209301
:10F500005700E89507B600FCFDCF9B01AC0100E079
:10F5100010E0CC24C394EC911196FC901197EE244A
:10F52000E701CE0FD11D12960E01F90140935B0049
:10F53000C0925700E89511240E5F1F4F2E5F3F4F7A
:10F540004F4F5F4FE1E000301E0729F725E0FB0138
:10F5500080935B0020935700E89507B600FCFDCF31
:10F5600081E180935700E895DFBEDF91CF911F9135
:10F570000F91FF90EF90DF90CF900895CF93DF939E
:10F5800020911A01213009F05BC19091AE019330B6
:10F5900009F476C0943028F49130C9F09230D8F54F
:10F5A0000AC0953009F402C1953008F496C096302F
:10F5B00009F046C142C18A3309F042C12093AE012D
:10F5C0001092AF011092AB011092AA0139C1909133
:10F5D000AF01E92FF0E0E352FD4F8083892F8F5F69
:10F5E0008093AF01823009F02BC18093AE0110925D
:10F5F000AF018DED92E062E00E94FBF98093B001D3
:10F600002091AA013091AB01280F311D3093AB013D
:10F610002093AA0115C19091AF01E92FF0E0E352C8
:10F62000FD4F8083892F8F5F8093AF01843009F075
:10F6300007C183E08093AE011092AF018DED92E09F
:10F6400064E00E94FBF99093A7018093A6012091AA
:10F65000AA013091AB01280F311D290F311D3093C4
:10F66000AB012093AA0120911B01222309F4E8C0D9
:10F6700080709093A9018093A80110921B01E0C0B3
:10F680009091AF01E92FF0E0E352FD4F8083892F85
:10F690008F5F8093AF01823009F0D2C01092AF012A
:10F6A0001092B1018DED92E062E00E94FBF980932F
:10F6B000B2012091AA013091AB01280F311D309386
:10F6C000AB012093AA01882331F0813021F485E039
:10F6D0008093AE01B5C084E0FBCF9091AF01E92FDC
:10F6E000F0E0E352FD4F8083892F8F5F8093AF015D
:10F6F000823009F0A5C08EE20E94FAF81092AF01A4
:10F70000C091AC01D091AD018DED92E062E00E941C
:10F71000FBF9FE01E854FE4F80832091AA0130914D
:10F72000AB01280F311D3093AB012093AA01219624
:10F73000D093AD01C093AC018091B1018F5F8093F4
:10F74000B1019091B001891729F485E08093AE0151
:10F750001092B10181E0C030D80709F071C080E09B
:10F7600091E00E940FF98FE79AE1A6E08150904066
:10F77000A040E1F700C000006091A8017091A901CC
:10F7800080E090E048EB51E00E946EFA88EB91E057
:10F790006FEF70E040E051E00E948DFC1092AD01EF
:10F7A0001092AC0181E080931B014AC09091AF019F
:10F7B000E92FF0E0E352FD4F8083892F8F5F809324
:10F7C000AF018230E9F58DED92E062E00E94FBF935
:10F7D0008093B3012091AA013091AB01280F311D14
:10F7E00030703093AB012093AA018091B201813037
:10F7F000C9F480E091E00E940FF98FE79AE1A6E05A
:10F8000081509040A040E1F700C000006091A80145
:10F810007091A90180E090E048EB51E00E946EFAFF
:10F8200010921A018091AA019091AB01009719F4EE
:10F830001092AE0105C086E04BCF83E20E94FAF839
:10F84000DF91CF9108951F931092B80285E0EDEDFE
:10F85000F2E0DF011D928A95E9F788EB91E06FEF06
:10F8600070E040E051E00E948DFC85B78093B401C8
:10F87000982F916095BF826085BF81E890E00E94DB
:10F88000C7F8789482E091E00E940FF90E94E0F8B6
:10F8900090FD23C00E941FFA8130C9F08230E9F444
:10F8A00015E007C028543D4FF90180810E94BEFA3F
:10F8B0001F5F8091B501212F30E090E00496821700
:10F8C000930784F78DE091E00E940FF906C08091C4
:10F8D000B501882311F410921A0180911A0188232E
:10F8E000A9F680E191E00E940FF98FEF98E0ADE377
:10F8F00081509040A040E1F700C0000085B78093A0
:10F90000B401982F916095BF8D7F85BFE0E0F0E056
:10F91000099580E090E01F910895DC0101C06D938E
:0CF9200041505040E0F70895F894FFCFEC
:10F92C005000626F6F746C6F61646572006261008D
:0CF93C0072657365742041565200010191
:040000031000F000F9
:00000001FF
