:100000000C94BB010C94DA010C94DA010C94DA0123
:100010000C94DA010C94DA010C94DA010C94DA01F4
:100020000C94DA010C94DA010C94DA010C94DA01E4
:100030000C94DA010C94A8090C94DA010C94DA01FE
:100040000C94DA010C94DA010C94DA010C94DA01C4
:100050000C94DC010C940F020C94DA010C94DA017C
:100060000C94DA010C94DA010C94DA010C94DA01A4
:100070000C94A0020C94D3020C9402030C94DA01A9
:100080000C941E060C94DA010C94DA0100000100B5
:100090000100010001000100020002000200020054
:1000A0000300030003000400040004000500050031
:1000B000050006000600060007000700070008000C
:1000C00008000800090009000A000A000A000B00E5
:1000D0000B000C000C000D000D000E000E000F00B8
:1000E0000F00100010001100110012001200130088
:1000F0001300140014001500160016001700170056
:100100001800190019001A001B001C001C001D001B
:100110001E001E001F0020002100220022002300DC
:1001200024002500260027002800280029002A0096
:100130002B002C002D002E002F003000310032004B
:100140003400350036003700380039003B003C00F1
:100150003D003E0040004100420044004500460092
:10016000480049004B004C004E004F005100530026
:1001700054005600580059005B005D005F006000AD
:1001800062006400660068006A006C006E00700027
:1001900072007500770079007B007E00800082008D
:1001A000850087008A008D008F00920094009700E0
:1001B0009A009D00A000A300A600A900AC00AF001B
:1001C000B200B500B900BC00BF00C300C600CA0041
:1001D000CE00D100D500D900DD00E100E500E90046
:1001E000ED00F100F600FA00FE00030107010C012A
:1001F000110116011B01200125012A012F013401E3
:100200003A013F0145014B01510156015C01630177
:1002100069016F0176017C018301890190019701D9
:100220009E01A601AD01B401BC01C401CB01D30103
:10023000DC01E401EC01F501FD0106020F021802E8
:1002400021022B0234023E02480252025C02670283
:1002500071027C02870292029D02A902B502C102CC
:10026000CD02D902E502F202FF020C031A032703B2
:1002700035034303510360036E037D038D039C0329
:10028000AC03BC03CC03DD03EE03FF030020A01688
:100290000010500B0008A8050004D40200026A01F7
:1002A0000001B50080005A0040002D00200016001B
:1002B00010000B0064006400640000006400000093
:1002C000640000006400000064000000640000009E
:1002D000640000006400000064000000640000008E
:1002E00064000000640000006400640064006400B6
:1002F0006400640064006400640064006400FFFF44
:10030000FFFFFFFF000000FFFFFFFFFFFF000000F7
:10031000000000FF0000FF000000FF0000FF0000E1
:1003200000FF0000FFFFFFFFFFFFFFFFFFFFFFFFDA
:10033000FFFFFFFFFFFFFFFFFFFFFFFFFFFFFFFFCD
:10034000FFFFFFFFFFFFFFFFFFFFFFFFFFFFFFFFBD
:10035000000000FF000000FFFFFFFFFFFFFFFFFFA7
:10036000FFFFFFFFFFFFFFFFFFFFFFFFFF00010396
:10037000070D1B1E250011241FBECFEFD0E4DEBFEA
:10038000CDBF11E0A0E0B1E0ECECF6E100E00BBF86
:1003900002C007900D92A032B107D9F712E0A0E297
:1003A000B1E001C01D92AD32B107E1F70E94120A1F
:1003B0000C94640B0C9400001F920F920FB60F92D6
:1003C00011240BB60F921BBE2F938F939F93EF9325
:1003D000FF938091C0009091C6008871E091670101
:1003E000EF5FEF7120916601E21739F0E09367014A
:1003F000F0E0E659FE4F908301C082E090916501E4
:10040000982B90936501FF91EF919F918F912F9180
:100410000F900BBE0F900FBE0F901F9018951F925C
:100420000F920FB60F9211240BB60F921BBE8F9333
:100430009F93EF93FF9390916901809168019817C2
:1004400069F0E0916801EF5FEF71E0936801F0E01F
:10045000E657FE4F80818093C60005C08091C100A1
:100460008F7D8093C100FF91EF919F918F910F90AD
:100470000BBE0F900FBE0F901F9018951092690140
:1004800010926801109267011092660197FF04C0F4
:1004900022E02093C0009F779093C5008093C40012
:1004A00088E98093C10086E08093C200089590910E
:1004B000670180916601981781F0E0916601EF5F16
:1004C000EF71E0936601F0E0E659FE4F20818091E4
:1004D00065011092650130E002C020E031E0C90101
:1004E0000895909169019F5F9F7120916801921713
:1004F000E1F3E92FF0E0E657FE4F80839093690126
:100500008091C10080628093C1000895CF93DF93F2
:10051000EC0102C00E94710289918111FBCFDF9131
:10052000CF910895CF93DF93EC0102C00E94710236
:10053000FE01219684918111F9CFDF91CF91089529
:100540001F920F920FB60F9211240BB60F921BBE83
:100550002F938F939F93EF93FF938091C800909177
:10056000CE008871E0912201EF5FEF7120912101AF
:10057000E21739F0E0932201F0E0EB5DFE4F90834B
:1005800001C082E090912001982B90932001FF916F
:10059000EF919F918F912F910F900BBE0F900FBEF7
:1005A0000F901F9018951F920F920FB60F92112463
:1005B0000BB60F921BBE8F939F93EF93FF93909177
:1005C000240180912301981769F0E0912301EF5FE6
:1005D000EF71E0932301F0E0EB5BFE4F80818093AD
:1005E000CE0005C08091C9008F7D8093C900FF9126
:1005F000EF919F918F910F900BBE0F900FBE0F90B8
:100600001F9018951F920F920FB60F9211248F937F
:100610009F939091240180912301981301C05C98CD
:100620009F918F910F900FBE0F901F901895109271
:10063000240110922301109222011092210197FFB0
:1006400004C022E02093C8009F779093CD00809350
:10065000CC0088ED8093C90086E08093CA0008959D
:100660009091220180912101981781F0E091210160
:10067000EF5FEF71E0932101F0E0EB5DFE4F208131
:10068000809120011092650130E002C020E031E04D
:10069000C90108959091240180912301981731F0A8
:1006A0005C9A8091C90080628093C90008959091FE
:1006B00024019F5F9F71209123019217E1F3E92F9D
:1006C000F0E0EB5BFE4F8083909324015C9A809175
:1006D000C90080628093C9000895CF93DF93EC0135
:1006E00002C00E94570389918111FBCFDF91CF9106
:1006F0000895CF93DF93EC0102C00E945703FE01DF
:10070000219684918111F9CFDF91CF9108958A309C
:1007100010F4805D0895895C0895FC0120E030E0CC
:1007200018C09191492F40534A3058F041514630FA
:1007300010F4975307C0492F4156463018F4975587
:1007400001C0942F44E0220F331F4A95E1F7290F8F
:10075000311D9E2F981B961720F3C9010895E09133
:10076000DC01EF5FE093DC01F0E0E452FE4F8083B8
:100770008091DC01823049F08630C9F08130F1F49B
:100780008091DD01853AD1F00FC08091DD01853A7D
:10079000A9F48091DE018A3539F489E08093D8018B
:1007A0008EE08093D6010AC01092DC0107C062E09F
:1007B00081EE91E00E948D038093FA018091DC012B
:1007C000823048F09091D601891305C01092DC0167
:1007D0008091D801089580E00895E091B901EF5F1C
:1007E000E093B901F0E0E754FE4F80838091B901B6
:1007F0008230B9F020F4813009F059C006C084304D
:10080000F1F1863009F053C04BC08091BA018936AE
:1008100009F44DC08C3609F44AC0823609F447C049
:100820002BC09091BA019936F9F09C36A1F092361E
:1008300019F59091BB01983631F0933751F091360C
:10084000D9F493E016C08093D70184E08093DB0154
:100850002EC081E0F8CF8091BB01833769F487E037
:100860008093D70186E0F2CF9091BB01913621F4BD
:1008700095E09093D701EACF1092B90118C062E0D9
:100880008CEB91E00E948D038093D9019091D70168
:10089000923069F49091DB01980F9093DB0107C0CF
:1008A00062E08EEB91E00E948D038093DA018091EB
:1008B000B901823048F09091DB01891305C0109294
:1008C000B9018091D701089580E008950C944A03FE
:1008D000FF920F931F93CF93DF93FC012091DF01D1
:1008E000822F807790E055E0959587955A95E1F7AE
:1008F0008083822F8F7181838091E0018283F090C9
:10090000E101F3820091E20104831091E301158378
:10091000D091E401D683C091E501B091E601A091A8
:10092000E7013091E8014B2F50E060E070E0BA0140
:10093000552744277C2B432B5A2B478350876187AD
:1009400072879091E9019387820F8F0D800F810F3D
:100950008D0F8C0F8B0F8A0F830F890F9091EA01F7
:10096000981302C08FEF01C087E0DF91CF911F91F4
:100970000F91FF9008951092DC01589A81E890E061
:100980000E943E021092B90180E290E00E9417039B
:10099000549A0895809106019091070120910401D5
:1009A00030910501309307012093060190930501D2
:1009B0008093040180910201909103012091000134
:1009C00030910101309303012093020190930101C2
:1009D0008093000108951F93CF93DF93C8E0D2E086
:1009E000A9E1B2E09D0181E090E070E060E2E09179
:1009F0000001F0910101E80FF91F462F4095408357
:100A0000E991F0E0EE0FFF1FE457FF4F459154913D
:100A1000F901419351939F01452B09F0762B660F05
:100A200001968430910519F7E0910001F0910101E0
:100A3000708381E090E03CC0E52FF0E0EE0FFF1FF7
:100A4000E95EFD4F608171816217730710F49B01AD
:100A5000452F5F5F543080F34C1721F150E0FA01CD
:100A6000EE0FFF1FE95EFD4F208131816D917C917A
:100A700011977183608311963C932E93209100010E
:100A800030910101F901E40FF51F4081E901C80F20
:100A9000D91F28812083E0910001F0910101E80F26
:100AA000F91F4083129601968430910509F457C0CE
:100AB000C82F482F582F2FEF33E0BECF232B71F0D4
:100AC0002091000130910101D901A40FB51FE90166
:100AD000C80FD91F2C91888128232C934E2F1BC01F
:100AE000842F90E0DC01AA0FBB1FA75EBD4F2D91A4
:100AF0003C91DC01AA0FBB1FA95EBD4F2D933C9317
:100B0000A0910001B0910101A80FB91F11968C911D
:100B100011978C934F5F411718F311508E2F90E06F
:100B2000DC01AA0FBB1FA95EBD4F2D913C91AC010A
:100B30004F5F5F4FDA01AA0FBB1FA95EBD4F6D91DA
:100B40007C912617370721F0232B09F46FC003C0CF
:100B5000E11708F4B3CFEF5FE11700F303C0E1E062
:100B600013E0DCCFF0E0EE0FFF1FE95EFD4F808168
:100B70009181892B09F41150E0910401F091050154
:100B8000111108C080E090E3918380839383828376
:100B900011E03FC0812F90E0880F991FEF01C80F2F
:100BA000D91FDC01A95EBD4F2D913C91119748EEF4
:100BB0004203C001439F900D1124905A998388836A
:100BC0002D913C91412F415058E119C0842F90E064
:100BD000880F991FEF01C80FD91FDC01A95EBD4F17
:100BE0008D919C911197281B390B529FC001539FE7
:100BF000900D1124998388832D913C91415041118E
:100C0000E5CF48E1429FC001439F900D112491839D
:100C100080831092FF018091FF018823E1F3F89413
:100C20000E94CA0410930801789404C0E11708F4E4
:100C300055CF91CFDF91CF911F9108951F920F92C1
:100C40000FB60F9211240BB60F921BBE2F933F933A
:100C50004F935F936F938F939F93EF93FF93809145
:100C60009800909199006091AC01262F30E0A90185
:100C7000440F551FE0910601F0910701E40FF51FA5
:100C800040815181840F951F909399008093980023
:100C9000E0910201F0910301E20FF31F90816111D5
:100CA00005C092B981E08093AC0110C082B1892364
:100CB00082B980910801681306C081E08093FF012A
:100CC0001092AC0103C06F5F6093AC01FF91EF9194
:100CD0009F918F916F915F914F913F912F910F90C5
:100CE0000BBE0F900FBE0F901F90189580EE81B92C
:100CF00082E080939100E1E7F0E080818260808370
:100D00000895653029F130F4633091F0C8F4623011
:100D1000F1F506C0673061F118F16830C1F52FC0F8
:100D200097E0899FF0011124E45FFE4F84810895CC
:100D300097E0899FF0011124E45FFE4F85810895BB
:100D400097E0899FF0011124E45FFE4F86810895AA
:100D500097E0899FF0011124E45FFE4F818108959F
:100D600097E0899FF0011124E45FFE4F8081089590
:100D7000689FF0011124E45FFE4F8281089597E09F
:100D8000899FF0011124E45FFE4F8381089580E084
:100D90000895CF9380910A0190910B01892B09F05E
:100DA00042C0E091B00183E0E89FF0011124E250DD
:100DB000FD4F6591749160931701E091B00183E05C
:100DC000E89FF0011124E150FD4F4591549140936B
:100DD0001801E091B00183E0E89FF0011124E05098
:100DE000FD4F25913491209319018091140190E0D9
:100DF000689FF001699FF00D1124F0930902489F4C
:100E0000B001499F700D112470930802289FA00122
:100E1000299F500D112450930A020E94EB0481E097
:100E2000CF910C94C307C091160180910901C81796
:100E300059F180910A0190910B01EC2FF0E0EE0F37
:100E4000FF1FE457FD4F25913491289FA001299F52
:100E5000500D112450930B0140930A0180910A0117
:100E600090910B01E0910901F0E0EE0FFF1FE457B4
:100E7000FD4F6591749177270E94500B70930B0181
:100E800060930A01C093090180910A0190910B01BE
:100E900091958195910990932A0280932902E0917E
:100EA000B00183E0E89FF0011124E250FD4F8591ED
:100EB000949190911701981710F421E001C02FEF41
:100EC00020932002213011F4891B02C0981B892F26
:100ED00080931F0220910A0130910B0190E0821B48
:100EE000930B90932C0280932B02E091B00183E04E
:100EF000E89FF0011124E150FD4F8591949190916C
:100F00001801981710F421E001C02FEF209324025C
:100F1000213011F4891B02C0981B892F8093230272
:100F200020910A0130910B0190E0821B930B90936A
:100F3000260280932502E091B00183E0E89FF00152
:100F40001124E050FD4F85919491909119019817CB
:100F500010F421E001C02FEF20932202213011F480
:100F6000891B02C0981B892F8093210220910A01BE
:100F700030910B0190E0821B930B90932802809399
:100F80002702CF910895E0911501E11107C08FEF7D
:100F90009FEF90930B0180930A0108959091B00107
:100FA000980F9093B0014091B0018E2F90E0FC011A
:100FB000E359FC4F25913491421750F021E02093E2
:100FC000AE01FC01E459FC4F859194918093B001EE
:100FD000E091B001F0E0EE0FFF1FEC54FD4F859162
:100FE0009491E0911601F0E0EE0FFF1FE457FD4FE2
:100FF00025913491289FA001299F500D389F500DB5
:101000001124852F992790930B0180930A010C944A
:10101000C906CF93DF93882371F080910A019091E4
:101020000B01019790930B0180930A01892B19F40E
:1010300081E00E94C30780911501882309F48CC0C8
:101040008091290290912A02D0912002A09117014B
:1010500020912B0230912C02BC01660F771FA90151
:10106000440F551FB0E004C0460F571FB1E0AC2F2E
:10107000F901CA2FCD0F280F391F84179507A4F344
:10108000A093170120911F02AF01420F511D5093F1
:101090002C0240932B02D0912402A09118012091A0
:1010A000250230912602A901440F551F04C0460FA6
:1010B000571FB1E0AC2FF901CA2FCD0F280F391FF0
:1010C00084179507A4F3A093180120912302AF0180
:1010D000420F511D5093260240932502D0912202C7
:1010E000A09119012091270230912802A901440FF3
:1010F000551F04C0460F571FB1E0AC2FF901CA2F8E
:10110000CD0F280F391F84179507A4F3A093190159
:10111000809121029F01280F311D309328022093D6
:101120002702BB23C9F02091170180911401829FEF
:10113000900111243093090220911801289F9001F9
:10114000112430930802A89FC001112490930A0231
:10115000DF91CF910C94EB04DF91CF9108952F9202
:101160003F924F925F926F927F928F929F92AF9237
:10117000BF92CF92DF92EF92FF920F931F93CF9384
:10118000DF931F92CDB7DEB7542E1DE0C12E11E0C4
:10119000D12E00E1802E01E0902E91E1A92E91E068
:1011A000B92E22E1E22E21E0F22E0EE011E0212CF8
:1011B000312C412C682E712CC301022C02C0959554
:1011C00087950A94E2F780FF89C06530D1F138F441
:1011D0006330E9F068F5623009F080C009C067301B
:1011E00009F453C008F46FC0683009F077C061C0DB
:1011F000F8011082F4015082F1E02F126FC0F60165
:101200008081859DC0011124909309020EC0F801D0
:101210001082F5015082F1E02F1260C0F60180814A
:10122000859DC0011124909308024424439456C024
:10123000F8011082F7015082F1E02F124FC0F60141
:1012400018C0F6015082F1E02F1248C080911501BC
:10125000811116C0F4018081859DC00111249093F5
:101260000902F5018081859DC00111249093080237
:10127000F7018081859DC001112490930A02D5CF8A
:1012800080E069830E94090812C0F8015082F1E0F1
:101290002F1224C0E0911501F0E0E359FC4F859135
:1012A00094918093B00180E069830E94C3076981B3
:1012B00015C0F7013397508221E022120FC06983D5
:1012C0000E94C906F4CFF7013697508281E02812B8
:1012D00005C057FE02C02D9A01C02D9880911501BE
:1012E00081110AC0442041F08091AF01811104C0F6
:1012F00069830E94EB046981EFEF2E1A3E0AF7E042
:10130000CF0ED11C27E0820E911C87E0A80EB11CE5
:10131000E7E0EE0EF11C095F1F4FF2E02F163104DB
:1013200009F04ACF1092AF010F90DF91CF911F913A
:101330000F91FF90EF90DF90CF90BF90AF909F9074
:101340008F907F906F905F904F903F902F90089577
:101350001F920F920FB60F9211248F939F931092AA
:101360006F0078948091B801982F9F5F9093B80197
:10137000863928F081E08093B3011092B801F89487
:1013800082E080936F009F918F910F900FBE0F901E
:101390001F90189584E395E09093890080938800CE
:1013A00089E08093810082E080936F000895E1E0FE
:1013B000F0E0062E02C0EE0FFF1F0A94E2F7209124
:1013C000B1013091B2012E2B3F2B3093B20120930B
:1013D000B1010C94AF081F93CF93DF93162FD42F36
:1013E000C1E0C093AF01482F62E083E00E94D709BB
:1013F000C093AF01412F63E083E00E94D7094D2FD6
:1014000064E083E0DF91CF911F910C94D709089598
:10141000861708F4682F862F0895681708F4682F38
:10142000862F0895CF93DF93CDB7DEB72C970FB6F5
:10143000F894DEBF0FBECDBF0E94BB045C980E9433
:10144000CA090E94760680E00E94C307259A2D9A59
:1014500078944FEF66E084E00E94AF08CC24C394F8
:10146000D12CA12C20EFB22E0E94570290FD52C029
:101470000E94AF03893009F04DC0CE0101960E9451
:1014800068048F3F09F046C088859985AA85BB8589
:101490008B3E9F4EAA48B105E9F58B818530D1F589
:1014A0008C8584FF37C09C81892F8295869586958F
:1014B000837095FD15C0882319F0813059F508C057
:1014C00066E080E00E9481068F3F21F14FEF14C05B
:1014D00066E081E00E9481068F3FE1F04FEF16C089
:1014E000882319F08130B1F40AC066E080E00E94E0
:1014F0008106882379F040E066E081E009C066E07B
:1015000081E00E948106882329F040E066E082E0C5
:101510000E94D7090E94300390FD8BC00E94ED030A
:10152000853041F1873009F47AC0813009F081C0FB
:101530008091D901823009F07CC08AE191E00E945B
:101540006D03F89410926E0010926F00109270006C
:10155000109271001092C1001092C9008FEF98E0B4
:10156000EDE381509040E040E1F700C00000F5015C
:1015700009955FC08091B1019091B201892B09F466
:1015800058C082E0E82EF12C9E2C96010E2C02C051
:10159000220F331F0A94E2F74091B1015091B2013A
:1015A00024233523232B41F4FFEFEF1AFF0A28E011
:1015B000E216F10449F72EC000E010E08DE191E061
:1015C0000E946D038C2D002E01C0880F0A94EAF74B
:1015D0000E9487030E945703892D0E9487030E945F
:1015E0005703692D802F0E94810682958F700E947B
:1015F00087030E945703692D802F0E9481068F70F8
:101600000E9487030E9457030F5F1F4F023011058E
:10161000A9F6CACF1092B2011092B1010AC080910E
:10162000D901682F6F704091DA0182958F700E9406
:10163000AF088091B301882309F416CF1092B3014B
:101640008091B4019091B501A091B601B091B7011C
:101650000196A11DB11D8093B4019093B501A09393
:10166000B601B093B70181E00E9409088091AE01F4
:10167000882369F067E081E00E948106813029F4C7
:101680004FEF6FEF8FEF0E94EB091092AE01809148
:10169000B4019091B501A091B601B091B701E4CE2B
:1016A000AA1BBB1B51E107C0AA1FBB1FA617B70788
:1016B00010F0A61BB70B881F991F5A95A9F78095A4
:0C16C0009095BC01CD010895F894FFCF77
:1016CC001302FB0100020B020108010000FF0108DC
:1016DC0000000000FF01080000006261006C730054
:00000001FF
