:100000000C9422020C9441020C9441020C94410283
:100010000C9441020C9441020C9441020C94410254
:100020000C9441020C9441020C9441020C94410244
:100030000C9441020C94340C0C9441020C94410237
:100040000C9441020C9441020C9441020C94410224
:100050000C9443020C9476020C9441020C944102DD
:100060000C9441020C9441020C9441020C94410204
:100070000C9407030C943A030C9469030C9441020A
:100080000C94B1080C9441020C944102FB0EFD0E3D
:10009000FF0E010F4E104E104E10F80E4E104E1067
:1000A0004E10F60E4E104E104E10EA0E4E104E1020
:1000B0004E10E00EDA0EDA0EDA0EDA0EDA0EDA0E84
:1000C000DA0EDA0E4E104E104E104E104E104E102C
:1000D0004E104E104E104E104E104E104E104E1030
:1000E0004E104E104E104E104E104E104E104E1020
:1000F0004E104E104E104E104E104E104E104E1010
:100100004E104E10C40E4E104E104E10DA0ED60E7B
:100110004E104E10DA0EDA0E4E104E10DA0EDA0EC7
:100120004E104E10DA0EDA0E4E104E10DA0EDA0EB7
:100130004E104E10D00ED30E02050C1122050C05E8
:100140000C001010202001010002050C1122050CEA
:10015000050C00000000000101000000010001008A
:100160000100010001000200020002000200030081
:10017000030003000400040004000500050005005E
:100180000600060006000700070007000800080038
:100190000800090009000A000A000A000B000B0011
:1001A0000C000C000D000D000E000E000F000F00E3
:1001B00010001000110011001200120013001300B3
:1001C0001400140015001600160017001700180080
:1001D000190019001A001B001C001C001D001E0045
:1001E0001E001F0020002100220022002300240006
:1001F0002500260027002800280029002A002B00BF
:100200002C002D002E002F00300031003200340071
:10021000350036003700380039003B003C003D0017
:100220003E004000410042004400450046004800B6
:1002300049004B004C004E004F0051005300540049
:100240005600580059005B005D005F0060006200CE
:100250006400660068006A006C006E007000720046
:100260007500770079007B007E00800082008500A9
:1002700087008A008D008F009200940097009A00FA
:100280009D00A000A300A600A900AC00AF00B20032
:10029000B500B900BC00BF00C300C600CA00CE0054
:1002A000D100D500D900DD00E100E500E900ED0056
:1002B000F100F600FA00FE00030107010C01110134
:1002C00016011B01200125012A012F0134013A01E9
:1002D0003F0145014B01510156015C016301690178
:1002E0006F0176017C0183018901900197019E01D4
:1002F000A601AD01B401BC01C401CB01D301DC01F5
:10030000E401EC01F501FD0106020F0218022102D1
:100310002B0234023E02480252025C026702710262
:100320007C02870292029D02A902B502C102CD029F
:10033000D902E502F202FF020C031A032703350378
:100340004303510360036E037D038D039C03AC03E1
:10035000BC03CC03DD03EE03FF030020A016001056
:10036000500B0008A8050004D40200026A01000135
:10037000B50080005A0040002D002000160010003B
:100380000B0064006400640000006400000064006E
:1003900000006400000064000000640000006400CD
:1003A00000006400000064000000640000006400BD
:1003B00000006400000064006400640064006400E5
:1003C000640064006400640064006400FFFFFFFFD9
:1003D000FFFF000000FFFFFFFFFFFF000000000025
:1003E00000FF0000FF000000FF0000FF000000FF12
:1003F0000000FFFFFFFFFFFFFFFFFFFFFFFFFFFF0B
:10040000FFFFFFFFFFFFFFFFFFFFFFFFFFFFFFFFFC
:10041000FFFFFFFFFFFFFFFFFFFFFFFFFFFF0000EA
:1004200000FF000000FFFFFFFFFFFFFFFFFFFFFFD8
:10043000FFFFFFFFFFFFFFFFFFFFFF000103070DAF
:100440001B1E250011241FBECFEFD0E4DEBFCDBFA1
:1004500011E0A0E0B1E0E4E7F1E200E00BBF02C090
:1004600007900D92AE32B107D9F712E0AEE2B1E0DB
:1004700001C01D92A336B107E1F70E941A0D0C943A
:10048000B8100C9400001F920F920FB60F92112417
:100490000BB60F921BBE2F938F939F93EF93FF93F7
:1004A0008091C0009091C6008871E0917501EF5F66
:1004B000EF7120917401E21739F0E0937501F0E0DB
:1004C000E858FE4F908301C082E090917301982B11
:1004D00090937301FF91EF919F918F912F910F90C6
:1004E0000BBE0F900FBE0F901F9018951F920F928A
:1004F0000FB60F9211240BB60F921BBE8F939F93D2
:10050000EF93FF939091770180917601981769F0AE
:10051000E0917601EF5FEF71E0937601F0E0E8564D
:10052000FE4F80818093C60005C08091C1008F7D01
:100530008093C100FF91EF919F918F910F900BBE1F
:100540000F900FBE0F901F90189510927701109288
:100550007601109275011092740197FF04C022E099
:100560002093C0009F779093C5008093C40088E9D2
:100570008093C10086E08093C20008959091750138
:1005800080917401981781F0E0917401EF5FEF7131
:10059000E0937401F0E0E858FE4F208180917301F0
:1005A0001092730130E002C020E031E0C9010895EB
:1005B000909177019F5F9F71209176019217E1F3EF
:1005C000E92FF0E0E856FE4F808390937701809109
:1005D000C10080628093C1000895CF93DF93EC0146
:1005E00002C00E94D80289918111FBCFDF91CF9187
:1005F0000895CF93DF93EC0102C00E94D802FE0160
:10060000219684918111F9CFDF91CF9108951F92A6
:100610000F920FB60F9211240BB60F921BBE2F93A1
:100620008F939F93EF93FF938091C8009091CE009A
:100630008871E0913001EF5FEF7120912F01E21797
:1006400039F0E0933001F0E0ED5CFE4F908301C0A3
:1006500082E090912E01982B90932E01FF91EF91C3
:100660009F918F912F910F900BBE0F900FBE0F9007
:100670001F9018951F920F920FB60F9211240BB670
:100680000F921BBE8F939F93EF93FF939091320134
:1006900080913101981769F0E0913101EF5FEF71BE
:1006A000E0933101F0E0ED5AFE4F80818093CE005F
:1006B00005C08091C9008F7D8093C900FF91EF91A3
:1006C0009F918F910F900BBE0F900FBE0F901F90B8
:1006D00018951F920F920FB60F9211248F939F932C
:1006E0009091320180913101981301C05C989F91E3
:1006F0008F910F900FBE0F901F901895109232019E
:10070000109231011092300110922F0197FF04C016
:1007100022E02093C8009F779093CD008093CC0077
:1007200088ED8093C90086E08093CA000895909177
:10073000300180912F01981781F0E0912F01EF5F38
:10074000EF71E0932F01F0E0ED5CFE4F208180918E
:100750002E011092730130E002C020E031E0C901A7
:1007600008959091320180913101981731F05C9A8F
:100770008091C90080628093C900089590913201F0
:100780009F5F9F71209131019217E1F3E92FF0E013
:10079000ED5AFE4F8083909332018091DF0190915A
:1007A000E001892B31F45C9A8091C90080628093CA
:1007B000C9000895CF93DF93EC0102C00E94BE03ED
:1007C00089918111FBCFDF91CF910895CF93DF9372
:1007D000EC0102C00E94BE03FE01219684918111AA
:1007E000F9CFDF91CF9108956091C9017091D60141
:1007F000671730F19091D701691710F54091DC012E
:1008000090E02091C7013091C801442381F0462F28
:1008100050E0471B510902C0880F991F4A95E2F723
:10082000822B932B9093C8018093C70132C0220F73
:10083000331F282B392B3093C8012093C70129C0BF
:100840007091D801671728F19091D901691708F5BF
:100850004091DC0190E02091C5013091C601442314
:1008600081F0462F50E0471B510902C0880F991FA5
:100870004A95E2F7822B932B9093C6018093C50192
:1008800008C0220F331F282B392B3093C601209329
:10089000C5016F5F6093C901089529982198089553
:1008A000FC018091C0018823B9F18091BF018230A1
:1008B000A9F58091BB019091BC012091BB013091C1
:1008C000BC01892F992720953095332782179307EC
:1008D00009F414C08091BD019091BE018E3E9748ED
:1008E000B9F48BE08093BF018091BB019091BC0172
:1008F000892F99279093BE018093BD018091BB0100
:100900009091BC0199279093BC018093BB0106C0D4
:1009100080E01092C001089580E008958091BF01A9
:1009200080838091BD019091BE01928381838091EB
:10093000BB019091BC01948383838091B80185832E
:100940001092BC011092BB011092BE011092BD0129
:100950001092B80181E0DDCF83B19091C001911177
:1009600082C182709091C10191112EC09091C201FB
:10097000811104C09F5F9093C20175C19923A9F0B2
:1009800081E08093C1018093C3011092C401109251
:10099000C6011092C5011092C8011092C7019FEFC5
:1009A0009093C9018093CA015EC18091CB0190915F
:1009B000CC018F3F2FEF920709F455C10196909318
:1009C000CC018093CB014FC19091C3019923D1F108
:1009D000882349F08091CA018F5F8093CA018A3EC3
:1009E00008F4A8C065C08091C2018E55843560F4BA
:1009F0008091CA0190E08E32910524F08A359105EC
:100A000044F002C0479744F41092C10160E070E0E6
:100A100005C068E371E002C069E471E08091C10142
:100A2000882331F041E150E08DEC91E00E94AF105D
:100A30001092C90181E08093C2011092CA01109204
:100A4000C30178C09091C401992309F466C088233A
:100A500009F40CC14091C9018091DA01481311C019
:100A60009091DB01913069F48091C2019091D201A3
:100A70008917F0F09091D3019817D0F01092DB0114
:100A800059C09091CA019F5F9093CA019A3E08F4A1
:100A900051C0242F30E090E001972817390741F426
:100AA0008091DB01811104C04F5F4093C90142C0B6
:100AB0001092C1011092C2011092CA013BC09091E4
:100AC000CF01981760F09091CA012091D001921740
:100AD00030F02091D101291710F081E013C09091DE
:100AE000D2018917A0F09091D301981780F08091DE
:100AF000CA019091D401891750F09091D5019817AF
:100B000030F080E00E94F4031092C40104C01092FF
:100B1000C1011092CA0181E005C0811106C0809117
:100B2000C2018F5F8093C20105C081E08093C40140
:100B30008093CA018091C101882309F494C0309147
:100B4000C9018091DA0138138EC08091DB018111D7
:100B50008AC040910001509101018091C50190919E
:100B6000C6014817590769F48091CB019091CC01D7
:100B7000803B944030F48091DE018F5F8093DE01F2
:100B800002C01092DE0181E08093C0012091CD016E
:100B9000223009F531111FC08091CB019091CC0119
:100BA00088309740B0F480910201909103019093B6
:100BB000C8018093C7015093C6014093C50180913D
:100BC000B80181608093B8011092CC011092CB01E2
:100BD00002C01092C0012093BF018091C701909183
:100BE000C8019093BE018093BD01223021F49093FF
:100BF0000301809302012091C5013091C601309319
:100C0000BC012093BB016091C001662311F1421722
:100C1000530799F440910201509103014817590775
:100C200061F44091CB015091CC014A3C584028F4EA
:100C30004091B80141604093B801909303018093C3
:100C4000020130930101209300011092CC01109217
:100C5000CB011092C1011092C6011092C5011092F1
:100C6000C2011092CA018091C00108958091C20111
:100C70009091CE01891708F022CF31CF8A3010F43D
:100C8000805D0895895C0895FC0120E030E018C083
:100C90009191492F40534A3058F04151463010F459
:100CA000975307C0492F4156463018F4975501C055
:100CB000942F44E0220F331F4A95E1F7290F311D8D
:100CC0009E2F981B961720F3C9010895E0911202F8
:100CD000EF5FE0931202F0E0EE5EFD4F80838091C3
:100CE00012028230B9F020F4813009F059C006C0F8
:100CF0008430F1F1863009F053C04BC0809113026B
:100D0000893609F44DC08C3609F44AC0823609F49C
:100D100047C02BC0909113029936F9F09C36A1F090
:100D2000923619F590911402983631F0933751F0BC
:100D30009136D9F493E016C080930E0284E080933C
:100D40000C022EC081E0F8CF80911402833769F441
:100D500087E080930E0286E0F2CF909114029136E4
:100D600021F495E090930E02EACF1092120218C07F
:100D700062E085E192E00E94440680932F02909108
:100D80000E02923069F490910C02980F90930C022D
:100D900007C062E087E192E00E944406809330023F
:100DA00080911202823048F090910C02891305C0A4
:100DB0001092120280910E02089580E00895E09151
:100DC000EF01EF5FE093EF01F0E0E151FE4F808330
:100DD0008091EF018230A1F020F4813009F04EC003
:100DE00006C0843099F1863009F048C040C0809137
:100DF000F001823609F442C08C3609F43FC023C0AA
:100E00009091F001923619F09C36E9F411C090915E
:100E1000F101983649F0933731F09136A1F493E01F
:100E200090930D020DC081E080930D0284E008C014
:100E30008091F101833739F487E080930D0286E0D9
:100E4000809311021BC01092EF0118C062E082EF84
:100E500091E00E94440680930F0290910D0292301F
:100E600069F490911102980F9093110207C062E00B
:100E700084EF91E00E944406809310028091EF017C
:100E8000823048F090911102891305C01092EF0151
:100E900080910D02089580E008950C94B1031092A2
:100EA000120281E890E00E94A5021092EF0181E811
:100EB00090E00E947E03549A089580910A019091D7
:100EC0000B01209108013091090130930B0120930F
:100ED0000A01909309018093080180910601909185
:100EE00007012091040130910501309307012093FF
:100EF0000601909305018093040108951F93CF93F9
:100F0000DF93CEE3D2E0AFE4B2E09D0181E090E078
:100F100070E060E2E0910401F0910501E80FF91F33
:100F2000462F40954083E991F0E0EE0FFF1FE65A0F
:100F3000FE4F45915491F901419351939F01452BE7
:100F400009F0762B660F01968430910519F7E09130
:100F50000401F0910501708381E090E03CC0E52F31
:100F6000F0E0EE0FFF1FE35BFD4F608171816217C0
:100F7000730710F49B01452F5F5F543080F34C17CB
:100F800021F150E0FA01EE0FFF1FE35BFD4F2081DE
:100F900031816D917C9111977183608311963C939F
:100FA0002E932091040130910501F901E40FF51F02
:100FB0004081E901C80FD91F28812083E0910401F5
:100FC000F0910501E80FF91F4083129601968430D5
:100FD000910509F457C0C82F482F582F2FEF33E041
:100FE000BECF232B71F02091040130910501D9016E
:100FF000A40FB51FE901C80FD91F2C9188812823A0
:101000002C934E2F1BC0842F90E0DC01AA0FBB1F36
:10101000A15BBD4F2D913C91DC01AA0FBB1FA35BCF
:10102000BD4F2D933C93A0910401B0910501A80FF1
:10103000B91F11968C9111978C934F5F411718F33C
:1010400011508E2F90E0DC01AA0FBB1FA35BBD4F98
:101050002D913C91AC014F5F5F4FDA01AA0FBB1F8E
:10106000A35BBD4F6D917C912617370721F0232B91
:1010700009F46FC003C0E11708F4B3CFEF5FE117C5
:1010800000F303C0E1E013E0DCCFF0E0EE0FFF1F60
:10109000E35BFD4F80819181892B09F41150E09130
:1010A0000801F0910901111108C080E090E39183DB
:1010B00080839383828311E03FC0812F90E0880F6B
:1010C000991FEF01C80FD91FDC01A35BBD4F2D9104
:1010D0003C91119748EE4203C001439F900D1124AB
:1010E000905A998388832D913C91412F415058E12A
:1010F00019C0842F90E0880F991FEF01C80FD91FE6
:10110000DC01A35BBD4F8D919C911197281B390B7E
:10111000529FC001539F900D1124998388832D9174
:101120003C9141504111E5CF48E1429FC001439FAE
:10113000900D1124918380831092350280913502A5
:101140008823E1F3F8940E945D0710930C017894D2
:1011500004C0E11708F455CF91CFDF91CF911F91D3
:1011600008951F920F920FB60F9211240BB60F9293
:101170001BBE2F933F934F935F936F938F939F93D8
:10118000EF93FF9380919800909199006091E10115
:10119000262F30E0A901440F551FE0910A01F0917C
:1011A0000B01E40FF51F40815181840F951F90932F
:1011B000990080939800E0910601F0910701E20FF9
:1011C000F31F9081611105C092B981E08093E10124
:1011D00010C082B1892382B980910C01681306C0C6
:1011E00081E0809335021092E10103C06F5F60934C
:1011F000E101FF91EF919F918F916F915F914F91DD
:101200003F912F910F900BBE0F900FBE0F901F902C
:10121000189580EE81B982E080939100E1E7F0E0DB
:101220008081826080830895653029F130F46330D5
:1012300091F0C8F46230F1F506C0673061F118F141
:101240006830C1F52FC097E0899FF0011124E05F5D
:10125000FE4F8481089597E0899FF0011124E05F9B
:10126000FE4F8581089597E0899FF0011124E05F8A
:10127000FE4F8681089597E0899FF0011124E05F79
:10128000FE4F8181089597E0899FF0011124E05F6E
:10129000FE4F80810895689FF0011124E05FFE4FAA
:1012A0008281089597E0899FF0011124E05FFE4F4D
:1012B0008381089580E00895CF9380910E019091ED
:1012C0000F01892B09F042C0E091E50183E0E89F1E
:1012D000F0011124E453FC4F659174916093140163
:1012E000E091E50183E0E89FF0011124E353FC4F16
:1012F0004591549140931501E091E50183E0E89F09
:10130000F0011124E253FC4F2591349120931601F2
:101310008091110190E0689FF001699FF00D112408
:10132000F0933F02489FB001499F700D11247093C4
:101330003E02289FA001299F500D11245093400286
:101340000E947E0781E0CF910C94560AC091130150
:1013500080910D01C81759F180910E0190910F01F4
:10136000EC2FF0E0EE0FFF1FE65AFC4F2591349171
:10137000289FA001299F500D112450930F014093E5
:101380000E0180910E0190910F01E0910D01F0E0AE
:10139000EE0FFF1FE65AFC4F6591749177270E946C
:1013A000951070930F0160930E01C0930D01809111
:1013B0000E0190910F019195819591099093600292
:1013C00080935F02E091E50183E0E89FF001112442
:1013D000E453FC4F8591949190911401981710F467
:1013E00021E001C02FEF20935602213011F4891B18
:1013F00002C0981B892F8093550220910E013091D5
:101400000F0190E0821B930B909362028093610224
:10141000E091E50183E0E89FF0011124E353FC4FE4
:101420008591949190911501981710F421E001C0D5
:101430002FEF20935A02213011F4891B02C0981B10
:10144000892F8093590220910E0130910F0190E075
:10145000821B930B90935C0280935B02E091E50109
:1014600083E0E89FF0011124E253FC4F85919491B1
:1014700090911601981710F421E001C02FEF2093EE
:101480005802213011F4891B02C0981B892F8093C8
:10149000570220910E0130910F0190E0821B930BB7
:1014A00090935E0280935D02CF910895E0911201C6
:1014B000E11107C08FEF9FEF90930F0180930E0112
:1014C00008959091E501980F9093E5014091E50111
:1014D0008E2F90E0FC01E55CFB4F25913491421783
:1014E00050F021E02093E301FC01E65CFB4F859185
:1014F00094918093E501E091E501F0E0EE0FFF1F8C
:10150000EE57FC4F85919491E0911301F0E0EE0FBE
:10151000FF1FE65AFC4F25913491289FA001299F77
:10152000500D389F500D1124852F992790930F014E
:1015300080930E010C945C09CF93DF93882371F0A4
:1015400080910E0190910F01019790930F0180936C
:101550000E01892B19F481E00E94560A8091120134
:10156000882309F48CC080915F0290916002D09131
:101570005602A09114012091610230916202BC01D7
:10158000660F771FA901440F551FB0E004C0460F36
:10159000571FB1E0AC2FF901CA2FCD0F280F391F0B
:1015A00084179507A4F3A093140120915502AF016D
:1015B000420F511D5093620240936102D0915A0232
:1015C000A091150120915B0230915C02A901440FAA
:1015D000551F04C0460F571FB1E0AC2FF901CA2FA9
:1015E000CD0F280F391F84179507A4F3A093150179
:1015F00020915902AF01420F511D50935C0240935C
:101600005B02D0915802A091160120915D023091A9
:101610005E02A901440F551F04C0460F571FB1E0D9
:10162000AC2FF901CA2FCD0F280F391F841795074A
:10163000A4F3A0931601809157029F01280F311D3A
:1016400030935E0220935D02BB23C9F02091140108
:1016500080911101829F9001112430933F022091CB
:101660001501289F9001112430933E02A89FC001CC
:10167000112490934002DF91CF910C947E07DF916B
:10168000CF9108952F923F924F925F926F927F92E7
:101690008F929F92AF92BF92CF92DF92EF92FF9282
:1016A0000F931F93CF93DF931F92CDB7DEB7542EC6
:1016B00011E1C12E11E0D12E04E1802E01E0902E27
:1016C00095E1A92E91E0B92E26E1E22E21E0F22E3D
:1016D00002E111E0212C312C412C682E712CC30128
:1016E000022C02C0959587950A94E2F780FF82C08C
:1016F0006530B9F138F46330E1F058F5623009F043
:1017000079C009C0673009F44FC008F469C0683077
:1017100009F070C05CC0F8011082F4015082211001
:1017200069C0F6018081859DC001112490933F021C
:101730000DC0F8011082F501508221105BC0F60146
:101740008081859DC001112490933E0244244394DE
:1017500051C0F8011082F701508221104BC0F601F0
:1017600017C0F6015082211045C0809112018111ED
:1017700016C0F4018081859DC001112490933F0221
:10178000F5018081859DC001112490933E02F701EF
:101790008081859DC001112490934002D7CF80E0C5
:1017A00069830E949C0A11C0F8015082211022C056
:1017B000E0911201F0E0E55CFB4F859194918093FC
:1017C000E50180E069830E94560A698113C0F70130
:1017D0003397508221100EC069830E945C09F5CFB7
:1017E000F70136975082211005C057FE02C02D9A8E
:1017F00001C02D988091120181110AC0442041F04E
:101800008091E401811104C069830E947E0769818F
:10181000FFEF2F1A3F0A27E0C20ED11C87E0880E87
:10182000911CE7E0AE0EB11CF7E0EF0EF11C095F72
:101830001F4F22E02216310409F051CF1092E4012B
:101840000F90DF91CF911F910F91FF90EF90DF905C
:10185000CF90BF90AF909F908F907F906F905F9050
:101860004F903F902F9008951F920F920FB60F92B6
:1018700011240BB60F921BBE2F933F934F935F9390
:101880006F937F938F939F93AF93BF93EF93FF9348
:1018900010926F0078940E94AC048091DF019091C7
:1018A000E001892B89F08091DF019091E00101979F
:1018B0009093E0018093DF018091DF019091E0013E
:1018C000892B11F40E944D078091EE01982F9F5FA4
:1018D0009093EE018639A0F081E08093E9011092A7
:1018E000EE018091E7019091E801019649F0809125
:1018F000E7019091E80101969093E8018093E70158
:10190000F89482E080936F00FF91EF91BF91AF91C7
:101910009F918F917F916F915F914F913F912F9107
:101920000F900BBE0F900FBE0F901F90189584E381
:1019300095E0909389008093880089E080938100EE
:1019400082E080936F000895FF920F931F93CF93CF
:10195000DF93182F062FF42E8EE191E00E94DA0318
:10196000812F0E943E060E94BE03802F0E943E06E9
:101970000E94BE03CF2DDD27C7FDD095C07FDD2798
:1019800084E0D595C7958A95E1F78C2F0E943E0695
:101990000E94BE03DF2DDF708D2F0E943E060E9445
:1019A000BE038EE191E00E94ED02812F0E943E066F
:1019B0000E94D802802F0E943E060E94D8028C2FDF
:1019C0000E943E060E94D8028D2F0E943E060E9471
:1019D000D8024F2D602F812FDF91CF911F910F9152
:1019E000FF900C94420B1F93CF93DF93162FD42FAD
:1019F000C1E0C093E401482F62E083E00E94A40CA0
:101A0000C093E401412F63E083E00E94A40C4D2FBA
:101A100064E083E0DF91CF911F910C94A40C0895B2
:101A2000861708F4682F862F0895681708F4682F22
:101A3000862F0895CF93DF9300D000D000D0CDB78C
:101A4000DEB70E944D040E944F075C980E94970CDD
:101A50000E94090980E00E94560A259A7894712C08
:101A600010E0E12CF12C212C312C812C01E0C12C37
:101A700060EFD62E77E0A72EB12C0E94BE0290FD1B
:101A80009FC00E946606823009F443C020F4813072
:101A900009F096C007C0853009F481C0873009F08D
:101AA0008FC050C090912F029130E9F481E291E013
:101AB0000E94ED02F89410926E0010926F00109246
:101AC0007000109271001092C1001092C9002FEFA7
:101AD00088E09DE3215080409040E1F700C0000085
:101AE000F60109956DC08093E60184E291E00E94C1
:101AF000DA0380912F0282958F700E943E060E9429
:101B0000BE0380912F028F700E943E060E94BE038A
:101B100057C087E291E00E94DA0355E0552E07C0D6
:101B2000FC01EE5EFD4F80810E94BE035394852D23
:101B300090E020912F0230E02C5F3F4F28173907AB
:101B40007CF73EC08EE191E00E94DA0380912F0283
:101B500082958F700E943E060E94BE0380912F02E4
:101B60008F700E943E060E94BE03809130028295D3
:101B70008F700E943E060E94BE03809130028F70DB
:101B80000E943E060E94BE0380912F02682F6F7054
:101B90004091300282958F700E94420B11C042E04A
:101BA000542E0093E401652D81E00E941409482F12
:101BB000652D82E00E94A40C5394F8E05F12F1CFEF
:101BC0000E94970390FD5FC00E94DF06833009F4F6
:101BD00051C0873021F0813009F055C032C040E05B
:101BE00060E08FEF0E94F30C8EE191E00E94ED0225
:101BF00080910F0282958F700E943E060E94D8024B
:101C000080910F028F700E943E060E94D802809140
:101C1000100282958F700E943E060E94D802809129
:101C200010028F700E943E060E94D80280910F021F
:101C3000682F6F704091100282958F700E94420B46
:101C400022C048EC60E08FEF0E94F30C84E291E048
:101C50000E94ED0280910F0282958F700E943E06D5
:101C60000E94D80280910F028F700E943E060E944F
:101C7000D80209C040E060E08FEF0E94F30C81E2DF
:101C800091E00E94ED02CE0101960E94500488234B
:101C900051F08981823039F48A819B8181159F4F6F
:101CA00011F42C8101C020E081E08816A9F093E0B6
:101CB000891611F081100DC0222309F430C2109250
:101CC000E8011092E701122F212C312C88248394F3
:101CD00038C0E2E08E120AC021111BC28091E701D8
:101CE0009091E801459708F017C213C2F4E08F12F3
:101CF00021C0211108C08091E7019091E80145972A
:101D000008F00DC21EC02223C1F0121316C080912C
:101D1000E7019091E801280E391E1092E801109217
:101D2000E70122E0821209C083E32816310408F09B
:101D3000F8C1B4C1882009F4B1C192E0891609F450
:101D4000ADC1103451F0772041F00093E401472DEC
:101D500065E083E00E94A40C712CE3E08E1609F488
:101D600052C0F4E08F1609F4D5C021E0821296C16A
:101D7000812F90E0FC013497E635F10508F08EC123
:101D8000EA5BFF4F0C94A91065E080E00E94140903
:101D9000582E472D65E083E00E94A40C752C7EC16F
:101DA00040E060E009C040E06FEF02C04FEF60E04C
:101DB00080E003C04FEF6FEF8FEF0E94F30C6EC116
:101DC00068E080E00E941409843108F083E1482F24
:101DD0004F5F09C068E080E00E941409811101C0D2
:101DE00081E0482F415068E083E056C142E001C0E5
:101DF00043E067E0F9CF44E0FCCF45E0FACF46E0AE
:101E0000F8CF47E0F6CF123109F466C070F41D3008
:101E100009F476C020F41C3009F040C167C01031CD
:101E200091F1113109F03AC143C0163109F44AC0A9
:101E300030F41431F1F0153109F030C12FC01C35E8
:101E400021F01D3509F02AC10AC065E080E00E943A
:101E50001409803F08F08FEE482F405F94C065E082
:101E600080E00E941409803108F480E1482F40513D
:101E70008AC062E080E00E941409803F08F08FEE83
:101E8000482F405F09C062E080E00E941409803161
:101E900008F480E1482F405162E0A6CF63E080E083
:101EA0000E941409803F08F08FEE482F405FA2C0C7
:101EB00063E080E00E941409803108F480E1482F3B
:101EC000405198C064E080E00E941409803F08F00F
:101ED0008FEE482F405FA5C064E080E00E941409A7
:101EE000803108F480E1482F40519BC066E081E0DA
:101EF0000E94140987FF02C040E0A4C04FEFA2C0B7
:101F000066E080E00E94140987FF02C040E0C2C082
:101F10004FEFC0C0822D8E19823008F4BFC0582EFA
:101F2000569482E0589EE00CF11C1124123109F401
:101F30006FC070F41D3009F493C020F41C3009F018
:101F4000ADC071C01031B9F1113109F0A7C049C05D
:101F5000163109F451C030F4143109F1153109F08A
:101F60009DC033C01C3521F01D3509F097C00DC050
:101F700065E080E00E941409952D9095981708F46B
:101F8000892F482F450D65E02FCF65E080E00E9446
:101F90001409851508F4852D482F4519F4CF62E002
:101FA00080E00E941409952D9095981708F4892FC8
:101FB000482F450D71CF62E080E00E94140985151D
:101FC00008F4852D482F451967CF63E080E00E9413
:101FD0001409952D9095981708F4892F482F450DD1
:101FE00009C063E080E00E941409851508F4852D7E
:101FF000482F451963E0F8CE64E080E00E941409A0
:10200000952D9095981708F4892F482F450D09C0F4
:1020100064E080E00E941409851508F4852D482F9E
:10202000451964E0E1CE66E081E00E94140966E0B3
:1020300087FF0BC081E00E941409851508F4852DE7
:10204000482F451966E082E027C081E00E9414090C
:10205000952D9095981708F4892F482F450DF2CFAC
:1020600066E080E00E94140966E087FF09C080E016
:102070000E941409851508F4852D482F45190AC0BA
:1020800080E00E941409952D9095981708F4892FE7
:10209000482F450D66E081E00E94A40C8091E90183
:1020A000882309F4EACC1092E9018091EA01909129
:1020B000EB01A091EC01B091ED010196A11DB11DC4
:1020C0008093EA019093EB01A093EC01B093ED01B2
:1020D00081E00E949C0A8091E301882369F067E017
:1020E00080E00E941409813029F44FEF6FEF8FEFE9
:1020F0000E94F30C1092E3018091E6018111BDCCA6
:102100008AE291E00E94DA03B092E001A092DF013E
:10211000B4CC32E0832EF7CD23E0822E12CE812C78
:10212000BDCF710194E0892E0CCEAA1BBB1B51E1DF
:1021300007C0AA1FBB1FA617B70710F0A61BB70B37
:10214000881F991F5A95A9F780959095BC01CD01DC
:102150000895EE0FFF1F0590F491E02D0994FB0107
:10216000DC0102C005900D9241505040D8F708950F
:04217000F894FFCF11
:10217400FFFFFFFF4902310236024102010801005C
:1021840000FF010800000000FF01080000006C735C
:0E219400006261006273006268006961000011
:00000001FF
