:100000000C94BB010C94DA010C94DA010C94DA0123
:100010000C94DA010C94DA010C94DA010C94DA01F4
:100020000C94DA010C94DA010C94DA010C94DA01E4
:100030000C94DA010C9421090C94DA010C94DA0185
:100040000C94DA010C94DA010C94DA010C94DA01C4
:100050000C94DC010C940F020C94DA010C94DA017C
:100060000C94DA010C94DA010C94DA010C94DA01A4
:100070000C94A0020C94D3020C9402030C94DA01A9
:100080000C9497050C94DA010C94DA01000001003D
:100090000100010001000100020002000200020054
:1000A0000300030003000400040004000500050031
:1000B000050006000600060007000700070008000C
:1000C00008000800090009000A000A000A000B00E5
:1000D0000B000C000C000D000D000E000E000F00B8
:1000E0000F00100010001100110012001200130088
:1000F0001300140014001500160016001700170056
:100100001800190019001A001B001C001C001D001B
:100110001E001E001F0020002100220022002300DC
:1001200024002500260027002800280029002A0096
:100130002B002C002D002E002F003000310032004B
:100140003400350036003700380039003B003C00F1
:100150003D003E0040004100420044004500460092
:10016000480049004B004C004E004F005100530026
:1001700054005600580059005B005D005F006000AD
:1001800062006400660068006A006C006E00700027
:1001900072007500770079007B007E00800082008D
:1001A000850087008A008D008F00920094009700E0
:1001B0009A009D00A000A300A600A900AC00AF001B
:1001C000B200B500B900BC00BF00C300C600CA0041
:1001D000CE00D100D500D900DD00E100E500E90046
:1001E000ED00F100F600FA00FE00030107010C012A
:1001F000110116011B01200125012A012F013401E3
:100200003A013F0145014B01510156015C01630177
:1002100069016F0176017C018301890190019701D9
:100220009E01A601AD01B401BC01C401CB01D30103
:10023000DC01E401EC01F501FD0106020F021802E8
:1002400021022B0234023E02480252025C02670283
:1002500071027C02870292029D02A902B502C102CC
:10026000CD02D902E502F202FF020C031A032703B2
:1002700035034303510360036E037D038D039C0329
:10028000AC03BC03CC03DD03EE03FF030020A01688
:100290000010500B0008A8050004D40200026A01F7
:1002A0000001B50080005A0040002D00200016001B
:1002B00010000B0064006400640000006400000093
:1002C000640000006400000064000000640000009E
:1002D000640000006400000064000000640000008E
:1002E00064000000640000006400640064006400B6
:1002F0006400640064006400640064006400FFFF44
:10030000FFFFFFFF000000FFFFFFFFFFFF000000F7
:10031000000000FF0000FF000000FF0000FF0000E1
:1003200000FF0000FFFFFFFFFFFFFFFFFFFFFFFFDA
:10033000FFFFFFFFFFFFFFFFFFFFFFFFFFFFFFFFCD
:10034000FFFFFFFFFFFFFFFFFFFFFFFFFFFFFFFFBD
:10035000000000FF000000FFFFFFFFFFFFFFFFFFA7
:10036000FFFFFFFFFFFFFFFFFFFFFFFFFF00010396
:10037000070D1B1E250011241FBECFEFD0E4DEBFEA
:10038000CDBF11E0A0E0B1E0E6EFF4E100E00BBF8B
:1003900002C007900D92A032B107D9F712E0A0E297
:1003A000B1E001C01D92AB32B107E1F70E94AF0985
:1003B0000C94790A0C9400001F920F920FB60F92C2
:1003C00011240BB60F921BBE2F938F939F93EF9325
:1003D000FF938091C0009091C6008871E091670101
:1003E000EF5FEF7120916601E21739F0E09367014A
:1003F000F0E0E659FE4F908301C082E090916501E4
:10040000982B90936501FF91EF919F918F912F9180
:100410000F900BBE0F900FBE0F901F9018951F925C
:100420000F920FB60F9211240BB60F921BBE8F9333
:100430009F93EF93FF9390916901809168019817C2
:1004400069F0E0916801EF5FEF71E0936801F0E01F
:10045000E657FE4F80818093C60005C08091C100A1
:100460008F7D8093C100FF91EF919F918F910F90AD
:100470000BBE0F900FBE0F901F9018951092690140
:1004800010926801109267011092660197FF04C0F4
:1004900022E02093C0009F779093C5008093C40012
:1004A00088E98093C10086E08093C200089590910E
:1004B000670180916601981781F0E0916601EF5F16
:1004C000EF71E0936601F0E0E659FE4F20818091E4
:1004D00065011092650130E002C020E031E0C90101
:1004E0000895909169019F5F9F7120916801921713
:1004F000E1F3E92FF0E0E657FE4F80839093690126
:100500008091C10080628093C1000895CF93DF93F2
:10051000EC0102C00E94710289918111FBCFDF9131
:10052000CF910895CF93DF93EC0102C00E94710236
:10053000FE01219684918111F9CFDF91CF91089529
:100540001F920F920FB60F9211240BB60F921BBE83
:100550002F938F939F93EF93FF938091C800909177
:10056000CE008871E0912201EF5FEF7120912101AF
:10057000E21739F0E0932201F0E0EB5DFE4F90834B
:1005800001C082E090912001982B90932001FF916F
:10059000EF919F918F912F910F900BBE0F900FBEF7
:1005A0000F901F9018951F920F920FB60F92112463
:1005B0000BB60F921BBE8F939F93EF93FF93909177
:1005C000240180912301981769F0E0912301EF5FE6
:1005D000EF71E0932301F0E0EB5BFE4F80818093AD
:1005E000CE0005C08091C9008F7D8093C900FF9126
:1005F000EF919F918F910F900BBE0F900FBE0F90B8
:100600001F9018951F920F920FB60F9211248F937F
:100610009F939091240180912301981301C05C98CD
:100620009F918F910F900FBE0F901F901895109271
:10063000240110922301109222011092210197FFB0
:1006400004C022E02093C8009F779093CD00809350
:10065000CC0088ED8093C90086E08093CA0008959D
:100660009091220180912101981781F0E091210160
:10067000EF5FEF71E0932101F0E0EB5DFE4F208131
:10068000809120011092650130E002C020E031E04D
:10069000C90108959091240180912301981731F0A8
:1006A0005C9A8091C90080628093C90008959091FE
:1006B00024019F5F9F71209123019217E1F3E92F9D
:1006C000F0E0EB5BFE4F8083909324015C9A809175
:1006D000C90080628093C9000895CF93DF93EC0135
:1006E00002C00E94570389918111FBCFDF91CF9106
:1006F0000895CF93DF93EC0102C00E945703FE01DF
:10070000219684918111F9CFDF91CF9108958A309C
:1007100010F4805D0895895C0895FC0120E030E0CC
:1007200018C09191492F40534A3058F041514630FA
:1007300010F4975307C0492F4156463018F4975587
:1007400001C0942F44E0220F331F4A95E1F7290F8F
:10075000311D9E2F981B961720F3C9010895AAED0D
:10076000B1E0EC91EF5FEC93F0E0EA0FFB1F8083C8
:1007700080E00895E091B701EF5FE093B701F0E00A
:10078000E954FE4F80838091B7018230B9F020F4A4
:10079000813009F059C006C08430F1F1863009F08B
:1007A00053C04BC08091B801893609F44DC08C36D6
:1007B00009F44AC0823609F447C02BC09091B801B1
:1007C0009936F9F09C36A1F0923619F59091B9015D
:1007D000983631F0933751F09136D9F493E016C042
:1007E0008093D50184E08093D9012EC081E0F8CFB9
:1007F0008091B901833769F487E08093D50186E061
:10080000F2CF9091B901913621F495E09093D50102
:10081000EACF1092B70118C062E08AEB91E00E9423
:100820008D038093D7019091D501923069F4909116
:10083000D901980F9093D90107C062E08CEB91E049
:100840000E948D038093D8018091B701823048F0D7
:100850009091D901891305C01092B7018091D501FB
:10086000089580E008950C944A031092DA0181E81B
:1008700090E00E943E021092B70181E890E00E9451
:100880001703549A089580910601909107012091D1
:1008900004013091050130930701209306019093E4
:1008A0000501809304018091020190910301209140
:1008B00000013091010130930301209302019093D4
:1008C00001018093000108951F93CF93DF93C6E049
:1008D000D2E0A7E1B2E09D0181E090E070E060E24B
:1008E000E0910001F0910101E80FF91F462F4095BA
:1008F0004083E991F0E0EE0FFF1FE457FF4F459171
:100900005491F901419351939F01452B09F0762BA6
:10091000660F01968430910519F7E0910001F0917E
:100920000101708381E090E03CC0E52FF0E0EE0F24
:10093000FF1FEB5EFD4F608171816217730710F43A
:100940009B01452F5F5F543080F34C1721F150E03D
:10095000FA01EE0FFF1FEB5EFD4F208131816D919B
:100960007C9111977183608311963C932E93209113
:10097000000130910101F901E40FF51F4081E90107
:10098000C80FD91F28812083E0910001F091010157
:10099000E80FF91F4083129601968430910509F4FF
:1009A00057C0C82F482F582F2FEF33E0BECF232B2F
:1009B00071F02091000130910101D901A40FB51F00
:1009C000E901C80FD91F2C91888128232C934E2F21
:1009D0001BC0842F90E0DC01AA0FBB1FA95EBD4F96
:1009E0002D913C91DC01AA0FBB1FAB5EBD4F2D9337
:1009F0003C93A0910001B0910101A80FB91F11967D
:100A00008C9111978C934F5F411718F311508E2FD3
:100A100090E0DC01AA0FBB1FAB5EBD4F2D913C9156
:100A2000AC014F5F5F4FDA01AA0FBB1FAB5EBD4F3A
:100A30006D917C912617370721F0232B09F46FC0A5
:100A400003C0E11708F4B3CFEF5FE11700F303C071
:100A5000E1E013E0DCCFF0E0EE0FFF1FEB5EFD4FB7
:100A600080819181892B09F41150E0910401F0916A
:100A70000501111108C080E090E391838083938386
:100A8000828311E03FC0812F90E0880F991FEF0112
:100A9000C80FD91FDC01AB5EBD4F2D913C91119762
:100AA00048EE4203C001439F900D1124905A998350
:100AB00088832D913C91412F415058E119C0842FDA
:100AC00090E0880F991FEF01C80FD91FDC01AB5EC2
:100AD000BD4F8D919C911197281B390B529FC001DE
:100AE000539F900D1124998388832D913C914150FF
:100AF0004111E5CF48E1429FC001439F900D112471
:100B0000918380831092FD018091FD018823E1F3A0
:100B1000F8940E94430410930801789404C0E117EC
:100B200008F455CF91CFDF91CF911F9108951F9277
:100B30000F920FB60F9211240BB60F921BBE2F937C
:100B40003F934F935F936F938F939F93EF93FF9395
:100B500080919800909199006091AC01262F30E02F
:100B6000A901440F551FE0910601F0910701E40F20
:100B7000F51F40815181840F951F909399008093B8
:100B80009800E0910201F0910301E20FF31F9081C0
:100B9000611105C092B981E08093AC0110C082B1AF
:100BA000892382B980910801681306C081E080938F
:100BB000FD011092AC0103C06F5F6093AC01FF9127
:100BC000EF919F918F916F915F914F913F912F91F5
:100BD0000F900BBE0F900FBE0F901F90189580EED8
:100BE00081B982E080939100E1E7F0E0808182604A
:100BF00080830895653029F130F4633091F0C8F4B2
:100C00006230F1F506C0673061F118F16830C1F566
:100C10002FC097E0899FF0011124E45FFE4F84818B
:100C2000089597E0899FF0011124E45FFE4F8581CC
:100C3000089597E0899FF0011124E45FFE4F8681BB
:100C4000089597E0899FF0011124E45FFE4F8181B0
:100C5000089597E0899FF0011124E45FFE4F8081A1
:100C60000895689FF0011124E45FFE4F828108958A
:100C700097E0899FF0011124E45FFE4F838108957E
:100C800080E00895CF9380910A0190910B01892B08
:100C900009F042C0E091B00183E0E89FF001112427
:100CA000E250FD4F6591749160931701E091B0019E
:100CB00083E0E89FF0011124E150FD4F45915491EC
:100CC00040931801E091B00183E0E89FF001112406
:100CD000E050FD4F2591349120931901809114012A
:100CE00090E0689FF001699FF00D1124F0930702D6
:100CF000489FB001499F700D112470930602289FF0
:100D0000A001299F500D1124509308020E946404F1
:100D100081E0CF910C943C07C091160180910901AC
:100D2000C81759F180910A0190910B01EC2FF0E066
:100D3000EE0FFF1FE457FD4F25913491289FA0012E
:100D4000299F500D112450930B0140930A0180916B
:100D50000A0190910B01E0910901F0E0EE0FFF1FF5
:100D6000E457FD4F6591749177270E94650A70934F
:100D70000B0160930A01C093090180910A019091CF
:100D80000B019195819591099093280280932702F8
:100D9000E091B00183E0E89FF0011124E250FD4FA3
:100DA0008591949190911701981710F421E001C05A
:100DB0002FEF20931E02213011F4891B02C0981BD3
:100DC000892F80931D0220910A0130910B0190E040
:100DD000821B930B90932A0280932902E091B00129
:100DE00083E0E89FF0011124E150FD4F859194913B
:100DF00090911801981710F421E001C02FEF209373
:100E00002202213011F4891B02C0981B892F809384
:100E1000210220910A0130910B0190E0821B930B7B
:100E20009093240280932302E091B00183E0E89F35
:100E3000F0011124E050FD4F85919491909119019A
:100E4000981710F421E001C02FEF209320022130E9
:100E500011F4891B02C0981B892F80931F022091D7
:100E60000A0130910B0190E0821B930B90932602B4
:100E700080932502CF910895E0911501E11107C0FB
:100E80008FEF9FEF90930B0180930A01089590914B
:100E9000B001980F9093B0014091B0018E2F90E077
:100EA000FC01E359FC4F25913491421750F021E0A9
:100EB0002093AE01FC01E459FC4F859194918093FD
:100EC000B001E091B001F0E0EE0FFF1FEC54FD4FD8
:100ED00085919491E0911601F0E0EE0FFF1FE45729
:100EE000FD4F25913491289FA001299F500D389FD7
:100EF000500D1124852F992790930B0180930A019F
:100F00000C944206CF93DF93882371F080910A01FD
:100F100090910B01019790930B0180930A01892B0B
:100F200019F481E00E943C0780911501882309F49F
:100F30008CC08091270290912802D0911E02A0912E
:100F400017012091290230912A02BC01660F771FF8
:100F5000A901440F551FB0E004C0460F571FB1E070
:100F6000AC2FF901CA2FCD0F280F391F8417950711
:100F7000A4F3A093170120911D02AF01420F511D50
:100F800050932A0240932902D0912202A091180185
:100F90002091230230912402A901440F551F04C05F
:100FA000460F571FB1E0AC2FF901CA2FCD0F280F04
:100FB000391F84179507A4F3A093180120912102EB
:100FC000AF01420F511D5093240240932302D09150
:100FD0002002A09119012091250230912602A90139
:100FE000440F551F04C0460F571FB1E0AC2FF90145
:100FF000CA2FCD0F280F391F84179507A4F3A0938C
:10100000190180911F029F01280F311D3093260284
:1010100020932502BB23C9F0209117018091140170
:10102000829F900111243093070220911801289F7C
:101030009001112430930602A89FC00111249093BF
:101040000802DF91CF910C946404DF91CF91089551
:101050002F923F924F925F926F927F928F929F92C8
:10106000AF92BF92CF92DF92EF92FF920F931F93B6
:10107000CF93DF931F92CDB7DEB7542E1DE0C12E64
:1010800011E0D12E00E1802E01E0902E91E1A92EF9
:1010900091E0B92E22E1E22E21E0F22E0EE011E0E5
:1010A000212C312C412C682E712CC301022C02C042
:1010B000959587950A94E2F780FF89C06530D1F154
:1010C00038F46330E9F068F5623009F080C009C097
:1010D000673009F453C008F46FC0683009F077C076
:1010E00061C0F8011082F4015082F1E02F126FC04C
:1010F000F6018081859DC0011124909307020EC0E6
:10110000F8011082F5015082F1E02F1260C0F60163
:101110008081859DC001112490930602442443944C
:1011200056C0F8011082F7015082F1E02F124FC033
:10113000F60118C0F6015082F1E02F1248C08091EC
:101140001501811116C0F4018081859DC001112413
:1011500090930702F5018081859DC0011124909331
:101160000602F7018081859DC00111249093080239
:10117000D5CF80E069830E94820712C0F8015082B7
:10118000F1E02F1224C0E0911501F0E0E359FC4F8B
:10119000859194918093B00180E069830E943C071F
:1011A000698115C0F7013397508221E022120FC0E8
:1011B00069830E944206F4CFF7013697508281E09E
:1011C000281205C057FE02C02D9A01C02D988091AB
:1011D000150181110AC0442041F08091AF018111B5
:1011E00004C069830E9464046981EFEF2E1A3E0AED
:1011F000F7E0CF0ED11C27E0820E911C87E0A80EED
:10120000B11CE7E0EE0EF11C095F1F4FF2E02F1654
:10121000310409F04ACF1092AF010F90DF91CF91C6
:101220001F910F91FF90EF90DF90CF90BF90AF9004
:101230009F908F907F906F905F904F903F902F90F6
:1012400008951F920F920FB60F9211248F939F93C0
:1012500010926F0078948091B601982F9F5F9093C1
:10126000B601863928F081E08093B1011092B60171
:10127000F89482E080936F009F918F910F900FBE42
:101280000F901F90189584E395E0909389008093C8
:10129000880089E08093810082E080936F00089548
:1012A0000F931F93CF93DF931F92CDB7DEB7082F15
:1012B000142F8AE191E069830E946D03802F0E94C0
:1012C00087030E9457036981862F0E9487030E942B
:1012D0005703812F992787FD9095807F992724E0D8
:1012E000959587952A95E1F70E9487030E945703F9
:1012F000812F8F700E9487030E945703412F6981BD
:10130000802F0F90DF91CF911F910F910C9428089F
:101310001F93CF93DF93162FD42FC1E0C093AF015B
:10132000482F62E083E00E945009C093AF01412F33
:1013300063E083E00E9450094D2F64E083E0DF9179
:10134000CF911F910C9450090895861708F4682FC7
:10135000862F0895681708F4682F862F08950E9435
:1013600035045C980E9443090E94EF0580E00E94CA
:101370003C07259A789401E010E0C0E0D0EF0E948D
:1013800057020E94300390FD51C00E94BA0385307D
:1013900091F0873009F440C0813009F047C0809156
:1013A000D701823009F042C08DE191E00E946D03C7
:1013B000FE0109953BC08091AD018823B9F18AE116
:1013C00091E00E946D038091AD0190E0019798013A
:1013D00002C0220F331F8A95E2F7C901805D0E9487
:1013E000570386E30E9457038091AD0166E00E9497
:1013F000FA0582958F700E9487030E94570380919F
:10140000AD0166E00E94FA058F700E9487030E947A
:1014100057031092AD010AC08091D701682F6F70F9
:101420004091D80182958F700E9428088091B10167
:10143000882309F4A4CF1092B1018091B201909158
:10144000B301A091B401B091B5010196A11DB11DE8
:101450008093B2019093B301A093B401B093B5010E
:1014600081E00E9482078091AE01882369F067E0E5
:1014700081E00E94FA05813029F44FEF6FEF8FEF82
:101480000E9488091092AE018091B2019091B3013F
:10149000A091B401B091B5019170AA27BB27019723
:1014A000A105B10509F06BCF66E081E00E94FA0565
:1014B00087FF02C040E001C04FEF66E082E00E947B
:1014C000280881E08093AD015ACFAA1BBB1B51E1D4
:1014D00007C0AA1FBB1FA617B70710F0A61BB70BA4
:1014E000881F991F5A95A9F780959095BC01CD0149
:0614F0000895F894FFCFFF
:1014F6001102F901FE0109020108010000FF0108BD
:1015060000000000FF01080000006C73006261002B
:00000001FF
