:100000000C9422020C9441020C9441020C94410283
:100010000C9441020C9441020C9441020C94410254
:100020000C9441020C9441020C9441020C94410244
:100030000C9441020C94320C0C9441020C94410239
:100040000C9441020C9441020C9441020C94410224
:100050000C9443020C9476020C9441020C944102DD
:100060000C9441020C9441020C9441020C94410204
:100070000C9407030C943A030C9469030C9441020A
:100080000C94AF080C9441020C944102890E8B0E23
:100090008D0E8F0EDC0FDC0FDC0F860EDC0FDC0FFD
:1000A000DC0F840EDC0FDC0FDC0F780EDC0FDC0FB6
:1000B000DC0F6E0E680E680E680E680E680E680E15
:1000C000680E680EDC0FDC0FDC0FDC0FDC0FDC0FC2
:1000D000DC0FDC0FDC0FDC0FDC0FDC0FDC0FDC0FC8
:1000E000DC0FDC0FDC0FDC0FDC0FDC0FDC0FDC0FB8
:1000F000DC0FDC0FDC0FDC0FDC0FDC0FDC0FDC0FA8
:10010000DC0FDC0F520EDC0FDC0FDC0F680E640E10
:10011000DC0FDC0F680E680EDC0FDC0F680E680E5B
:10012000DC0FDC0F680E680EDC0FDC0F680E680E4B
:10013000DC0FDC0F5E0E610E02050C1122050C05B2
:100140000C001010202001010002050C1122050CEA
:10015000050C000000000001010001000100010089
:100160000100010001000200020002000200030081
:10017000030003000400040004000500050005005E
:100180000600060006000700070007000800080038
:100190000800090009000A000A000A000B000B0011
:1001A0000C000C000D000D000E000E000F000F00E3
:1001B00010001000110011001200120013001300B3
:1001C0001400140015001600160017001700180080
:1001D000190019001A001B001C001C001D001E0045
:1001E0001E001F0020002100220022002300240006
:1001F0002500260027002800280029002A002B00BF
:100200002C002D002E002F00300031003200340071
:10021000350036003700380039003B003C003D0017
:100220003E004000410042004400450046004800B6
:1002300049004B004C004E004F0051005300540049
:100240005600580059005B005D005F0060006200CE
:100250006400660068006A006C006E007000720046
:100260007500770079007B007E00800082008500A9
:1002700087008A008D008F009200940097009A00FA
:100280009D00A000A300A600A900AC00AF00B20032
:10029000B500B900BC00BF00C300C600CA00CE0054
:1002A000D100D500D900DD00E100E500E900ED0056
:1002B000F100F600FA00FE00030107010C01110134
:1002C00016011B01200125012A012F0134013A01E9
:1002D0003F0145014B01510156015C016301690178
:1002E0006F0176017C0183018901900197019E01D4
:1002F000A601AD01B401BC01C401CB01D301DC01F5
:10030000E401EC01F501FD0106020F0218022102D1
:100310002B0234023E02480252025C026702710262
:100320007C02870292029D02A902B502C102CD029F
:10033000D902E502F202FF020C031A032703350378
:100340004303510360036E037D038D039C03AC03E1
:10035000BC03CC03DD03EE03FF030020A016001056
:10036000500B0008A8050004D40200026A01000135
:10037000B50080005A0040002D002000160010003B
:100380000B0064006400640000006400000064006E
:1003900000006400000064000000640000006400CD
:1003A00000006400000064000000640000006400BD
:1003B00000006400000064006400640064006400E5
:1003C000640064006400640064006400FFFFFFFFD9
:1003D000FFFF000000FFFFFFFFFFFF000000000025
:1003E00000FF0000FF000000FF0000FF000000FF12
:1003F0000000FFFFFFFFFFFFFFFFFFFFFFFFFFFF0B
:10040000FFFFFFFFFFFFFFFFFFFFFFFFFFFFFFFFFC
:10041000FFFFFFFFFFFFFFFFFFFFFFFFFFFF0000EA
:1004200000FF000000FFFFFFFFFFFFFFFFFFFFFFD8
:10043000FFFFFFFFFFFFFFFFFFFFFF000103070DAF
:100440001B1E250011241FBECFEFD0E4DEBFCDBFA1
:1004500011E0A0E0B1E0E0E9F0E200E00BBF02C093
:1004600007900D92AA32B107D9F712E0AAE2B1E0E3
:1004700001C01D92AF35B107E1F70E94180D0C9431
:1004800046100C9400001F920F920FB60F92112489
:100490000BB60F921BBE2F938F939F93EF93FF93F7
:1004A0008091C0009091C6008871E0917101EF5F6A
:1004B000EF7120917001E21739F0E0937101F0E0E3
:1004C000EC58FE4F908301C082E090916F01982B11
:1004D00090936F01FF91EF919F918F912F910F90CA
:1004E0000BBE0F900FBE0F901F9018951F920F928A
:1004F0000FB60F9211240BB60F921BBE8F939F93D2
:10050000EF93FF939091730180917201981769F0B6
:10051000E0917201EF5FEF71E0937201F0E0EC5651
:10052000FE4F80818093C60005C08091C1008F7D01
:100530008093C100FF91EF919F918F910F900BBE1F
:100540000F900FBE0F901F9018951092730110928C
:100550007201109271011092700197FF04C022E0A5
:100560002093C0009F779093C5008093C40088E9D2
:100570008093C10086E08093C2000895909171013C
:1005800080917001981781F0E0917001EF5FEF7139
:10059000E0937001F0E0EC58FE4F208180916F01F4
:1005A00010926F0130E002C020E031E0C9010895EF
:1005B000909173019F5F9F71209172019217E1F3F7
:1005C000E92FF0E0EC56FE4F808390937301809109
:1005D000C10080628093C1000895CF93DF93EC0146
:1005E00002C00E94D80289918111FBCFDF91CF9187
:1005F0000895CF93DF93EC0102C00E94D802FE0160
:10060000219684918111F9CFDF91CF9108951F92A6
:100610000F920FB60F9211240BB60F921BBE2F93A1
:100620008F939F93EF93FF938091C8009091CE009A
:100630008871E0912C01EF5FEF7120912B01E2179F
:1006400039F0E0932C01F0E0E15DFE4F908301C0B2
:1006500082E090912A01982B90932A01FF91EF91CB
:100660009F918F912F910F900BBE0F900FBE0F9007
:100670001F9018951F920F920FB60F9211240BB670
:100680000F921BBE8F939F93EF93FF9390912E0138
:1006900080912D01981769F0E0912D01EF5FEF71C6
:1006A000E0932D01F0E0E15BFE4F80818093CE006E
:1006B00005C08091C9008F7D8093C900FF91EF91A3
:1006C0009F918F910F900BBE0F900FBE0F901F90B8
:1006D00018951F920F920FB60F9211248F939F932C
:1006E00090912E0180912D01981301C05C989F91EB
:1006F0008F910F900FBE0F901F90189510922E01A2
:1007000010922D0110922C0110922B0197FF04C022
:1007100022E02093C8009F779093CD008093CC0077
:1007200088ED8093C90086E08093CA000895909177
:100730002C0180912B01981781F0E0912B01EF5F44
:10074000EF71E0932B01F0E0E15DFE4F208180919D
:100750002A0110926F0130E002C020E031E0C901AF
:10076000089590912E0180912D01981731F05C9A97
:100770008091C90080628093C900089590912E01F4
:100780009F5F9F7120912D019217E1F3E92FF0E017
:10079000E15BFE4F808390932E018091DB0190916D
:1007A000DC01892B31F45C9A8091C90080628093CE
:1007B000C9000895CF93DF93EC0102C00E94BE03ED
:1007C00089918111FBCFDF91CF910895CF93DF9372
:1007D000EC0102C00E94BE03FE01219684918111AA
:1007E000F9CFDF91CF9108956091C5017091D20149
:1007F000671730F19091D301691710F54091D80136
:1008000090E02091C3013091C401442381F0462F30
:1008100050E0471B510902C0880F991F4A95E2F723
:10082000822B932B9093C4018093C30132C0220F7B
:10083000331F282B392B3093C4012093C30129C0C7
:100840007091D401671728F19091D501691708F5C7
:100850004091D80190E02091C1013091C201442320
:1008600081F0462F50E0471B510902C0880F991FA5
:100870004A95E2F7822B932B9093C2018093C1019A
:1008800008C0220F331F282B392B3093C20120932D
:10089000C1016F5F6093C50108952998219808955B
:1008A000FC018091BC018823B9F18091BB018230A9
:1008B000A9F58091B7019091B8012091B7013091CD
:1008C000B801892F992720953095332782179307F0
:1008D00009F414C08091B9019091BA018E3E9748F5
:1008E000B9F48BE08093BB018091B7019091B8017E
:1008F000892F99279093BA018093B9018091B7010C
:100900009091B80199279093B8018093B70106C0E0
:1009100080E01092BC01089580E008958091BB01B1
:1009200080838091B9019091BA01928381838091F3
:10093000B7019091B801948383838091B40185833A
:100940001092B8011092B7011092BA011092B90139
:100950001092B40181E0DDCF83B19091BC0191117F
:1009600082C182709091BD0191112EC09091BE0103
:10097000811104C09F5F9093BE0175C19923A9F0B6
:1009800081E08093BD018093BF011092C00110925D
:10099000C2011092C1011092C4011092C3019FEFD5
:1009A0009093C5018093C6015EC18091C70190916B
:1009B000C8018F3F2FEF920709F455C1019690931C
:1009C000C8018093C7014FC19091BF019923D1F114
:1009D000882349F08091C6018F5F8093C6018A3ECB
:1009E00008F4A8C065C08091BE018E55843560F4BE
:1009F0008091C60190E08E32910524F08A359105F0
:100A000044F002C0479744F41092BD0160E070E0EA
:100A100005C068E371E002C069E471E08091BD0146
:100A2000882331F041E150E089EC91E00E943D10D3
:100A30001092C50181E08093BE011092C601109210
:100A4000BF0178C09091C001992309F466C0882342
:100A500009F40CC14091C5018091D601481311C021
:100A60009091D701913069F48091BE019091CE01AF
:100A70008917F0F09091CF019817D0F01092D7011C
:100A800059C09091C6019F5F9093C6019A3E08F4A9
:100A900051C0242F30E090E001972817390741F426
:100AA0008091D701811104C04F5F4093C50142C0BE
:100AB0001092BD011092BE011092C6013BC09091F0
:100AC000CB01981760F09091C6012091CC0192174C
:100AD00030F02091CD01291710F081E013C09091E2
:100AE000CE018917A0F09091CF01981780F08091E6
:100AF000C6019091D001891750F09091D1019817BB
:100B000030F080E00E94F4031092C00104C0109203
:100B1000BD011092C60181E005C0811106C080911F
:100B2000BE018F5F8093BE0105C081E08093C0014C
:100B30008093C6018091BD01882309F494C030914F
:100B4000C5018091D60138138EC08091D7018111E3
:100B50008AC040910001509101018091C1019091A2
:100B6000C2014817590769F48091C7019091C801E3
:100B7000803B944030F48091DA018F5F8093DA01FA
:100B800002C01092DA0181E08093BC012091C9017A
:100B9000223009F531111FC08091C7019091C80121
:100BA00088309740B0F480910201909103019093B6
:100BB000C4018093C3015093C2014093C10180914D
:100BC000B40181608093B4011092C8011092C701F2
:100BD00002C01092BC012093BB018091C30190918F
:100BE000C4019093BA018093B901223021F490930B
:100BF0000301809302012091C1013091C201309321
:100C0000B8012093B7016091BC01662311F142172E
:100C1000530799F440910201509103014817590775
:100C200061F44091C7015091C8014A3C584028F4F2
:100C30004091B40141604093B401909303018093CB
:100C4000020130930101209300011092C80110921B
:100C5000C7011092BD011092C2011092C101109201
:100C6000BE011092C6018091BC0108958091BE0121
:100C70009091CA01891708F022CF31CF8A3010F441
:100C8000805D0895895C0895FC0120E030E018C083
:100C90009191492F40534A3058F04151463010F459
:100CA000975307C0492F4156463018F4975501C055
:100CB000942F44E0220F331F4A95E1F7290F311D8D
:100CC0009E2F981B961720F3C9010895E0910E02FC
:100CD000EF5FE0930E02F0E0E25FFD4F80838091D2
:100CE0000E028230A1F020F4813009F051C006C01C
:100CF0008430B1F1863009F04BC043C080910F02BF
:100D0000823609F445C08C3609F442C026C0909161
:100D10000F02923619F09C3601F514C09091100222
:100D2000983641F0933749F09136B9F493E09093B7
:100D30000A0210C080930A022BC081E080930A024D
:100D400084E008C080911002833739F487E08093F3
:100D50000A0286E0809308021BC010920E0218C09F
:100D600062E081E192E00E94440680932B02909120
:100D70000A02923069F490910802980F9093080249
:100D800007C062E083E192E00E94440680932C0257
:100D900080910E02823048F090910802891305C0BC
:100DA00010920E0280910A02089580E00895E09169
:100DB000EB01EF5FE093EB01F0E0E551FE4F808344
:100DC0008091EB018230B9F020F4813009F054C0F9
:100DD00006C08430C9F1863009F04EC046C080910B
:100DE000EC01893609F448C08C3609F445C08236D6
:100DF00009F442C026C09091EC01923619F09C365D
:100E000001F514C09091ED01983641F0933749F007
:100E10009136B9F493E09093090210C080930902CF
:100E20002BC081E08093090284E008C08091ED012D
:100E3000833739F487E08093090286E080930D02BE
:100E40001BC01092EB0118C062E08EEE91E00E9490
:100E5000440680930B0290910902923069F49091BC
:100E60000D02980F90930D0207C062E080EF91E0B1
:100E70000E94440680930C028091EB01823048F07E
:100E800090910D02891305C01092EB018091090227
:100E9000089580E008950C94B10310920E0281E849
:100EA00090E00E94A5021092EB0181E890E00E9480
:100EB0007E03549A089580910A0190910B0120912C
:100EC00008013091090130930B0120930A0190939E
:100ED00009018093080180910601909107012091FA
:100EE000040130910501309307012093060190938E
:100EF00005018093040108951F93CF93DF93CAE304
:100F0000D2E0ABE4B2E09D0181E090E070E060E20D
:100F1000E0910401F0910501E80FF91F462F40957B
:100F20004083E991F0E0EE0FFF1FE65AFE4F459136
:100F30005491F901419351939F01452B09F0762B70
:100F4000660F01968430910519F7E0910401F09144
:100F50000501708381E090E03CC0E52FF0E0EE0FEA
:100F6000FF1FE75BFD4F608171816217730710F40B
:100F70009B01452F5F5F543080F34C1721F150E007
:100F8000FA01EE0FFF1FE75BFD4F208131816D916C
:100F90007C9111977183608311963C932E932091DD
:100FA000040130910501F901E40FF51F4081E901C9
:100FB000C80FD91F28812083E0910401F091050119
:100FC000E80FF91F4083129601968430910509F4C9
:100FD00057C0C82F482F582F2FEF33E0BECF232BF9
:100FE00071F02091040130910501D901A40FB51FC2
:100FF000E901C80FD91F2C91888128232C934E2FEB
:101000001BC0842F90E0DC01AA0FBB1FA55BBD4F66
:101010002D913C91DC01AA0FBB1FA75BBD4F2D9307
:101020003C93A0910401B0910501A80FB91F11963E
:101030008C9111978C934F5F411718F311508E2F9D
:1010400090E0DC01AA0FBB1FA75BBD4F2D913C9127
:10105000AC014F5F5F4FDA01AA0FBB1FA75BBD4F0B
:101060006D917C912617370721F0232B09F46FC06F
:1010700003C0E11708F4B3CFEF5FE11700F303C03B
:10108000E1E013E0DCCFF0E0EE0FFF1FE75BFD4F88
:1010900080819181892B09F41150E0910801F09130
:1010A0000901111108C080E090E39183808393834C
:1010B000828311E03FC0812F90E0880F991FEF01DC
:1010C000C80FD91FDC01A75BBD4F2D913C91119733
:1010D00048EE4203C001439F900D1124905A99831A
:1010E00088832D913C91412F415058E119C0842FA4
:1010F00090E0880F991FEF01C80FD91FDC01A75B93
:10110000BD4F8D919C911197281B390B529FC001A7
:10111000539F900D1124998388832D913C914150C8
:101120004111E5CF48E1429FC001439F900D11243A
:101130009183808310923102809131028823E1F300
:10114000F8940E945B0710930C01789404C0E11797
:1011500008F455CF91CFDF91CF911F9108951F9241
:101160000F920FB60F9211240BB60F921BBE2F9346
:101170003F934F935F936F938F939F93EF93FF935F
:1011800080919800909199006091DD01262F30E0C8
:10119000A901440F551FE0910A01F0910B01E40FE2
:1011A000F51F40815181840F951F90939900809382
:1011B0009800E0910601F0910701E20FF31F908182
:1011C000611105C092B981E08093DD0110C082B148
:1011D000892382B980910C01681306C081E0809355
:1011E00031021092DD0103C06F5F6093DD01FF915A
:1011F000EF919F918F916F915F914F913F912F91BF
:101200000F900BBE0F900FBE0F901F90189580EEA1
:1012100081B982E080939100E1E7F0E08081826013
:1012200080830895653029F130F4633091F0C8F47B
:101230006230F1F506C0673061F118F16830C1F530
:101240002FC097E0899FF0011124E05FFE4F848159
:10125000089597E0899FF0011124E05FFE4F85819A
:10126000089597E0899FF0011124E05FFE4F868189
:10127000089597E0899FF0011124E05FFE4F81817E
:10128000089597E0899FF0011124E05FFE4F80816F
:101290000895689FF0011124E05FFE4F8281089558
:1012A00097E0899FF0011124E05FFE4F838108954C
:1012B00080E00895CF9380910E0190910F01892BCA
:1012C00009F042C0E091E10183E0E89FF0011124C0
:1012D000E453FC4F6591749160931401E091E10136
:1012E00083E0E89FF0011124E353FC4F45915491B2
:1012F00040931501E091E10183E0E89FF0011124A2
:10130000E253FC4F259134912093160180911101F5
:1013100090E0689FF001699FF00D1124F0933B026B
:10132000489FB001499F700D112470933A02289F85
:10133000A001299F500D112450933C020E947C076C
:1013400081E0CF910C94540AC091130180910D015A
:10135000C81759F180910E0190910F01EC2FF0E028
:10136000EE0FFF1FE65AFC4F25913491289FA001F4
:10137000299F500D112450930F0140930E0180912D
:101380000E0190910F01E0910D01F0E0EE0FFF1FB3
:10139000E65AFC4F6591749177270E942310709351
:1013A0000F0160930E01C0930D0180910E01909189
:1013B0000F0191958195910990935C0280935B0256
:1013C000E091E10183E0E89FF0011124E453FC4F38
:1013D0008591949190911401981710F421E001C027
:1013E0002FEF20935202213011F4891B02C0981B69
:1013F000892F8093510220910E0130910F0190E0CE
:10140000821B930B90935E0280935D02E091E10159
:1014100083E0E89FF0011124E353FC4F8591949100
:1014200090911501981710F421E001C02FEF20933F
:101430005602213011F4891B02C0981B892F80931A
:10144000550220910E0130910F0190E0821B930B09
:101450009093580280935702E091E10183E0E89F66
:10146000F0011124E253FC4F859194919091160163
:10147000981710F421E001C02FEF2093540221307F
:1014800011F4891B02C0981B892F8093530220916D
:101490000E0130910F0190E0821B930B90935A0242
:1014A00080935902CF910895E0911201E11107C094
:1014B0008FEF9FEF90930F0180930E01089590910D
:1014C000E101980F9093E1014091E1018E2F90E0AE
:1014D000FC01E55CFB4F25913491421750F021E06F
:1014E0002093DF01FC01E65CFB4F85919491809392
:1014F000E101E091E101F0E0EE0FFF1FEE57FC4F3C
:1015000085919491E0911301F0E0EE0FFF1FE65AF0
:10151000FC4F25913491289FA001299F500D389FA1
:10152000500D1124852F992790930F0180930E0160
:101530000C945A09CF93DF93882371F080910E01A8
:1015400090910F01019790930F0180930E01892BC9
:1015500019F481E00E94540A80911201882309F451
:101560008CC080915B0290915C02D0915202A0915C
:10157000140120915D0230915E02BC01660F771F5D
:10158000A901440F551FB0E004C0460F571FB1E03A
:10159000AC2FF901CA2FCD0F280F391F84179507DB
:1015A000A4F3A093140120915102AF01420F511DE9
:1015B00050935E0240935D02D0915602A0911501B6
:1015C0002091570230915802A901440F551F04C0C1
:1015D000460F571FB1E0AC2FF901CA2FCD0F280FCE
:1015E000391F84179507A4F3A09315012091550284
:1015F000AF01420F511D5093580240935702D091B2
:101600005402A09116012091590230915A02A90169
:10161000440F551F04C0460F571FB1E0AC2FF9010E
:10162000CA2FCD0F280F391F84179507A4F3A09355
:101630001601809153029F01280F311D30935A02E9
:1016400020935902BB23C9F020911401809111010C
:10165000829F9001112430933B0220911501289F15
:101660009001112430933A02A89FC0011124909355
:101670003C02DF91CF910C947C07DF91CF910895CC
:101680002F923F924F925F926F927F928F929F9292
:10169000AF92BF92CF92DF92EF92FF920F931F9380
:1016A000CF93DF931F92CDB7DEB7542E11E1C12E39
:1016B00011E0D12E04E1802E01E0902E95E1A92EBB
:1016C00091E0B92E26E1E22E21E0F22E02E111E0B6
:1016D000212C312C412C682E712CC301022C02C00C
:1016E000959587950A94E2F780FF82C06530B9F13D
:1016F00038F46330E1F058F5623009F079C009C080
:10170000673009F44FC008F469C0683009F070C050
:101710005CC0F8011082F4015082211069C0F6010A
:101720008081859DC001112490933B020DC0F8017A
:101730001082F501508221105BC0F6018081859DE9
:10174000C001112490933A024424439451C0F801FB
:101750001082F701508221104BC0F60117C0F6012C
:101760005082211045C080911201811116C0F401F0
:101770008081859DC001112490933B02F5018081F9
:10178000859DC001112490933A02F7018081859DC7
:10179000C001112490933C02D7CF80E069830E945E
:1017A0009A0A11C0F8015082211022C0E091120162
:1017B000F0E0E55CFB4F859194918093E10180E03E
:1017C00069830E94540A698113C0F70133975082DC
:1017D00021100EC069830E945A09F5CFF701369790
:1017E0005082211005C057FE02C02D9A01C02D98CD
:1017F0008091120181110AC0442041F08091E001E2
:10180000811104C069830E947C076981FFEF2F1A50
:101810003F0A27E0C20ED11C87E0880E911CE7E04A
:10182000AE0EB11CF7E0EF0EF11C095F1F4F22E076
:101830002216310409F051CF1092E0010F90DF9190
:10184000CF911F910F91FF90EF90DF90CF90BF90BD
:10185000AF909F908F907F906F905F904F903F9050
:101860002F9008951F920F920FB60F9211240BB66E
:101870000F921BBE2F933F934F935F936F937F9372
:101880008F939F93AF93BF93EF93FF9310926F004B
:1018900078940E94AC048091DB019091DC01892B4B
:1018A00089F08091DB019091DC0101979093DC013C
:1018B0008093DB018091DB019091DC01892B11F495
:1018C0000E944B078091EA01982F9F5F9093EA0155
:1018D0008639A0F081E08093E5011092EA018091C1
:1018E000E3019091E401019649F08091E301909128
:1018F000E40101969093E4018093E301F89482E07F
:1019000080936F00FF91EF91BF91AF919F918F9165
:101910007F916F915F914F913F912F910F900BBEEF
:101920000F900FBE0F901F90189584E395E0909351
:1019300089008093880089E08093810082E0809311
:101940006F000895FF920F931F93CF93DF93182F8B
:10195000062FF42E8EE191E00E94DA03812F0E947F
:101960003E060E94BE03802F0E943E060E94BE03D8
:10197000CF2DDD27C7FDD095C07FDD2784E0D5952D
:10198000C7958A95E1F78C2F0E943E060E94BE0300
:10199000DF2DDF708D2F0E943E060E94BE038EE178
:1019A00091E00E94ED02812F0E943E060E94D80223
:1019B000802F0E943E060E94D8028C2F0E943E0675
:1019C0000E94D8028D2F0E943E060E94D8024F2D01
:1019D000602F812FDF91CF911F910F91FF900C9479
:1019E000400B1F93CF93DF93162FD42FC1E0C093EA
:1019F000E001482F62E083E00E94A20CC093E00166
:101A0000412F63E083E00E94A20C4D2F64E083E04D
:101A1000DF91CF911F910C94A20C0895861708F4C2
:101A2000682F862F0895681708F4682F862F089569
:101A3000CF93DF9300D000D000D0CDB7DEB70E94A7
:101A40004D040E944D075C980E94950C0E94070966
:101A500080E00E94540A259A7894712C10E0E12CC1
:101A6000F12C412C512C812CC12C40EFD42E57E06D
:101A7000A52EB12C0E94BE0290FD57C00E946606A2
:101A8000823079F0873029F1813009F04EC0909191
:101A90002B02913019F4F601099547C08093E201B9
:101AA00044C081E291E00E94DA0305E007C0FC0136
:101AB000E25FFD4F80810E94BE030F5F802F90E0A8
:101AC00020912B0230E02C5F3F4F281739077CF71D
:101AD0002CC08EE191E00E94DA0380912B02829566
:101AE0008F700E943E060E94BE0380912B028F7071
:101AF0000E943E060E94BE0380912C0282958F7048
:101B00000E943E060E94BE0380912C028F700E94AC
:101B10003E060E94BE0380912B02682F6F70409199
:101B20002C0282958F700E94400B0E94970390FDBB
:101B300037C00E94D706833079F1873089F58EE16E
:101B400091E00E94ED0280910B0282958F700E94BD
:101B50003E060E94D80280910B028F700E943E06C2
:101B60000E94D80280910C0282958F700E943E06DE
:101B70000E94D80280910C028F700E943E060E9443
:101B8000D80280910B02682F6F7040910C028295F1
:101B90008F700E94400B04C084E291E00E94ED022D
:101BA000CE0101960E945004882351F08981823031
:101BB00039F48A819B8181159F4F11F42C8101C0DA
:101BC00020E081E08816A9F0E3E08E1611F0811084
:101BD0000DC0222309F431C21092E4011092E301F6
:101BE000122F412C512C8824839438C0F2E08F129C
:101BF0000AC021111CC28091E3019091E401459734
:101C000008F018C214C284E0881221C0211108C053
:101C10008091E3019091E401459708F00EC21EC047
:101C20002223C1F0121316C08091E3019091E401C8
:101C3000480E591E1092E4011092E301E2E08E1268
:101C400009C0F3E34F16510408F0F9C1B5C188206B
:101C500009F4B2C122E0821609F4AEC1103459F081
:101C6000772049F081E08093E001472D65E083E033
:101C70000E94A20C712C83E0881609F452C0E4E0A3
:101C80008E1609F4D5C0F1E08F1296C1812F90E035
:101C9000FC013497E635F10508F08EC1EA5BFF4F91
:101CA0000C94371065E080E00E941209682E472DE1
:101CB00065E083E00E94A20C762C7EC140E060E0EB
:101CC00009C040E06FEF02C04FEF60E080E003C06A
:101CD0004FEF6FEF8FEF0E94F10C6EC168E080E074
:101CE0000E941209843108F083E1482F4F5F09C038
:101CF00068E080E00E941209811101C081E0482F54
:101D0000415068E083E056C142E001C043E067E033
:101D1000F9CF44E0FCCF45E0FACF46E0F8CF47E00A
:101D2000F6CF123109F466C070F41D3009F476C0A4
:101D300020F41C3009F040C167C0103191F111311D
:101D400009F03AC143C0163109F44AC030F41431E5
:101D5000F1F0153109F030C12FC01C3521F01D35CF
:101D600009F02AC10AC065E080E00E941209803FA4
:101D700008F08FEE482F405F94C065E080E00E943D
:101D80001209803108F480E1482F40518AC062E096
:101D900080E00E941209803F08F08FEE482F405FDC
:101DA00009C062E080E00E941209803108F480E1FD
:101DB000482F405162E0A6CF63E080E00E94120904
:101DC000803F08F08FEE482F405FA2C063E080E0C4
:101DD0000E941209803108F480E1482F405198C0D8
:101DE00064E080E00E941209803F08F08FEE482FE7
:101DF000405FA5C064E080E00E941209803108F4D1
:101E000080E1482F40519BC066E081E00E941209AA
:101E100087FF02C040E0A4C04FEFA2C066E080E0B0
:101E20000E94120987FF02C040E0C2C04FEFC0C04D
:101E3000842D8E19823008F4BFC0682E669422E08B
:101E4000629EE00CF11C1124123109F46FC070F491
:101E50001D3009F493C020F41C3009F0ADC071C0EE
:101E60001031B9F1113109F0A7C049C0163109F498
:101E700051C030F4143109F1153109F09DC033C05F
:101E80001C3521F01D3509F097C00DC065E080E0DC
:101E90000E941209962D9095981708F4892F482FC3
:101EA000460D65E02FCF65E080E00E94120986159F
:101EB00008F4862D482F4619F4CF62E080E00E9496
:101EC0001209962D9095981708F4892F482F460DE2
:101ED00071CF62E080E00E941209861508F4862D19
:101EE000482F461967CF63E080E00E941209962DC3
:101EF0009095981708F4892F482F460D09C063E084
:101F000080E00E941209861508F4862D482F461994
:101F100063E0F8CE64E080E00E941209962D90956F
:101F2000981708F4892F482F460D09C064E080E017
:101F30000E941209861508F4862D482F461964E080
:101F4000E1CE66E081E00E94120966E087FF0BC0E7
:101F500081E00E941209861508F4862D482F461943
:101F600066E082E027C081E00E941209962D9095DC
:101F7000981708F4892F482F460DF2CF66E080E0CD
:101F80000E94120966E087FF09C080E00E941209E2
:101F9000861508F4862D482F46190AC080E00E9455
:101FA0001209962D9095981708F4892F482F460D01
:101FB00066E081E00E94A20C8091E501882309F48B
:101FC00059CD1092E5018091E6019091E701A09131
:101FD000E801B091E9010196A11DB11D8093E601D0
:101FE0009093E701A093E801B093E90181E00E949A
:101FF0009A0A8091DF01882369F067E080E00E94FF
:102000001209813029F44FEF6FEF8FEF0E94F10C2E
:102010001092DF018091E20181112CCD87E291E0E5
:102020000E94DA03B092DC01A092DB0123CD32E002
:10203000832EF6CD23E0822E11CE812CBDCF7201EE
:1020400094E0892E0BCEAA1BBB1B51E107C0AA1F2F
:10205000BB1FA617B70710F0A61BB70B881F991F49
:102060005A95A9F780959095BC01CD010895EE0F82
:10207000FF1F0590F491E02D0994FB01DC0102C0E3
:1020800005900D9241505040D8F70895F894FFCF35
:10209000FFFFFFFF45022D0232023D020108010051
:1020A00000FF010800000000FF01080000006C7341
:0A20B00000626800626100696100CF
:00000001FF
