:020000021000EC
:10F000000C9446F80C9465F80C9465F80C9465F82B
:10F010000C9465F80C9465F80C9465F80C9465F8FC
:10F020000C9465F80C9465F80C9465F80C9465F8EC
:10F030000C9465F80C9465F80C9465F80C9465F8DC
:10F040000C9465F80C9465F80C9465F80C9465F8CC
:10F050000C9467F80C949AF80C9465F80C9465F885
:10F060000C9465F80C9465F80C9465F80C9465F8AC
:10F070000C942BF90C945EF90C948DF90C9465F8B2
:10F080000C9465F80C9465F80C9465F811241FBE77
:10F09000CFEFD0E4DEBFCDBF11E0A0E0B1E0E2EA07
:10F0A000F9EF01E00BBF02C007900D92A031B1074C
:10F0B000D9F712E0A0E1B1E001C01D92AF3CB10769
:10F0C000E1F70E944CFC0C94CFFC0C9400F81F92CA
:10F0D0000F920FB60F9211240BB60F921BBE2F93F7
:10F0E0008F939F93EF93FF938091C0009091C60000
:10F0F0008871E0915701EF5FEF7120915601E2179F
:10F1000039F0E0935701F0E0E65AFE4F908301C0DA
:10F1100082E090915501982B90935501FF91EF91CA
:10F120009F918F912F910F900BBE0F900FBE0F905C
:10F130001F9018951F920F920FB60F9211240BB6C5
:10F140000F921BBE8F939F93EF93FF939091590162
:10F1500080915801981769F0E0915801EF5FEF71C5
:10F16000E0935801F0E0E658FE4F80818093C6009E
:10F1700005C08091C1008F7D8093C100FF91EF9108
:10F180009F918F910F900BBE0F900FBE0F901F900D
:10F19000189510925901109258011092570110922F
:10F1A000560197FF04C022E02093C0009F77909300
:10F1B000C5008093C40088E98093C10086E08093F5
:10F1C000C20008959091570180915601981781F0DF
:10F1D000E0915601EF5FEF71E0935601F0E0E65ADF
:10F1E000FE4F2081809155011092550130E002C000
:10F1F00020E031E0C9010895909159019F5F9F710E
:10F20000209158019217E1F3E92FF0E0E658FE4F04
:10F210008083909359018091C10080628093C100E6
:10F220000895CF93DF93EC0102C00E94FCF889910E
:10F230008111FBCFDF91CF910895CF93DF93EC0144
:10F2400002C00E94FCF8FE01219684918111F9CF41
:10F25000DF91CF9108951F920F920FB60F92112454
:10F260000BB60F921BBE2F938F939F93EF93FF9339
:10F270008091C8009091CE008871E0911201EF5FFB
:10F28000EF7120911101E21739F0E0931201F0E0E3
:10F29000EB5EFE4F908301C082E090911001982BAD
:10F2A00090931001FF91EF919F918F912F910F906B
:10F2B0000BBE0F900FBE0F901F9018951F920F92CC
:10F2C0000FB60F9211240BB60F921BBE8F939F9314
:10F2D000EF93FF939091140180911301981769F0B7
:10F2E000E0911301EF5FEF71E0931301F0E0EB5C4D
:10F2F000FE4F80818093CE0005C08091C9008F7D34
:10F300008093C900FF91EF919F918F910F900BBE59
:10F310000F900FBE0F901F9018951F920F920FB66F
:10F320000F9211248F939F93909114018091130158
:10F33000981301C02C989F918F910F900FBE0F9042
:10F340001F9018951092140110921301109212013F
:10F350001092110197FF04C022E02093C8009F770C
:10F360009093CD008093CC0088ED8093C90086E017
:10F370008093CA000895909112018091110198170D
:10F3800081F0E0911101EF5FEF71E0931101F0E086
:10F39000EB5EFE4F2081809110011092550130E00C
:10F3A00002C020E031E0C9010895909114019F5FEF
:10F3B0009F71209113019217E1F3E92FF0E0EB5CCC
:10F3C000FE4F8083909314012C9A8091C900806233
:10F3D0008093C9000895CF93DF93EC0102C00E948F
:10F3E000D5F989918111FBCFDF91CF910895CF930A
:10F3F000DF93EC0102C00E94D5F9FE0121968491B1
:10F400008111F9CFDF91CF910895FC0120E030E028
:10F4100018C09191492F40534A3058F0415146301D
:10F4200010F4975307C0492F4156463018F49755AA
:10F4300001C0942F44E0220F331F4A95E1F7290FB2
:10F44000311D9E2F981B961720F3C9010895E09156
:10F45000AA01EF5FE093AA01F0E0E655FE4F80833A
:10F460008091AA01823079F020F4813009F040C007
:10F4700005C0843029F18630D9F533C08091AB01C5
:10F480008236B1F11AC09091AB019236B1F49091ED
:10F49000AC01983641F0933749F0913671F493E01E
:10F4A0009093A90107C08093A90122C081E08093B5
:10F4B000A90184E08093A8011BC01092AA0118C082
:10F4C00062E08DEA91E00E9405FA8093C701909175
:10F4D000A901923069F49091A801980F9093A80126
:10F4E00007C062E08FEA91E00E9405FA8093C801AC
:10F4F0008091AA01823048F09091A801891305C03B
:10F500001092AA018091A901089580E008951092B7
:10F51000AA0181E890E00E94C9F8249A08958F9288
:10F520009F92AF92BF92CF92DF92EF92FF920F9392
:10F530001F93CF93DF93BFB6F894F999FECF23E0E2
:10F54000FB0180935B0020935700E89507B600FC11
:10F55000FDCF00E010E09801A1E0FA01E00FF11FFB
:10F56000B08168017901C60ED71EE81EF91EA18080
:10F57000DA2DE0E0CE2F4E018B0E911C0401F60136
:10F58000E0925B00A0935700E89511240E5F1F4F97
:10F590002F4F3F4F0115E1E01E0721053105E9F628
:10F5A00025E0FB0180935B0020935700E89507B6A8
:10F5B00000FCFDCF81E180935700E895BFBEDF914D
:10F5C000CF911F910F91FF90EF90DF90CF90BF9060
:10F5D000AF909F908F900895CF93DF93209101017A
:10F5E000213009F056C190919F01933009F475C004
:10F5F00020F49130B9F0D0F509C0953009F405C177
:10F6000008F498C0963009F044C142C18A3309F029
:10F6100040C120939F0110929E011092A30110926D
:10F62000A20137C190919E01E92FF0E0E653FD4F12
:10F630008083892F8F5F80939E01823009F029C1DA
:10F6400080939F0110929E0162E08AEC92E00E94FA
:10F6500005FA80939D012091A2013091A301280F0A
:10F66000311D3093A3012093A20113C190919E01FB
:10F67000E92FF0E0E653FD4F8083892F8F5F809361
:10F680009E01843009F005C183E080939F011092B0
:10F690009E0164E08AEC92E00E9405FA9093A70133
:10F6A0008093A6012091A2013091A301280F311D62
:10F6B000492F5527240F351F3093A3012093A20112
:10F6C00020910001222309F4E4C088279093A5012A
:10F6D0008093A40110920001DCC090919E01E92F5B
:10F6E000F0E0E653FD4F8083892F8F5F80939E016A
:10F6F000823009F0CEC010929E0110929C0162E00F
:10F700008AEC92E00E9405FA80939B012091A2016D
:10F710003091A301280F311D3093A3012093A20142
:10F72000882331F0813021F485E080939F01B1C0BE
:10F7300084E0FBCF90919E01E92FF0E0E653FD4F6E
:10F740008083892F8F5F80939E01823009F0A1C052
:10F7500010929E01C091A001D091A10162E08AECBB
:10F7600092E00E9405FAC653DE4F88832091A001E3
:10F770003091A101F901E653FE4F40818091A20131
:10F780009091A301840F911D9093A3018093A201F6
:10F79000C90101969093A1018093A00120919C0141
:10F7A0002F5F20939C0130919D01231307C025E01A
:10F7B00020939F0110929C0110929E01811591400F
:10F7C00009F067C08FE79AE126E081509040204021
:10F7D000E1F700C000006091A4017091A50180E0F4
:10F7E00090E04AEC51E00E948FFA40E051E06FEF68
:10F7F00070E08AEC91E00E94C8FC1092A101109286
:10F80000A00181E08093000144C090919E01E92F06
:10F81000F0E0E653FD4F8083892F8F5F80939E0138
:10F820008230B9F562E08AEC92E00E9405FA80939A
:10F830009A012091A2013091A301280F311D332795
:10F840003093A3012093A20180919B018130A9F400
:10F850008FE79AE126E0815090402040E1F700C018
:10F8600000006091A4017091A50180E090E04AEC55
:10F8700051E00E948FFA109201018091A2019091B3
:10F88000A301892B19F410929F0103C086E04DCF8C
:10F890000E9ADF91CF910895CF93DF9382B1806E5E
:10F8A00082B90D9A0E9487FA2C9885E0EAECF2E082
:10F8B000DF011D928A95E9F740E051E06FEF70E0BB
:10F8C0008AEC91E00E94C8FC85B78093C901982F0B
:10F8D000916095BF826085BF81E890E00E94C9F881
:10F8E000789482E091E00E9411F90E94E2F8EC0124
:10F8F00090FD31C087E091E00E9411F98C2F0E94A9
:10F9000027FA8130D9F0823031F50AC00F9AFC0114
:10F91000E655FE4F80810E94ECFA0F98CF5F01C040
:10F92000C5E08C2F90E02091C70130E02C5F3F4F65
:10F93000281739075CF78CE091E00BC08091C70174
:10F94000811103C01092010106C0813021F482E0D0
:10F9500091E00E9411F9809101018111C6CFBFEFA2
:10F96000E8E0FDE3B150E040F040E1F700C0000006
:10F9700085B78093C901982F916095BF8D7F85BF12
:10F98000E0E0F0E0099580E090E0DF91CF9108950C
:10F99000DC0101C06D9341505040E0F70895F894A8
:02F9A000FFCF97
:10F9A20001016273303100627363630062610000BF
:040000031000F000F9
:00000001FF
