:020000021000EC
:10F000000C9446F80C9465F80C9465F80C9465F82B
:10F010000C9465F80C9465F80C9465F80C9465F8FC
:10F020000C9465F80C9465F80C9465F80C9465F8EC
:10F030000C9465F80C9465F80C9465F80C9465F8DC
:10F040000C9465F80C9465F80C9465F80C9465F8CC
:10F050000C9467F80C949AF80C9465F80C9465F885
:10F060000C9465F80C9465F80C9465F80C9465F8AC
:10F070000C942BF90C945EF90C948DF90C9465F8B2
:10F080000C9465F80C9465F80C9465F811241FBE77
:10F09000CFEFD0E4DEBFCDBF11E0A0E0B1E0E6E508
:10F0A000F9EF01E00BBF02C007900D92A630B10747
:10F0B000D9F712E0A6E0B1E001C01D92A53CB1076E
:10F0C000E1F70E943DFC0C94A9FC0C9400F81F92FF
:10F0D0000F920FB60F9211240BB60F921BBE2F93F7
:10F0E0008F939F93EF93FF938091C0009091C60000
:10F0F0008871E0914D01EF5FEF7120914C01E217B3
:10F1000039F0E0934D01F0E0E05BFE4F908301C0E9
:10F1100082E090914B01982B90934B01FF91EF91DE
:10F120009F918F912F910F900BBE0F900FBE0F905C
:10F130001F9018951F920F920FB60F9211240BB6C5
:10F140000F921BBE8F939F93EF93FF9390914F016C
:10F1500080914E01981769F0E0914E01EF5FEF71D9
:10F16000E0934E01F0E0E059FE4F80818093C600AD
:10F1700005C08091C1008F7D8093C100FF91EF9108
:10F180009F918F910F900BBE0F900FBE0F901F900D
:10F19000189510924F0110924E0110924D0110924D
:10F1A0004C0197FF04C022E02093C0009F7790930A
:10F1B000C5008093C40088E98093C10086E08093F5
:10F1C000C200089590914D0180914C01981781F0F3
:10F1D000E0914C01EF5FEF71E0934C01F0E0E05BF8
:10F1E000FE4F208180914B0110924B0130E002C014
:10F1F00020E031E0C901089590914F019F5F9F7118
:10F2000020914E019217E1F3E92FF0E0E059FE4F13
:10F21000808390934F018091C10080628093C100F0
:10F220000895CF93DF93EC0102C00E94FCF889910E
:10F230008111FBCFDF91CF910895CF93DF93EC0144
:10F2400002C00E94FCF8FE01219684918111F9CF41
:10F25000DF91CF9108951F920F920FB60F92112454
:10F260000BB60F921BBE2F938F939F93EF93FF9339
:10F270008091C8009091CE008871E0910801EF5F05
:10F28000EF7120910701E21739F0E0930801F0E0F7
:10F29000E55FFE4F908301C082E090910601982BBC
:10F2A00090930601FF91EF919F918F912F910F9075
:10F2B0000BBE0F900FBE0F901F9018951F920F92CC
:10F2C0000FB60F9211240BB60F921BBE8F939F9314
:10F2D000EF93FF9390910A0180910901981769F0CB
:10F2E000E0910901EF5FEF71E0930901F0E0E55D66
:10F2F000FE4F80818093CE0005C08091C9008F7D34
:10F300008093C900FF91EF919F918F910F900BBE59
:10F310000F900FBE0F901F9018951F920F920FB66F
:10F320000F9211248F939F9390910A01809109016C
:10F33000981301C02C989F918F910F900FBE0F9042
:10F340001F90189510920A0110920901109208015D
:10F350001092070197FF04C022E02093C8009F7716
:10F360009093CD008093CC0088ED8093C90086E017
:10F370008093CA0008959091080180910701981721
:10F3800081F0E0910701EF5FEF71E0930701F0E09A
:10F39000E55FFE4F20818091060110924B0130E025
:10F3A00002C020E031E0C901089590910A019F5FF9
:10F3B0009F71209109019217E1F3E92FF0E0E55DDB
:10F3C000FE4F808390930A012C9A8091C90080623D
:10F3D0008093C9000895CF93DF93EC0102C00E948F
:10F3E000D5F989918111FBCFDF91CF910895CF930A
:10F3F000DF93EC0102C00E94D5F9FE0121968491B1
:10F400008111F9CFDF91CF910895FC0120E030E028
:10F4100018C09191492F40534A3058F0415146301D
:10F4200010F4975307C0492F4156463018F49755AA
:10F4300001C0942F44E0220F331F4A95E1F7290FB2
:10F44000311D9E2F981B961720F3C9010895E09156
:10F45000A001EF5FE093A001F0E0E056FE4F808353
:10F460008091A001823079F020F4813009F040C011
:10F4700005C0843029F18630D9F533C08091A101CF
:10F480008236B1F11AC09091A1019236B1F49091F7
:10F49000A201983641F0933749F0913671F493E028
:10F4A00090939F0107C080939F0122C081E08093C9
:10F4B0009F0184E080939E011BC01092A00118C0A0
:10F4C00062E083EA91E00E9405FA8093BD01909189
:10F4D0009F01923069F490919E01980F90939E0144
:10F4E00007C062E085EA91E00E9405FA8093BE01C0
:10F4F0008091A001823048F090919E01891305C04F
:10F500001092A00180919F01089580E008951092CB
:10F51000A00181E890E00E94A2F9249A08958F92B8
:10F520009F92AF92BF92CF92DF92EF92FF920F9392
:10F530001F93CF93DF93BFB6F894F999FECF23E0E2
:10F54000FB0180935B0020935700E89507B600FC11
:10F55000FDCF00E010E09801A1E0FA01E00FF11FFB
:10F56000B08168017901C60ED71EE81EF91EA18080
:10F57000DA2DE0E0CE2F4E018B0E911C0401F60136
:10F58000E0925B00A0935700E89511240E5F1F4F97
:10F590002F4F3F4F0115E1E01E0721053105E9F628
:10F5A00025E0FB0180935B0020935700E89507B6A8
:10F5B00000FCFDCF81E180935700E895BFBEDF914D
:10F5C000CF911F910F91FF90EF90DF90CF90BF9060
:10F5D000AF909F908F900895CF93DF93209101017A
:10F5E000213009F047C190919501923009F440C053
:10F5F00030F4992369F0913009F03CC115C0943082
:10F6000009F498C008F46BC0953009F033C1F7C015
:10F610008A3309F02FC12093950110929401109222
:10F6200099011092980126C190919401E92FF0E080
:10F63000E054FD4F8083892F8F5F80939401823047
:10F6400009F018C1809395011092940162E080EC5A
:10F6500092E00E9405FA80939301209198013091E5
:10F660009901280F311D309399012093980102C10F
:10F6700090919401E92FF0E0E054FD4F8083892FB1
:10F680008F5F80939401843009F0F4C083E080930D
:10F6900095011092940164E080EC92E00E9405FADA
:10F6A00090939D0180939C01209198013091990144
:10F6B000280F311D492F5527240F351F30939901ED
:10F6C0002093980120910001222309F4D3C08827B8
:10F6D00090939B0180939A0110920001CBC090916E
:10F6E0009401E92FF0E0E054FD4F8083892F8F5F74
:10F6F00080939401823009F0BDC010929401109261
:10F70000920162E080EC92E00E9405FA8093910100
:10F710002091980130919901280F311D3093990162
:10F7200020939801882321F0813011F485E0A0C056
:10F7300084E09EC090919401E92FF0E0E054FD4FE9
:10F740008083892F8F5F80939401823009F092C06B
:10F750008EE20E94FCF810929401C0919601D09123
:10F76000970162E080EC92E00E9405FAC054DE4FFF
:10F7700088832091960130919701F901E054FE4F62
:10F7800040818091980190919901840F911D9093EF
:10F79000990180939801C9010196909397018093F4
:10F7A0009601209192012F5F209392013091930155
:10F7B000231307C025E02093950110929201109227
:10F7C00094018115914009F055C060919A017091A2
:10F7D0009B0180E090E040EC51E00E948FFA40E015
:10F7E00051E06FEF70E080EC91E00E94A2FC10927B
:10F7F00097011092960181E0809300013BC09091A7
:10F800009401E92FF0E0E054FD4F8083892F8F5F52
:10F8100080939401823071F562E080EC92E00E9466
:10F8200005FA809390012091980130919901280F59
:10F83000311D3327309399012093980180919101D4
:10F84000813061F460919A0170919B0180E090E0B9
:10F8500040EC51E00E948FFA1092010180919801D2
:10F8600090919901892B19F41092950103C086E0BB
:10F8700080939501DF91CF910895CF930E9487FAED
:10F880002C9885E0E0ECF2E0DF011D928A95E9F723
:10F8900040E051E06FEF70E080EC91E00E94A2FC4C
:10F8A00085B78093BF01982F916095BF826085BF17
:10F8B00081E890E00E94C9F878940E94BBF990FD1D
:10F8C00025C00E9427FA8130D9F08230F9F408C0AF
:10F8D000FC01E056FE4F80810E94ECFACF5F01C030
:10F8E000C5E08C2F90E02091BD0130E02C5F3F4FB0
:10F8F000281739076CF782E091E00E94EBF906C007
:10F900008091BD01811102C010920101809101011D
:10F910008111D3CFBFEFE8E0FDE3B150E040F0400C
:10F92000E1F700C0000085B78093BF01982F916078
:10F9300095BF8D7F85BFE0E0F0E0099580E090E025
:10F94000CF910895DC0101C06D9341505040E0F724
:06F950000895F894FFCFBA
:06F95600010162610000E6
:040000031000F000F9
:00000001FF
