:020000021000EC
:10F000000C9446F80C9465F80C9465F80C9465F82B
:10F010000C9465F80C9465F80C9465F80C9465F8FC
:10F020000C9465F80C9465F80C9465F80C9465F8EC
:10F030000C9465F80C9465F80C9465F80C9465F8DC
:10F040000C9465F80C9465F80C9465F80C9465F8CC
:10F050000C9467F80C949AF80C9465F80C9465F885
:10F060000C9465F80C9465F80C9465F80C9465F8AC
:10F070000C942BF90C945EF90C9465F80C9465F8DB
:10F080000C9465F80C9465F80C9465F811241FBE77
:10F09000CFEFD0E4DEBFCDBF11E0A0E0B1E0EEE203
:10F0A000F9EF01E00BBF02C007900D92AC31B10740
:10F0B000D9F712E0ACE1B1E001C01D92A23EB10768
:10F0C000E1F70E9422FC0C9495FC0C9400F81F922E
:10F0D0000F920FB60F9211240BB60F921BBE2F93F7
:10F0E0008F939F93EF93FF938091C0009091C60000
:10F0F0008871E0916301EF5FEF7120916201E21787
:10F1000039F0E0936301F0E0EA59FE4F908301C0CB
:10F1100082E090916101982B90936101FF91EF91B2
:10F120009F918F912F910F900BBE0F900FBE0F905C
:10F130001F9018951F920F920FB60F9211240BB6C5
:10F140000F921BBE8F939F93EF93FF939091650156
:10F1500080916401981769F0E0916401EF5FEF71AD
:10F16000E0936401F0E0EA57FE4F80818093C6008F
:10F1700005C08091C1008F7D8093C100FF91EF9108
:10F180009F918F910F900BBE0F900FBE0F901F900D
:10F19000189510926501109264011092630110920B
:10F1A000620197FF04C022E02093C0009F779093F4
:10F1B000C5008093C40088E98093C10086E08093F5
:10F1C000C20008959091630180916201981781F0C7
:10F1D000E0916201EF5FEF71E0936201F0E0EA59C4
:10F1E000FE4F2081809161011092610130E002C0E8
:10F1F00020E031E0C9010895909165019F5F9F7102
:10F20000209164019217E1F3E92FF0E0EA57FE4FF5
:10F210008083909365018091C10080628093C100DA
:10F220000895CF93DF93EC0102C00E94FCF889910E
:10F230008111FBCFDF91CF910895CF93DF93EC0144
:10F2400002C00E94FCF8FE01219684918111F9CF41
:10F25000DF91CF9108951F920F920FB60F92112454
:10F260000BB60F921BBE2F938F939F93EF93FF9339
:10F270008091C8009091CE008871E0911E01EF5FEF
:10F28000EF7120911D01E21739F0E0931E01F0E0CB
:10F29000EF5DFE4F908301C082E090911C01982B9E
:10F2A00090931C01FF91EF919F918F912F910F905F
:10F2B0000BBE0F900FBE0F901F9018951F920F92CC
:10F2C0000FB60F9211240BB60F921BBE8F939F9314
:10F2D000EF93FF939091200180911F01981769F09F
:10F2E000E0911F01EF5FEF71E0931F01F0E0EF5B32
:10F2F000FE4F80818093CE0005C08091C9008F7D34
:10F300008093C900FF91EF919F918F910F900BBE59
:10F310000F900FBE0F901F90189510922001109221
:10F320001F0110921E0110921D0197FF04C022E0E0
:10F330002093C8009F779093CD008093CC0088E9FC
:10F340008093C90086E08093CA00089590911E01C1
:10F3500080911D01981781F0E0911D01EF5FEF7121
:10F36000E0931D01F0E0EF5DFE4F208180911C01D4
:10F370001092610130E002C020E031E0C90108953F
:10F38000909120019F5F9F7120911F019217E1F3DF
:10F39000E92FF0E0EF5BFE4F808390932001809196
:10F3A000C90080628093C9000895CF93DF93EC0178
:10F3B00002C00E94C0F989918111FBCFDF91CF91EA
:10F3C0000895CF93DF93EC0102C00E94C0F9FE01C3
:10F3D000219684918111F9CFDF91CF910895FC019D
:10F3E00020E030E018C09191492F40534A3058F046
:10F3F0004151463010F4975307C0492F41564630CB
:10F4000018F4975501C0942F44E0220F331F4A95FA
:10F41000E1F7290F311D9E2F981B961720F3C90184
:10F420000895E091B802EF5FE093B802F0E0E8548D
:10F43000FD4F80838091B802823049F08430D1F052
:10F44000813071F58091B902823651F110C09091EE
:10F45000B902923661F49091BA02983609F403C069
:10F46000933729F481E08093B70184E017C01092AC
:10F47000B80216C08091B902823691F462E08BEB3B
:10F4800092E00E94EFF98093B5018091BA0288362C
:10F4900039F49091B6018091B501890F8093B6013E
:10F4A0008091B802823048F09091B601891305C06E
:10F4B0001092B8028091B701089580E008958F926C
:10F4C0009F92AF92BF92CF92DF92EF92FF920F93F3
:10F4D0001F93CF93DF93BFB6F894F999FECF23E043
:10F4E000FB0180935B0020935700E89507B600FC72
:10F4F000FDCF00E010E09801A1E0FA01E00FF11F5C
:10F50000B08168017901C60ED71EE81EF91EA180E0
:10F51000DA2DE0E0CE2F4E018B0E911C0401F60196
:10F52000E0925B00A0935700E89511240E5F1F4FF7
:10F530002F4F3F4F0115E1E01E0721053105E9F688
:10F5400025E0FB0180935B0020935700E89507B608
:10F5500000FCFDCF81E180935700E895BFBEDF91AD
:10F56000CF911F910F91FF90EF90DF90CF90BF90C0
:10F57000AF909F908F900895CF93DF9320910101DA
:10F58000213009F05CC19091AB01933009F475C052
:10F5900020F49130B9F0D0F509C0953009F402C1DA
:10F5A00008F498C0963009F04AC144C18A3309F082
:10F5B00046C12093AB011092AA011092AF011092A4
:10F5C000AE013DC19091AA01E92FF0E0E352FD4F59
:10F5D0008083892F8F5F8093AA01823009F02FC129
:10F5E0008093AB011092AA0162E08DED92E00E943F
:10F5F000EFF98093A9012091AE013091AF01280F5E
:10F60000311D3093AF012093AE0119C19091AA0131
:10F61000E92FF0E0E352FD4F8083892F8F5F8093C5
:10F62000AA01843009F00BC183E08093AB011092F2
:10F63000AA0164E08DED92E00E94EFF99093B3018E
:10F640008093B2012091AE013091AF01280F311D9E
:10F65000492F5527240F351F3093AF012093AE015A
:10F6600020910001222309F4EAC088279093B10178
:10F670008093B00110920001E2C09091AA01E92F9D
:10F68000F0E0E352FD4F8083892F8F5F8093AA01C2
:10F69000823009F0D4C01092AA011092A80162E051
:10F6A0008DED92E00E94EFF98093A7012091AE01C9
:10F6B0003091AF01280F311D3093AF012093AE017F
:10F6C000882331F0813021F485E08093AB01B7C00D
:10F6D00084E0FBCF9091AA01E92FF0E0E352FD4FC7
:10F6E0008083892F8F5F8093AA01823009F0A7C0A1
:10F6F0008EE20E94FCF81092AA01C091AC01D09158
:10F70000AD0162E08DED92E00E94EFF9FE01E85458
:10F71000FE4F80832091AE013091AF01280F311D43
:10F720003093AF012093AE012196D093AD01C093E9
:10F73000AC018091A8018F5F8093A8019091A901ED
:10F74000891305C085E08093AB011092A801C11513
:10F75000D14009F074C082E091E00E9411F98FE776
:10F760009AE126E0815090402040E1F700C000007F
:10F770006091B0017091B10180E090E048EB51E000
:10F780000E945FFA40E051E06FEF70E088EB91E09B
:10F790000E948EFC1092AD011092AC0181E080932A
:10F7A00000014DC09091AA01E92FF0E0E352FD4F16
:10F7B0008083892F8F5F8093AA01823009F03FC038
:10F7C00062E08DED92E00E94EFF98093A601209116
:10F7D000AE013091AF01280F311D33273093AF01B7
:10F7E0002093AE018091A7018130C9F482E091E0BD
:10F7F0000E9411F98FE79AE126E081509040204065
:10F80000E1F700C000006091B0017091B10180E0AB
:10F8100090E048EB51E00E945FFA10920101809164
:10F82000AE019091AF01892B19F41092AB0107C082
:10F8300086E04BCF83E2DF91CF910C94FCF8DF910F
:10F84000CF910895CF931092B80285E0EDEDF2E0EC
:10F85000DF011D928A95E9F740E051E06FEF70E01B
:10F8600088EB91E00E948EFC85B78093B401982FBD
:10F87000916095BF826085BF81E890E00E94C9F8E1
:10F88000789484E091E00E9411F90E94E2F890FDE2
:10F8900025C00E9411FA8130D9F08230F9F408C0F5
:10F8A000FC01E854FD4F80810E94BCFACF5F01C08B
:10F8B000C5E02091B5018C2F90E030E02C5F3F4FE8
:10F8C000281739076CF78FE091E00E9411F906C004
:10F8D0008091B501811102C0109201018091010156
:10F8E0008111D3CF82E191E00E9411F9BFEFE8E0EE
:10F8F000FDE3B150E040F040E1F700C0000085B703
:10F900008093B401982F916095BF8D7F85BFE0E013
:10F91000F0E0099580E090E0CF910895DC0101C00E
:0EF920006D9341505040E0F70895F894FFCFEA
:10F92E0001015000626F6F746C6F616465720062EA
:0CF93E0061007265736574204156520030
:040000031000F000F9
:00000001FF
