:020000021000EC
:10F000000C9446F80C9465F80C9465F80C9465F82B
:10F010000C9465F80C9465F80C9465F80C9465F8FC
:10F020000C9465F80C9465F80C9465F80C9465F8EC
:10F030000C9465F80C9437FC0C9465F80C9465F806
:10F040000C9465F80C9465F80C9465F80C9465F8CC
:10F050000C9467F80C949AF80C9465F80C9465F885
:10F060000C9465F80C9465F80C9465F80C9465F8AC
:10F070000C942BF90C945EF90C948DF90C9465F8B2
:10F080000C9465F80C9465F80C9465F811241FBE77
:10F09000CFEFD0E4DEBFCDBF11E0A0E0B1E0E4ED02
:10F0A000F9EF01E00BBF02C007900D92AA30B10743
:10F0B000D9F712E0AAE0B1E001C01D92A93CB10766
:10F0C000E1F70E9460FC0C94E8FC0C9400F81F929D
:10F0D0000F920FB60F9211240BB60F921BBE2F93F7
:10F0E0008F939F93EF93FF938091C0009091C60000
:10F0F0008871E0915101EF5FEF7120915001E217AB
:10F1000039F0E0935101F0E0EC5AFE4F908301C0DA
:10F1100082E090914F01982B90934F01FF91EF91D6
:10F120009F918F912F910F900BBE0F900FBE0F905C
:10F130001F9018951F920F920FB60F9211240BB6C5
:10F140000F921BBE8F939F93EF93FF939091530168
:10F1500080915201981769F0E0915201EF5FEF71D1
:10F16000E0935201F0E0EC58FE4F80818093C6009E
:10F1700005C08091C1008F7D8093C100FF91EF9108
:10F180009F918F910F900BBE0F900FBE0F901F900D
:10F190001895109253011092520110925101109241
:10F1A000500197FF04C022E02093C0009F77909306
:10F1B000C5008093C40088E98093C10086E08093F5
:10F1C000C20008959091510180915001981781F0EB
:10F1D000E0915001EF5FEF71E0935001F0E0EC5AE5
:10F1E000FE4F208180914F0110924F0130E002C00C
:10F1F00020E031E0C9010895909153019F5F9F7114
:10F20000209152019217E1F3E92FF0E0EC58FE4F04
:10F210008083909353018091C10080628093C100EC
:10F220000895CF93DF93EC0102C00E94FCF889910E
:10F230008111FBCFDF91CF910895CF93DF93EC0144
:10F2400002C00E94FCF8FE01219684918111F9CF41
:10F25000DF91CF9108951F920F920FB60F92112454
:10F260000BB60F921BBE2F938F939F93EF93FF9339
:10F270008091C8009091CE008871E0910C01EF5F01
:10F28000EF7120910B01E21739F0E0930C01F0E0EF
:10F29000E15FFE4F908301C082E090910A01982BBC
:10F2A00090930A01FF91EF919F918F912F910F9071
:10F2B0000BBE0F900FBE0F901F9018951F920F92CC
:10F2C0000FB60F9211240BB60F921BBE8F939F9314
:10F2D000EF93FF9390910E0180910D01981769F0C3
:10F2E000E0910D01EF5FEF71E0930D01F0E0E15D62
:10F2F000FE4F80818093CE0005C08091C9008F7D34
:10F300008093C900FF91EF919F918F910F900BBE59
:10F310000F900FBE0F901F9018951F920F920FB66F
:10F320000F9211248F939F9390910E0180910D0164
:10F33000981301C05C989F918F910F900FBE0F9012
:10F340001F90189510920E0110920D0110920C0151
:10F3500010920B0197FF04C022E02093C8009F7712
:10F360009093CD008093CC0088ED8093C90086E017
:10F370008093CA00089590910C0180910B01981719
:10F3800081F0E0910B01EF5FEF71E0930B01F0E092
:10F39000E15FFE4F208180910A0110924F0130E021
:10F3A00002C020E031E0C901089590910E019F5FF5
:10F3B0009F7120910D019217E1F3E92FF0E0E15DDB
:10F3C000FE4F808390930E015C9A8091C900806209
:10F3D0008093C9000895CF93DF93EC0102C00E948F
:10F3E000D5F989918111FBCFDF91CF910895CF930A
:10F3F000DF93EC0102C00E94D5F9FE0121968491B1
:10F400008111F9CFDF91CF910895FC0120E030E028
:10F4100018C09191492F40534A3058F0415146301D
:10F4200010F4975307C0492F4156463018F49755AA
:10F4300001C0942F44E0220F331F4A95E1F7290FB2
:10F44000311D9E2F981B961720F3C9010895E09156
:10F45000A401EF5FE093A401F0E0EC55FE4F808340
:10F460008091A401823071F018F48130F1F505C06B
:10F47000843019F18630C9F531C08091A5018236FA
:10F48000A1F118C09091A5019236A1F49091A60126
:10F49000983641F0933761F0913661F493E09093A0
:10F4A000A30103C08093A30184E08093A2011DC047
:10F4B00081E0F8CF1092A40118C062E087EA91E0E1
:10F4C0000E9405FA8093C1019091A301923069F4E2
:10F4D0009091A201980F9093A20107C062E089EA7F
:10F4E00091E00E9405FA8093C2018091A4018230CC
:10F4F00048F09091A201891305C01092A401809157
:10F50000A301089580E008951092A40181E890E09D
:10F510000E94A2F9549A08958F929F92AF92BF923F
:10F52000CF92DF92EF92FF920F931F93CF93DF93CF
:10F53000BFB6F894F999FECF23E0FB0180935B00FE
:10F5400020935700E89507B600FCFDCF00E010E0DF
:10F550009801A1E0FA01E00FF11FB0816801790183
:10F56000C60ED71EE81EF91EA180DA2DE0E0CE2FD0
:10F570004E018B0E911C0401F601E0925B00A093FA
:10F580005700E89511240E5F1F4F2F4F3F4F011575
:10F59000E1E01E0721053105E9F625E0FB01809336
:10F5A0005B0020935700E89507B600FCFDCF81E192
:10F5B00080935700E895BFBEDF91CF911F910F91C7
:10F5C000FF90EF90DF90CF90BF90AF909F908F9083
:10F5D0000895CF93DF9320910101213009F044C1B8
:10F5E00090919901933009F475C020F49130B9F0ED
:10F5F000D0F509C0953009F4FCC008F498C09630E5
:10F6000009F032C130C18A3309F02EC1209399012B
:10F610001092980110929D0110929C0125C1909129
:10F620009801E92FF0E0EC53FD4F8083892F8F5F25
:10F6300080939801823009F017C18093990110924C
:10F64000980162E084EC92E00E9405FA80939701B1
:10F6500020919C0130919D01280F311D30939D0117
:10F6600020939C0101C190919801E92FF0E0EC53A7
:10F67000FD4F8083892F8F5F80939801843009F03C
:10F68000F3C083E0809399011092980164E084ECC8
:10F6900092E00E9405FA9093A1018093A00120912D
:10F6A0009C0130919D01280F311D492F5527240FB2
:10F6B000351F30939D0120939C012091000122234E
:10F6C00009F4D2C0882790939F0180939E011092E5
:10F6D0000001CAC090919801E92FF0E0EC53FD4F72
:10F6E0008083892F8F5F80939801823009F0BCC09E
:10F6F000109298011092960162E084EC92E00E94D0
:10F7000005FA8093950120919C0130919D01280F6D
:10F71000311D30939D0120939C01882331F081306D
:10F7200021F485E0809399019FC084E0FBCF909104
:10F730009801E92FF0E0EC53FD4F8083892F8F5F14
:10F7400080939801823009F08FC010929801C09187
:10F750009A01D0919B0162E084EC92E00E9405FA4C
:10F76000CC53DE4F888320919A0130919B01F9019F
:10F77000EC53FE4F408180919C0190919D01840F3C
:10F78000911D90939D0180939C01C90101969093D6
:10F790009B0180939A01209196012F5F20939601FF
:10F7A00030919701231307C025E02093990110920F
:10F7B0009601109298018115914009F055C0609111
:10F7C0009E0170919F0180E090E044EC51E00E9426
:10F7D0008CFA40E051E06FEF70E084EC91E00E9421
:10F7E000E1FC10929B0110929A0181E0809300014C
:10F7F0003BC090919801E92FF0E0EC53FD4F8083DE
:10F80000892F8F5F80939801823071F562E084ECDC
:10F8100092E00E9405FA8093940120919C0130911E
:10F820009D01280F311D332730939D0120939C01AA
:10F8300080919501813061F460919E0170919F01EA
:10F8400080E090E044EC51E00E948CFA10920101BB
:10F8500080919C0190919D01892B19F4109299013E
:10F8600003C086E05FCF0E9ADF91CF9108951F927B
:10F870000F920FB60F9211240BB60F921BBE8F93EF
:10F88000EF93FF93EFE6F0E010827894F89482E033
:10F890008083FF91EF918F910F900BBE0F900FBE61
:10F8A0000F901F90189584E395E0909389008093C2
:10F8B000880089E08093810082E080936F00089542
:10F8C000CF939FB7F89485B78093C301282F216009
:10F8D00025BF826085BF9FBF82B1806E82B90D9ABD
:10F8E0000E980F9A0E9484FA5C980E9453FC85E05F
:10F8F000E4ECF2E0DF011D928A95E9F740E051E087
:10F900006FEF70E084EC91E00E94E1FC789482E07B
:10F9100091E00E94EBF90E94BBF990FD35C00E9476
:10F9200027FA813021F1823079F508C0FC01EC55CD
:10F93000FE4F80810E94E9FACF5F01C0C5E08C2FA5
:10F9400090E02091C10130E02C5F3F4F281739072C
:10F950006CF787E091E00E94EBF980919901882390
:10F9600011F0863011F40F980FC00F9A0DC08091DE
:10F97000C101811103C01092010106C0823021F43F
:10F9800082E091E00E94EBF9809101018111C3CFE7
:10F99000BFEFE8E0FDE3B150E040F040E1F700C028
:10F9A0000000F89485B78093C301982F916095BFAC
:10F9B0008D7F85BFE0E0F0E0099580E090E0CF9199
:10F9C0000895DC0101C06D9341505040E0F7089567
:04F9D000F894FFCFD9
:0AF9D400010162733032006261002D
:040000031000F000F9
:00000001FF
