:100000000C946B010C948A010C948A010C948A0163
:100010000C948A010C948A010C948A010C948A0134
:100020000C948A010C948A010C948A010C948A0124
:100030000C948A010C94F3090C948A010C948A01A3
:100040000C948A010C948A010C948A010C948A0104
:100050000C948C010C94BE010C948A010C948A01BE
:100060000C948A010C948A010C948A010C948A01E4
:100070000C9456020C9488020C946B060C948A0122
:100080000C94EA070C948A010C948A0102050C1165
:1000900022050C050C001010202001010002050CA7
:1000A0001122050C050C00000000000101000000F9
:1000B0000000010001000100010002000200020036
:1000C0000200030003000300040004000400050014
:1000D00005000500060006000600070007000700EF
:1000E000080008000800090009000A000A000A00C8
:1000F0000B000B000C000C000D000D000E000E009C
:100100000F000F001000100011001100120012006B
:100110001300130014001400150016001600170039
:1001200017001800190019001A001B001C001C0001
:100130001D001E001E001F002000210022002200C2
:10014000230024002500260027002800280029007D
:100150002A002B002C002D002E002F003000310033
:1001600032003400350036003700380039003B00DB
:100170003C003D003E00400041004200440045007C
:100180004600480049004B004C004E004F00510013
:10019000530054005600580059005B005D005F009A
:1001A000600062006400660068006A006C006E0017
:1001B000700072007500770079007B007E0080007F
:1001C0008200850087008A008D008F0092009400D5
:1001D00097009A009D00A000A300A600A900AC0013
:1001E000AF00B200B500B900BC00BF00C300C6003C
:1001F000CA00CE00D100D500D900DD00E100E50045
:10020000E900ED00F100F600FA00FE00030107012D
:100210000C01110116011B01200125012A012F01EA
:1002200034013A013F0145014B01510156015C0186
:10023000630169016F0176017C01830189019001ED
:1002400097019E01A601AD01B401BC01C401CB011F
:10025000D301DC01E401EC01F501FD0106020F020E
:10026000180221022B0234023E02480252025C02B2
:10027000670271027C02870292029D02A902B50206
:10028000C102CD02D902E502F202FF020C031A03F9
:10029000270335034303510360036E037D038D037E
:1002A0009C03AC03BC03CC03DD03EE03FF0300207F
:1002B000A0160010500B0008A8050004D40200028C
:1002C0006A010001B50080005A0040002D002000A6
:1002D000160010000B0011241FBECFEFD0E4DEBFCC
:1002E000CDBF11E0A0E0B1E0E6E4F7E100E00BBF34
:1002F00002C007900D92A23BB107D9F712E0A2EB22
:10030000B1E001C01D92A03EB107E1F70E94350A9D
:100310000C94A10B0C9400001F920F920FB60F9239
:100320000BB60F9211242F938F939F93EF93FF930C
:100330009091C0008091C600E0911A02EF5FEF71CA
:1003400020911B02E21741F09871E0931A02F0E04D
:10035000E45EFD4F808301C092E08091F701892B1C
:100360008093F701FF91EF919F918F912F910F90C3
:100370000BBE0F900FBE0F901F9018951F920F92FB
:100380000FB60F920BB60F9211248F939F93EF939A
:10039000FF939091F8018091F901981769F0E0912D
:1003A000F901EF5FEF71E093F901F0E0E650FE4FE5
:1003B00080818093C60005C08091C1008F7D8093AD
:1003C000C100FF91EF919F918F910F900BBE0F9005
:1003D0000FBE0F901F9018951092F8011092F9011E
:1003E00010921A0210921B0297FF04C022E0209381
:1003F000C0009F779093C5008093C40088E98093E4
:10040000C10086E08093C200089590911A02809105
:100410001B02981781F0E0911B02EF5FEF71E093F0
:100420001B02F0E0E45EFD4F20818091F701109205
:10043000F70130E002C020E031E0C9010895909159
:10044000F8019F5F9F712091F9019217E1F3E92F65
:10045000F0E0E650FE4F80839093F8018091C10058
:1004600080628093C1000895EF92FF92CF93DF9353
:10047000E82EE7017E01F92EE70102C00E941F026B
:1004800089918823D9F7DF91CF91FF90EF9008955C
:10049000CF93DF93EC0102C00E941F02FE01219660
:1004A00084918823C9F7DF91CF9108951F920F920D
:1004B0000FB60F920BB60F9211242F938F939F9329
:1004C000EF93FF939091C8008091CE00E091D4010A
:1004D000EF5FEF712091D501E21741F09871E09341
:1004E000D401F0E0EA52FE4F808301C092E0809197
:1004F000F601892B8093F601FF91EF919F918F91E7
:100500002F910F900BBE0F900FBE0F901F9018955C
:100510001F920F920FB60F920BB60F9211248F936A
:100520009F93EF93FF939091B2018091B30198173D
:1005300069F0E091B301EF5FEF71E093B301F0E098
:10054000EC54FE4F80818093CE0005C08091C9009D
:100550008F7D8093C900FF91EF919F918F910F90B4
:100560000BBE0F900FBE0F901F9018951092B20106
:100570001092B3011092D4011092D50197FF04C0DC
:1005800022E02093C8009F779093CD008093CC0009
:1005900088E98093C90086E08093CA00089590910D
:1005A000D4018091D501981781F0E091D501EF5FDA
:1005B000EF71E093D501F0E0EA52FE4F2081809187
:1005C000F6011092F70130E002C020E031E0C901ED
:1005D00008959091B2019F5F9F712091B30192178E
:1005E000E1F3E92FF0E0EC54FE4F80839093B201E9
:1005F0008091C90080628093C9000895EF92FF92B4
:10060000CF93DF93E82EE7017E01F92EE70102C0C8
:100610000E94E90289918823D9F7DF91CF91FF9059
:10062000EF900895CF93DF93EC0102C00E94E9029E
:10063000FE01219684918823C9F7DF91CF91089517
:100640006091410270914B02671730F190914C021A
:10065000691710F54091510290E020913F023091CE
:100660004002442381F0462F50E0471B510902C04D
:10067000880F991F4A95E2F7822B932B90934002A3
:1006800080933F0232C0220F331F282B392B309327
:10069000400220933F0229C070914D02671728F154
:1006A00090914E02691708F54091510290E0209117
:1006B0003D0230913E02442381F0462F50E0471B1B
:1006C000510902C0880F991F4A95E2F7822B932B9C
:1006D00090933E0280933D0208C0220F331F282BC7
:1006E000392B30933E0220933D026F5F60934102AD
:1006F0000895299821980895FC0180913C0288234F
:10070000B9F1809154028230A9F5809157029091FD
:1007100058022091570230915802892F992720952D
:100720003095307082179307A9F08091550290910F
:10073000560227E88E3E9207B9F48BE0809354026C
:100740008091570290915802892F992790935602D1
:100750008093550280915702909158029070909327
:1007600058028093570206C080E010923C02089520
:1007700080E0089580915402808380915502909189
:1007800056029283818380915702909158029483FC
:1007900083838091530285831092580210925702EE
:1007A00010925602109255021092530281E0DDCF52
:1007B00083B190913C02992309F08CC18270909191
:1007C0006002992371F590915D02882321F49F5F67
:1007D00090935D027FC19923A9F081E0809360022C
:1007E00080935E0210925F0210923E0210923D02D0
:1007F0001092400210923F029FEF9093410280932B
:100800005C0268C180915A0290915B022FEF8F3F8A
:10081000920709F45FC1019690935B0280935A029C
:1008200059C190915E029923D9F1882349F08091B2
:100830005C028F5F80935C028A3E08F4A9C066C0A8
:1008400080915D028E55843568F480915C0290E061
:100850008E32910524F08A3591054CF003C0873122
:10086000910544F41092600260E070E005C06CE80D
:1008700070E002C06DE970E080916002882331F081
:1008800082E492E041E150E00E94980B1092410214
:1008900081E080935D0210925C0210925E0278C04B
:1008A00090915F02992309F466C0882309F415C169
:1008B0004091410280914F02481789F49091500273
:1008C000913069F480915D02909147028917F0F0B0
:1008D000909148029817D0F01092500259C0909110
:1008E0005C029F5F90935C029A3E08F451C0242FF3
:1008F00030E090E001972817390741F480915002C9
:10090000882321F44F5F4093410242C0109260025D
:1009100010925D0210925C023BC0909144029817C5
:1009200060F090915C0220914502921730F0209186
:100930004602291710F081E013C0909147028917F1
:10094000A0F090914802981780F080915C029091FD
:100950004902891750F090914A02981730F080E0D0
:100960000E94200310925F0204C010926002109255
:100970005C0281E005C0882331F480915D028F5FC5
:1009800080935D0205C081E080935F0280935C02EA
:1009900080916002882309F49DC0509141028091AA
:1009A0004F02581709F096C080915002882309F031
:1009B00091C0809100019091010120913D02309100
:1009C0003E028217930771F420915A0230915B0224
:1009D00044E0203B340730F4209159022F5F2093EC
:1009E000590202C01092590221E020933C0240912A
:1009F0004202423011F5552301F520915A023091FF
:100A00005B0257E028303507B0F4209102013091A5
:100A100003013093400220933F0290933E02809363
:100A20003D028091530281608093530210925B02D9
:100A300010925A0202C010923C02409354028091DC
:100A40003F029091400290935602809355024230AB
:100A500021F4909303018093020120913D02309193
:100A60003E02309358022093570240913C024423A7
:100A700039F1409100015091010142175307A1F44F
:100A800040910201509103014817590769F44091C0
:100A90005A0250915B0268E04A3C560728F44091A4
:100AA00053024160409353029093030180930201EB
:100AB000309301012093000110925B0210925A02C0
:100AC0001092600210923E0210923D0210925D025E
:100AD00010925C0280913C02089580915D02909199
:100AE0004302891708F019CF28CF282F392FF90191
:100AF00020E030E090E019C08191482F40534A3007
:100B000058F04151463010F4875307C0482F4156E2
:100B1000463018F4875501C0842F44E0220F331F5C
:100B20004A95E1F7280F311D9F5F961728F3C901F9
:100B300008951F93182F0E941F0280919002805DDC
:100B40000E941F0280918902805D0E941F02E09135
:100B50009002EF5FE0939002F0E0E057FD4F1083CA
:100B6000809190028230A1F0833020F4813009F02E
:100B700050C006C08430A9F1863009F04AC042C096
:100B800080919102823609F444C08C3639F541C017
:100B900090919102923619F09C3601F514C0909113
:100BA0009202983641F0933749F09136B9F493E0C8
:100BB00090938C0210C080938C022BC081E08093B4
:100BC0008C0284E008C080919202833739F487E078
:100BD00080938C0286E0809389021BC01092900261
:100BE00018C083E992E062E00E94750580938F024D
:100BF00090918C02923069F490918902980F9093B1
:100C0000890207C085E992E062E00E947505809341
:100C1000AD0280919002823048F09091890289174C
:100C200029F41092900280918C0201C080E01F9103
:100C30000895E0919002EF5FE0939002F0E0E057BA
:100C4000FD4F808380919002823049F0843011F111
:100C5000813081F5809191028236C9F42BC0909148
:100C600091029236A1F490919202933711F481E0AF
:100C700002C0983621F480938C0284E005C091363E
:100C8000C9F493E090938C028093890213C0109270
:100C9000900210C083E992E062E00E9475058093A3
:100CA0008F0290918C02923029F490918902980FD2
:100CB0009093890280919002823048F0909189024D
:100CC000891739F41092900280918C02089580E087
:100CD000089580E008951F920F920FB60F9211248D
:100CE0002C980F900FBE0F901F90189510929002A5
:100CF00081E890E00E94EC0110926C0281E890E0A3
:100D00000E94B6022C9AE9ECF0E080818064808336
:100D1000089580910501909106012091070130917D
:100D200008013093060120930501909308018093F8
:100D300007018091090190910A0120910B013091E6
:100D40000C0130930A012093090190930C018093C8
:100D50000B0108951F93CF93DF932BEB32E0ACECA4
:100D6000B2E0ED0180E090E070E060E20196E09199
:100D70000B01F0910C01E80FF91F462F40954083BD
:100D8000F90141919F01E42FF0E0EE0FFF1FE255C2
:100D9000FF4F45915491499359934115510509F0DD
:100DA000762B8330910511F0660FE0CFE0910B01B7
:100DB000F0910C01708380E090E040C0E62FF0E0FD
:100DC000EE0FFF1FE653FD4F40815181421753073D
:100DD00010F49A01162F6F5F643080F3171741F1FA
:100DE000212F30E0F901EE0FFF1FE653FD4F408148
:100DF00051816D917C9111977183608311965C9301
:100E00004E9340910B0150910C01FA01E20FF31F38
:100E100060819C012F5F3F4F420F531FEA014881C1
:100E20004083E0910B01F0910C01E20FF31F60830E
:100E3000019612968330910509F45FC0782F7F5F89
:100E4000172F672F2FEF33E0C7CF009789F020913E
:100E50000B0130910C018E2F90E0DC011196A20F56
:100E6000B31F820F931F2C91EC01888128232C93B0
:100E70004E2F1BC0842F90E0DC01AA0FBB1FA6538E
:100E8000BD4FEC01CC0FDD1FC453DD4F28813981EC
:100E90002D933C93A0910B01B0910C01A80FB91FA9
:100EA00011968C9111978C934F5F411718F3115045
:100EB000AE2FB0E0ED01CC0FDD1FC653DD4F8881B2
:100EC0009981AA0FBB1FA453BD4F2D913C9111973F
:100ED0008217930711F0009719F4E11708F4B5CFC2
:100EE000EF5FE11728F3F0E0EE0FFF1FE653FD4F31
:100EF00080819181009729F403C0E1E013E0D8CF0D
:100F00001150E0910701F0910801112341F480E0B4
:100F100090E3918380839383828311E04BC0812F80
:100F200090E0880F991FEF01C80FD91FDC01A6536D
:100F3000BD4F4D915C91119788EE9FEF489F9001B6
:100F4000499F300D589F300D11242050304A39836D
:100F500028832D913C911197412F1EC0842F90E042
:100F6000880F991FEF01C80FD91FDC01A653BD4F91
:100F70008D919C911197281B390BC901880F991FDE
:100F8000820F931F53E0880F991F5A95E1F79983B9
:100F900088832D913C911197415001F7C901880F29
:100FA000991F820F931F23E0880F991F2A95E1F75D
:100FB000918380831092B2028091B2028823E1F380
:100FC000F8940E948906109304017894DF91CF91E0
:100FD0001F9108951F920F920FB60F920BB60F92AA
:100FE00011242F933F934F935F936F938F939F930E
:100FF000EF93FF9380919800909199006091610226
:10100000262F30E0A901440F551FE0910501F09112
:101010000601E40FF51F40815181840F951F9093C5
:10102000990080939800E0910901F0910A01E20F84
:10103000F31F9081662329F492B981E080936102C5
:1010400010C082B1892382B980910401681731F4FC
:1010500081E08093B2021092610203C06F5F6093DF
:1010600061022F9895B182B18078892B85B9FF9163
:10107000EF919F918F916F915F914F913F912F9140
:101080000F900BBE0F900FBE0F901F9018958FEF13
:1010900081B984B982E080939100E1E7F0E080813A
:1010A000826080830895823069F08330B1F08130AE
:1010B000F1F4109214011092130160936202609394
:1010C000BC0208C0109214011092130160936302D5
:1010D0006093BB020E94AA06089510921401109218
:1010E0001301609364026093BD020E94AA060895F2
:1010F000E0911101A0911201EA17F9F0B0E0AA0FF6
:10110000BB1FA255BD4FF0E0EE0FFF1FE255FD4F94
:101110008D919C91608171810E94620B20910F01E1
:1011200030911001269FC001279F900D369F900D92
:1011300011249093100180930F0180910F019091E1
:10114000100122273327281B390B3093DD0220930F
:10115000DC02E091650223E0E29FF0011124DF014F
:10116000A55CBE4F2C9130916202321710F441E021
:1011700001C04FEF4093D302413011F4231B02C052
:10118000321B232F2093D20230E0281B390B3093DF
:10119000DF022093DE02DF01A55CBE4F11962C9189
:1011A000119730916302321710F441E001C04FEF04
:1011B0004093D702413011F4231B02C0321B232F6E
:1011C0002093D60230E0281B390B3093D9022093AC
:1011D000D802E55CFE4F228130916402321710F490
:1011E00041E001C04FEF4093D502413011F4231B81
:1011F00002C0321B232F2093D40230E0281B390B6E
:101200003093DB022093DA020895E0916502EF5FEC
:10121000E0936502E43148F4F0E0EE0FFF1FED5E6D
:10122000FE4F80819181009779F410926502809140
:10123000130190911401009739F48FEF9FEF909371
:10124000100180930F010895E0911101F0E0EE0F7D
:10125000FF1FE255FD4F85919491E0916502F0E00A
:10126000EE0FFF1FED5EFE4F40815181849F900184
:10127000859F300D949F300D112430930F011092F3
:1012800010010E9478080895EF92FF920F931F9328
:10129000CF93DF9380910F0190911001019790936C
:1012A000100180930F01009711F40E9405098091AD
:1012B000130190911401009709F48EC08091DC0213
:1012C0009091DD02F090D302009162024091DE0223
:1012D0005091DF02FC01EE0FFF1FBA01660F771F6E
:1012E00010E022273327281B390B220F331F02C09F
:1012F0000E2D11E0DA01E02EEF0C480F591F6E0F92
:101300007F1FEB01C20FD31F8C179D078CF3009337
:1013100062024091D202BD01640F711D7093DF0221
:101320006093DE02F090D702009163024091D802F0
:101330005091D902BA01660F771F02C00E2D11E03D
:10134000DA01E02EEF0C480F591F6E0F7F1FEB01E3
:10135000C20FD31F8C179D078CF30093630240913B
:10136000D602BD01640F711D7093D9026093D8023B
:10137000F090D502009164024091DA025091DB02B4
:10138000BA01660F771F02C00E2D11E0DA01E02EC0
:10139000EF0C480F591F6E0F7F1FEB01C20FD31FB9
:1013A0008C179D078CF3009364028091D4029D01F9
:1013B000280F311D3093DB022093DA02112361F0F4
:1013C000809162028093BC02809163028093BB0291
:1013D0000093BD020E94AA06DF91CF911F910F9149
:1013E000FF90EF9008951F920F920FB60F920BB6D9
:1013F0000F9211242F933F934F935F936F937F939B
:101400008F939F93AF93BF93EF93FF930E94D80363
:1014100080916602982F9F5F90936602863928F02C
:1014200081E080936B0210926602FF91EF91BF9171
:10143000AF919F918F917F916F915F914F913F916C
:101440002F910F900BBE0F900FBE0F901F9018950D
:1014500084E395E0909389008093880089E08093ED
:10146000810082E080936F0008952F923F924F9207
:101470005F926F927F928F929F92AF92BF92CF9224
:10148000DF92EF92FF920F931F93DF93CF9300D0E1
:1014900000D000D0CDB7DEB70E9479030E94760657
:1014A0000E94280A0E94470878948FE78093BC0224
:1014B0001092BB021092BD020E94AA0634EF232EA6
:1014C00031E0332E412C512C3E010894611C711CDB
:1014D00020E1E22E27E2F22E0AE010E098EEA92E9B
:1014E00093E0B92E84E6882E912C80916B0288239C
:1014F00061F110926B028091670290916802A09155
:101500006902B0916A020196A11DB11D8093670224
:1015100090936802A0936902B0936A020E94440902
:1015200060916702709168028091690290916A02ED
:10153000A20191010E94760B613071058105910530
:1015400021F487E791E00E9434020E9405026C01B9
:1015500090FD2DC08D2D0E941F028C2D0E941F0218
:101560008C2D0E949905813019F0873001F515C046
:1015700080918F028130D9F484E991E00E94340295
:101580008FEF98E0ADE381509040A040E1F700C0BC
:101590000000E0E0F0EF09950AC080918F026091B1
:1015A000AD020E94530885EA91E00E9434020E9435
:1015B000CF0290FD02C00E941906C3010E947C0365
:1015C000882309F492CF8FEA91E00E943402898146
:1015D000805D0E941F028AE30E941F028A819B8114
:1015E000B7010E94620BCB01B8010E94620B805DC3
:1015F0000E941F028A819B81B5010E94620BCB0170
:10160000B8010E94620B805D0E941F028A819B814B
:10161000B4010E94620BCB01B8010E94620B805D95
:101620000E941F028A819B81B8010E94620BCB013C
:10163000B8010E94620B805D0E941F028A819B811B
:10164000B8010E94620B805D0E941F028AE30E9423
:101650001F028C819D81B7010E94620BCB01B801F2
:101660000E94620B805D0E941F028C819D81B501EA
:101670000E94620BCB01B8010E94620B805D0E9448
:101680001F028C819D81B4010E94620BCB01B801C5
:101690000E94620B805D0E941F028C819D81B801B7
:1016A0000E94620BCB01B8010E94620B805D0E9418
:1016B0001F028C819D81B8010E94620B805D0E9497
:1016C0001F0213CFAA1BBB1B51E107C0AA1FBB1FE0
:1016D000A617B70710F0A61BB70B881F991F5A95BE
:1016E000A9F780959095BC01CD010895A1E21A2E2D
:1016F000AA1BBB1BFD010DC0AA1FBB1FEE1FFF1FB6
:10170000A217B307E407F50720F0A21BB30BE40B05
:10171000F50B661F771F881F991F1A9469F760954C
:101720007095809590959B01AC01BD01CF01089506
:10173000FB01DC0102C005900D9241505040D8F7EA
:061740000895F894FFCFAC
:10174600FFFFFFFF01BE02B302AE02C602FFFF01AA
:10175600000808640064006400640064000000007F
:101766000000000000000000000000000000000073
:101776000000000000000000000000000000003F24
:1017860000007F3F3F3F003F0000000000000000D8
:101796000000000000000000000000000000000043
:1017A6000000000000000000000000000000000033
:1017B600000000000000000A6769746875622E6305
:1017C6006F6D2F426F6D616E2F6C656444696D6D30
:1017D60065720A00737461727420426F6F746C6F65
:1017E6006164657200536574204C696768740069AA
:0217F60072007F
:00000001FF
