:100000000C94BB010C94DA010C94DA010C94DA0123
:100010000C94DA010C94DA010C94DA010C94DA01F4
:100020000C94DA010C94DA010C94DA010C94DA01E4
:100030000C94DA010C947D080C94DA010C94DA012A
:100040000C94DA010C94DA010C94DA010C94DA01C4
:100050000C94DC010C940F020C94DA010C94DA017C
:100060000C94DA010C94DA010C94DA010C94DA01A4
:100070000C94A0020C94D3020C9408040C94DA01A2
:100080000C9474050C94DA010C94DA010000000061
:100090000100010001000100020002000200020054
:1000A0000300030003000400040004000500050031
:1000B000050006000600060007000700070008000C
:1000C00008000800090009000A000A000A000B00E5
:1000D0000B000C000C000D000D000E000E000F00B8
:1000E0000F00100010001100110012001200130088
:1000F0001300140014001500160016001700170056
:100100001800190019001A001B001C001C001D001B
:100110001E001E001F0020002100220022002300DC
:1001200024002500260027002800280029002A0096
:100130002B002C002D002E002F003000310032004B
:100140003400350036003700380039003B003C00F1
:100150003D003E0040004100420044004500460092
:10016000480049004B004C004E004F005100530026
:1001700054005600580059005B005D005F006000AD
:1001800062006400660068006A006C006E00700027
:1001900072007500770079007B007E00800082008D
:1001A000850087008A008D008F00920094009700E0
:1001B0009A009D00A000A300A600A900AC00AF001B
:1001C000B200B500B900BC00BF00C300C600CA0041
:1001D000CE00D100D500D900DD00E100E500E90046
:1001E000ED00F100F600FA00FE00030107010C012A
:1001F000110116011B01200125012A012F013401E3
:100200003A013F0145014B01510156015C01630177
:1002100069016F0176017C018301890190019701D9
:100220009E01A601AD01B401BC01C401CB01D30103
:10023000DC01E401EC01F501FD0106020F021802E8
:1002400021022B0234023E02480252025C02670283
:1002500071027C02870292029D02A902B502C102CC
:10026000CD02D902E502F202FF020C031A032703B2
:1002700035034303510360036E037D038D039C0329
:10028000AC03BC03CC03DD03EE03FF030020A01688
:100290000010500B0008A8050004D40200026A01F7
:1002A0000001B50080005A0040002D00200016001B
:1002B00010000B0064006400640001006400010091
:1002C000640001006400010064000100640001009A
:1002D000640001006400010064000100640001008A
:1002E00064000100640001006400640064006400B4
:1002F0006400640064006400640064006400FFFF44
:10030000FFFFFFFF000000FFFFFFFFFFFF000000F7
:10031000000000FF0000FF000000FF0000FF0000E1
:1003200000FF0000FFFFFFFFFFFFFFFFFFFFFFFFDA
:10033000FFFFFFFFFFFFFFFFFFFFFFFFFFFFFFFFCD
:10034000FFFFFFFFFFFFFFFFFFFFFFFFFFFFFFFFBD
:10035000000000FF000000FFFFFFFFFFFFFFFFFFA7
:10036000FFFFFFFFFFFFFFFFFFFFFFFFFF00010396
:10037000070D1B1E250011241FBECFEFD0E4DEBFEA
:10038000CDBF11E0A0E0B1E0E2E7F2E100E00BBF99
:1003900002C007900D92AC32B107D9F712E0ACE27F
:1003A000B1E001C01D92A333B107E1F70E94D2086A
:1003B0000C9437090C9400001F920F920FB60F9205
:1003C00011240BB60F921BBE2F938F939F93EF9325
:1003D000FF938091C0009091C6008871E0917301F5
:1003E000EF5FEF7120917201E21739F0E093730132
:1003F000F0E0EA58FE4F908301C082E090917101D5
:10040000982B90937101FF91EF919F918F912F9174
:100410000F900BBE0F900FBE0F901F9018951F925C
:100420000F920FB60F9211240BB60F921BBE8F9333
:100430009F93EF93FF9390917501809174019817AA
:1004400069F0E0917401EF5FEF71E0937401F0E007
:10045000EA56FE4F80818093C60005C08091C1009E
:100460008F7D8093C100FF91EF919F918F910F90AD
:100470000BBE0F900FBE0F901F9018951092750134
:1004800010927401109273011092720197FF04C0D0
:1004900022E02093C0009F779093C5008093C40012
:1004A00088E98093C10086E08093C200089590910E
:1004B000730180917201981781F0E0917201EF5FF2
:1004C000EF71E0937201F0E0EA58FE4F20818091D5
:1004D00071011092710130E002C020E031E0C901E9
:1004E0000895909175019F5F9F71209174019217FB
:1004F000E1F3E92FF0E0EA56FE4F80839093750117
:100500008091C10080628093C1000895CF93DF93F2
:10051000EC0102C00E94710289918111FBCFDF9131
:10052000CF910895CF93DF93EC0102C00E94710236
:10053000FE01219684918111F9CFDF91CF91089529
:100540001F920F920FB60F9211240BB60F921BBE83
:100550002F938F939F93EF93FF938091C800909177
:10056000CE008871E0912E01EF5FEF7120912D0197
:10057000E21739F0E0932E01F0E0EF5CFE4F90833C
:1005800001C082E090912C01982B90932C01FF9157
:10059000EF919F918F912F910F900BBE0F900FBEF7
:1005A0000F901F9018951F920F920FB60F92112463
:1005B0000BB60F921BBE8F939F93EF93FF93909177
:1005C000300180912F01981769F0E0912F01EF5FC2
:1005D000EF71E0932F01F0E0EF5AFE4F808180939E
:1005E000CE0005C08091C9008F7D8093C900FF9126
:1005F000EF919F918F910F900BBE0F900FBE0F90B8
:100600001F9018951092300110922F0110922E0118
:1006100010922D0197FF04C022E02093C8009F771D
:100620009093CD008093CC0088E98093C90086E048
:100630008093CA00089590912E0180912D01981702
:1006400081F0E0912D01EF5FEF71E0932D01F0E07B
:10065000EF5CFE4F208180912C011092710130E0FF
:1006600002C020E031E0C9010895909130019F5F00
:100670009F7120912F019217E1F3E92FF0E0EF5ADB
:10068000FE4F8083909330018091C90080628093F7
:10069000C9000895CF93DF93EC0102C00E94350397
:1006A00089918111FBCFDF91CF910895CF93DF9393
:1006B000EC0102C00E943503FE0121968491811154
:1006C000F9CFDF91CF9108958A3010F4805D0895BD
:1006D000895C0895FC0120E030E018C09191492F19
:1006E00040534A3058F04151463010F4975307C0F8
:1006F000492F4156463018F4975501C0942F44E0D5
:10070000220F331F4A95E1F7290F311D9E2F981BA9
:10071000961720F3C9010895A2EEB1E0EC91EF5FC6
:10072000EC93F0E0EA0FFB1F808380E00895E091F6
:10073000BF01EF5FE093BF01F0E0E154FE4F808323
:100740008091BF018230A1F020F4813009F051C0C6
:1007500006C08430B1F1863009F04BC043C08091AF
:10076000C001823609F445C08C3609F442C026C067
:100770009091C001923619F09C3601F514C0909109
:10078000C101983641F0933749F09136B9F493E0BE
:100790009093DD0110C08093DD012BC081E0809338
:1007A000DD0184E008C08091C101833739F487E01E
:1007B0008093DD0186E08093E1011BC01092BF01B0
:1007C00018C062E082EC91E00E946A038093DF012E
:1007D0009091DD01923069F49091E101980F90932E
:1007E000E10107C062E084EC91E00E946A0380931B
:1007F000E0018091BF01823048F09091E1018913BE
:1008000005C01092BF018091DD01089580E0089538
:100810001F920F920FB60F9211240F900FBE0F90E0
:100820001F9018951092E20181E890E00E943E022C
:100830001092BF0181E890E00E940203549A08954B
:1008400080910601909107012091040130910501EA
:1008500030930701209306019093050180930401D2
:1008600080910201909103012091000130910101DA
:1008700030930301209302019093010180930001C2
:1008800008951F93CF93DF93CEE0D2E0AFE1B2E0C3
:100890009D0181E090E070E060E2E0910001F09164
:1008A0000101E80FF91F462F40954083E991F0E0E0
:1008B000EE0FFF1FE457FF4F45915491F90141930B
:1008C00051939F01452B09F0762B660F01968430DA
:1008D000910519F7E0910001F0910101708381E029
:1008E00090E03CC0E52FF0E0EE0FFF1FE35EFD4F10
:1008F000608171816217730710F49B01452F5F5F60
:10090000543080F34C1721F150E0FA01EE0FFF1F35
:10091000E35EFD4F208131816D917C911197718350
:10092000608311963C932E93209100013091010138
:10093000F901E40FF51F4081E901C80FD91F288193
:100940002083E0910001F0910101E80FF91F40833D
:10095000129601968430910509F457C0C82F482F8C
:10096000582F2FEF33E0BECF232B71F020910001E1
:1009700030910101D901A40FB51FE901C80FD91F9A
:100980002C91888128232C934E2F1BC0842F90E01C
:10099000DC01AA0FBB1FA15EBD4F2D913C91DC0174
:1009A000AA0FBB1FA35EBD4F2D933C93A0910001E6
:1009B000B0910101A80FB91F11968C9111978C93DA
:1009C0004F5F411718F311508E2F90E0DC01AA0FF2
:1009D000BB1FA35EBD4F2D913C91AC014F5F5F4F9C
:1009E000DA01AA0FBB1FA35EBD4F6D917C91261744
:1009F000370721F0232B09F46FC003C0E11708F477
:100A0000B3CFEF5FE11700F303C0E1E013E0DCCF09
:100A1000F0E0EE0FFF1FE35EFD4F80819181892B97
:100A200009F41150E0910401F0910501111108C081
:100A300080E090E3918380839383828311E03FC0C1
:100A4000812F90E0880F991FEF01C80FD91FDC019B
:100A5000A35EBD4F2D913C91119748EE4203C0011A
:100A6000439F900D1124905A998388832D913C9136
:100A7000412F415058E119C0842F90E0880F991FF1
:100A8000EF01C80FD91FDC01A35EBD4F8D919C9172
:100A90001197281B390B529FC001539F900D1124B1
:100AA000998388832D913C9141504111E5CF48E1D4
:100AB000429FC001439F900D112491838083109227
:100AC0000502809105028823E1F3F8940E94200436
:100AD00010930801789404C0E11708F455CF91CF22
:100AE000DF91CF911F9108951F920F920FB60F9231
:100AF00011240BB60F921BBE2F933F934F935F931E
:100B00006F938F939F93EF93FF93809198009091B1
:100B100099006091B601262F30E0A901440F551FBE
:100B2000E0910601F0910701E40FF51F408151812A
:100B3000840F951F9093990080939800E091020193
:100B4000F0910301E20FF31F9081611105C092B98A
:100B500081E08093B60110C082B1892382B980916F
:100B60000801681306C081E0809305021092B60167
:100B700003C06F5F6093B601FF91EF919F918F91DA
:100B80006F915F914F913F912F910F900BBE0F90FE
:100B90000FBE0F901F90189580EE81B982E0809370
:100BA0009100E1E7F0E08081826080830895653004
:100BB00029F130F4633091F0C8F46230F1F506C0E9
:100BC000673061F118F16830C1F52FC097E0899F57
:100BD000F0011124E45FFE4F8481089597E0899F1E
:100BE000F0011124E45FFE4F8581089597E0899F0D
:100BF000F0011124E45FFE4F8681089597E0899FFC
:100C0000F0011124E45FFE4F8181089597E0899FF0
:100C1000F0011124E45FFE4F80810895689FF00188
:100C20001124E45FFE4F8281089597E0899FF001CF
:100C30001124E45FFE4F8381089580E00895CF93EF
:100C4000C091160140910901C41721F18C2F90E049
:100C5000880F991F84579D4FFC0125913491E42FF3
:100C6000F0E0EE0FFF1FE457FD4F65917491409146
:100C70000A0150910B01249FC001259F900D349FC4
:100C8000900D11240E94230970930B0160930A01B7
:100C9000C093090180910A0190910B01222733270B
:100CA000281B390B3093300220932F022091B8017A
:100CB00043E0249F90011124F901E250FD4F45913A
:100CC000549150911701541710F461E001C06FEF77
:100CD00060932602613011F4451B02C0541B452F5E
:100CE0004093250250E0481B590B50933202409329
:100CF0003102F901E150FD4F459154915091180195
:100D0000541710F461E001C06FEF60932A02613064
:100D100011F4451B02C0541B452F4093290250E09B
:100D2000481B590B50932C0240932B0220503D4FEF
:100D3000F9012591349130911901321710F441E0F5
:100D400001C04FEF40932802413011F4231B02C031
:100D5000321B232F2093270230E0281B390B3093BE
:100D60002E0220932D02CF910895809115018111BB
:100D700007C08FEF9FEF90930B0180930A010895B6
:100D80006091B8016F5F90E0FC01E559FC4F25913F
:100D90003491462F50E04217530718F46093B8017E
:100DA00007C0FC01E659FC4F859194918093B801EE
:100DB000E091B801F0E0EE0FFF1FEC54FD4F85917C
:100DC0009491E0911601F0E0EE0FFF1FE457FD4F04
:100DD00025913491289FA001299F500D389F500DD7
:100DE000112450930A0110920B010C941F06CF930B
:100DF000DF9380910A0190910B01019790930B0171
:100E000080930A01892B11F40E94B5068091150187
:100E1000833008F48CC080912F0290913002D091E1
:100E20002602A09117012091310230913202BC01BB
:100E3000660F771FA901440F551FB0E004C0460F8D
:100E4000571FB1E0AC2FF901CA2FCD0F280F391F62
:100E500084179507A4F3A093170120912502AF01F1
:100E6000420F511D5093320240933102D0912A0219
:100E7000A091180120912B0230912C02A901440F5E
:100E8000551F04C0460F571FB1E0AC2FF901CA2F00
:100E9000CD0F280F391F84179507A4F3A0931801CD
:100EA00020912902AF01420F511D50932C02409313
:100EB0002B02D0912802A091190120912D0230918E
:100EC0002E02A901440F551F04C0460F571FB1E061
:100ED000AC2FF901CA2FCD0F280F391F84179507A2
:100EE000A4F3A0931901809127029F01280F311DBF
:100EF00030932E0220932D02BB23C9F020911701BD
:100F000080911401829F9001112430930F0220914F
:100F10001801289F9001112430930E02A89FC00150
:100F2000112490931002DF91CF910C944104DF9132
:100F3000CF9108952F923F924F925F926F927F923E
:100F40008F929F92AF92BF92CF92DF92EF92FF92D9
:100F50000F931F93CF93DF931F92CDB7DEB7542E1D
:100F60001DE0E12E11E0F12E00E1802E01E0902E37
:100F700091E1A92E91E0B92E22E1C22E21E0D22EDC
:100F80000EE011E0212C312C412C682E712CC30174
:100F9000022C02C0959587950A94E2F780FF73C0F2
:100FA000643089F130F4623071F0633009F06BC065
:100FB00019C0673009F44BC0683009F45AC0653075
:100FC00009F061C029C0F8011082F4015082F1E0FB
:100FD0002F1259C0F7018081859DC0011124909383
:100FE0000F020EC0F8011082F5015082F1E02F12BD
:100FF0004AC0F7018081859DC001112490930E02A3
:101000004424439440C0F8011082F6015082F1E07C
:101010002F1239C0F70114C0F7015082F1E02F12EE
:1010200032C0F4018081859DC001112490930F028C
:10103000F5018081859DC001112490930E02F60177
:101040008081859DC001112490931002D9CFF801B1
:101050005082F1E02F1217C0E0911501F0E0E6593F
:10106000FC4F859194918093B80169830E94B506E5
:1010700009C0F6013397508221E0221204C069832F
:101080000E941F0669818091150181110AC04420C8
:1010900041F08091B701811104C069830E9441042D
:1010A00069818FEF281A380AE7E0EE0EF11CF7E0AD
:1010B0008F0E911C27E0A20EB11C87E0C80ED11C38
:1010C000095F1F4FE2E02E16310409F060CF109245
:1010D000B7010F90DF91CF911F910F91FF90EF908B
:1010E000DF90CF90BF90AF909F908F907F906F9048
:1010F0005F904F903F902F9008951F920F920FB6E0
:101100000F9211248F939F9310926F007894809187
:10111000BE01982F9F5F9093BE01863928F081E031
:101120008093B9011092BE01F89482E080936F0021
:101130009F918F910F900FBE0F901F90189584E391
:1011400095E0909389008093880089E080938100E6
:1011500082E080936F0008951F93CF93DF93162F43
:10116000D42FC1E0C093B701482F62E083E00E9412
:101170009A07C093B701412F63E083E00E949A076A
:101180004D2F64E083E0DF91CF911F910C949A077B
:10119000861708F4682F862F0895681708F4682FBB
:1011A000862F08950E9412045C980E949F080E9456
:1011B000CC057894C0E0D0EF0E9457020E941B0338
:1011C00090FD25C00E949703813019F08730F9F413
:1011D00014C08091DF018230D1F48AE191E00E9455
:1011E00086022FEF88E09DE3215080409040E1F798
:1011F00000C00000FE0109950AC08091DF01682F40
:101200006F704091E00182958F700E949A078091E3
:10121000B901882389F21092B9018091BA019091A5
:10122000BB01A091BC01B091BD010196A11DB11DF2
:101230008093BA019093BB01A093BC01B093BD0110
:101240000E94F706B9CFAA1BBB1B51E107C0AA1F1A
:10125000BB1FA617B70710F0A61BB70B881F991F57
:101260005A95A9F780959095BC01CD010895F89401
:02127000FFCFAE
:1012720019020102060211020108010000FF03081F
:1012820000000000FF030800000073746172742004
:0C129200426F6F746C6F61646572000045
:00000001FF
