:100000000C94BB010C94DA010C94DA010C94DA0123
:100010000C94DA010C94DA010C94DA010C94DA01F4
:100020000C94DA010C94DA010C94DA010C94DA01E4
:100030000C94DA010C949D080C94DA010C94DA010A
:100040000C94DA010C94DA010C94DA010C94DA01C4
:100050000C94DC010C940F020C94DA010C94DA017C
:100060000C94DA010C94DA010C94DA010C94DA01A4
:100070000C94A0020C94D3020C9408040C94DA01A2
:100080000C9474050C94DA010C94DA010000000061
:100090000100010001000100020002000200020054
:1000A0000300030003000400040004000500050031
:1000B000050006000600060007000700070008000C
:1000C00008000800090009000A000A000A000B00E5
:1000D0000B000C000C000D000D000E000E000F00B8
:1000E0000F00100010001100110012001200130088
:1000F0001300140014001500160016001700170056
:100100001800190019001A001B001C001C001D001B
:100110001E001E001F0020002100220022002300DC
:1001200024002500260027002800280029002A0096
:100130002B002C002D002E002F003000310032004B
:100140003400350036003700380039003B003C00F1
:100150003D003E0040004100420044004500460092
:10016000480049004B004C004E004F005100530026
:1001700054005600580059005B005D005F006000AD
:1001800062006400660068006A006C006E00700027
:1001900072007500770079007B007E00800082008D
:1001A000850087008A008D008F00920094009700E0
:1001B0009A009D00A000A300A600A900AC00AF001B
:1001C000B200B500B900BC00BF00C300C600CA0041
:1001D000CE00D100D500D900DD00E100E500E90046
:1001E000ED00F100F600FA00FE00030107010C012A
:1001F000110116011B01200125012A012F013401E3
:100200003A013F0145014B01510156015C01630177
:1002100069016F0176017C018301890190019701D9
:100220009E01A601AD01B401BC01C401CB01D30103
:10023000DC01E401EC01F501FD0106020F021802E8
:1002400021022B0234023E02480252025C02670283
:1002500071027C02870292029D02A902B502C102CC
:10026000CD02D902E502F202FF020C031A032703B2
:1002700035034303510360036E037D038D039C0329
:10028000AC03BC03CC03DD03EE03FF030020A01688
:100290000010500B0008A8050004D40200026A01F7
:1002A0000001B50080005A0040002D00200016001B
:1002B00010000B0064006400640001006400010091
:1002C000640001006400010064000100640001009A
:1002D000640001006400010064000100640001008A
:1002E00064000100640001006400640064006400B4
:1002F0006400640064006400640064006400FFFF44
:10030000FFFFFFFF000000FFFFFFFFFFFF000000F7
:10031000000000FF0000FF000000FF0000FF0000E1
:1003200000FF0000FFFFFFFFFFFFFFFFFFFFFFFFDA
:10033000FFFFFFFFFFFFFFFFFFFFFFFFFFFFFFFFCD
:10034000FFFFFFFFFFFFFFFFFFFFFFFFFFFFFFFFBD
:10035000000000FF000000FFFFFFFFFFFFFFFFFFA7
:10036000FFFFFFFFFFFFFFFFFFFFFFFFFF00010396
:10037000070D1B1E250011241FBECFEFD0E4DEBFEA
:10038000CDBF11E0A0E0B1E0EEEEF2E100E00BBF86
:1003900002C007900D92AE32B107D9F712E0AEE27B
:1003A000B1E001C01D92A533B107E1F70E94100929
:1003B0000C9475090C9400001F920F920FB60F92C7
:1003C00011240BB60F921BBE2F938F939F93EF9325
:1003D000FF938091C0009091C6008871E0917501F3
:1003E000EF5FEF7120917401E21739F0E09375012E
:1003F000F0E0E858FE4F908301C082E090917301D5
:10040000982B90937301FF91EF919F918F912F9172
:100410000F900BBE0F900FBE0F901F9018951F925C
:100420000F920FB60F9211240BB60F921BBE8F9333
:100430009F93EF93FF9390917701809176019817A6
:1004400069F0E0917601EF5FEF71E0937601F0E003
:10045000E856FE4F80818093C60005C08091C100A0
:100460008F7D8093C100FF91EF919F918F910F90AD
:100470000BBE0F900FBE0F901F9018951092770132
:1004800010927601109275011092740197FF04C0CA
:1004900022E02093C0009F779093C5008093C40012
:1004A00088E98093C10086E08093C200089590910E
:1004B000750180917401981781F0E0917401EF5FEC
:1004C000EF71E0937401F0E0E858FE4F20818091D5
:1004D00073011092730130E002C020E031E0C901E5
:1004E0000895909177019F5F9F71209176019217F7
:1004F000E1F3E92FF0E0E856FE4F80839093770117
:100500008091C10080628093C1000895CF93DF93F2
:10051000EC0102C00E94710289918111FBCFDF9131
:10052000CF910895CF93DF93EC0102C00E94710236
:10053000FE01219684918111F9CFDF91CF91089529
:100540001F920F920FB60F9211240BB60F921BBE83
:100550002F938F939F93EF93FF938091C800909177
:10056000CE008871E0913001EF5FEF7120912F0193
:10057000E21739F0E0933001F0E0ED5CFE4F90833C
:1005800001C082E090912E01982B90932E01FF9153
:10059000EF919F918F912F910F900BBE0F900FBEF7
:1005A0000F901F9018951F920F920FB60F92112463
:1005B0000BB60F921BBE8F939F93EF93FF93909177
:1005C000320180913101981769F0E0913101EF5FBC
:1005D000EF71E0933101F0E0ED5AFE4F808180939E
:1005E000CE0005C08091C9008F7D8093C900FF9126
:1005F000EF919F918F910F900BBE0F900FBE0F90B8
:100600001F90189510923201109231011092300112
:1006100010922F0197FF04C022E02093C8009F771B
:100620009093CD008093CC0088E98093C90086E048
:100630008093CA0008959091300180912F019817FE
:1006400081F0E0912F01EF5FEF71E0932F01F0E077
:10065000ED5CFE4F208180912E011092730130E0FD
:1006600002C020E031E0C9010895909132019F5FFE
:100670009F71209131019217E1F3E92FF0E0ED5ADB
:10068000FE4F8083909332018091C90080628093F5
:10069000C9000895CF93DF93EC0102C00E94350397
:1006A00089918111FBCFDF91CF910895CF93DF9393
:1006B000EC0102C00E943503FE0121968491811154
:1006C000F9CFDF91CF9108958A3010F4805D0895BD
:1006D000895C0895FC0120E030E018C09191492F19
:1006E00040534A3058F04151463010F4975307C0F8
:1006F000492F4156463018F4975501C0942F44E0D5
:10070000220F331F4A95E1F7290F311D9E2F981BA9
:10071000961720F3C9010895A4EEB1E0EC91EF5FC4
:10072000EC93F0E0EA0FFB1F808380E00895E091F6
:10073000C101EF5FE093C101F0E0EF53FE4F808312
:100740008091C1018230A1F020F4813009F051C0C4
:1007500006C08430B1F1863009F04BC043C08091AF
:10076000C201823609F445C08C3609F442C026C065
:100770009091C201923619F09C3601F514C0909107
:10078000C301983641F0933749F09136B9F493E0BC
:100790009093DF0110C08093DF012BC081E0809334
:1007A000DF0184E008C08091C301833739F487E01A
:1007B0008093DF0186E08093E3011BC01092C101AA
:1007C00018C062E084EC91E00E946A038093E1012A
:1007D0009091DF01923069F49091E301980F90932A
:1007E000E30107C062E086EC91E00E946A03809317
:1007F000E2018091C101823048F09091E3018913B8
:1008000005C01092C1018091DF01089580E0089534
:100810001F920F920FB60F9211240F900FBE0F90E0
:100820001F9018951092E40181E890E00E943E022A
:100830001092C10181E890E00E940203549A089549
:1008400080910601909107012091040130910501EA
:1008500030930701209306019093050180930401D2
:1008600080910201909103012091000130910101DA
:1008700030930301209302019093010180930001C2
:1008800008951F93CF93DF93C0E1D2E0A1E2B2E0DD
:100890009D0181E090E070E060E2E0910001F09164
:1008A0000101E80FF91F462F40954083E991F0E0E0
:1008B000EE0FFF1FE457FF4F45915491F90141930B
:1008C00051939F01452B09F0762B660F01968430DA
:1008D000910519F7E0910001F0910101708381E029
:1008E00090E03CC0E52FF0E0EE0FFF1FE15EFD4F12
:1008F000608171816217730710F49B01452F5F5F60
:10090000543080F34C1721F150E0FA01EE0FFF1F35
:10091000E15EFD4F208131816D917C911197718352
:10092000608311963C932E93209100013091010138
:10093000F901E40FF51F4081E901C80FD91F288193
:100940002083E0910001F0910101E80FF91F40833D
:10095000129601968430910509F457C0C82F482F8C
:10096000582F2FEF33E0BECF232B71F020910001E1
:1009700030910101D901A40FB51FE901C80FD91F9A
:100980002C91888128232C934E2F1BC0842F90E01C
:10099000DC01AA0FBB1FAF5DBD4F2D913C91DC0167
:1009A000AA0FBB1FA15EBD4F2D933C93A0910001E8
:1009B000B0910101A80FB91F11968C9111978C93DA
:1009C0004F5F411718F311508E2F90E0DC01AA0FF2
:1009D000BB1FA15EBD4F2D913C91AC014F5F5F4F9E
:1009E000DA01AA0FBB1FA15EBD4F6D917C91261746
:1009F000370721F0232B09F46FC003C0E11708F477
:100A0000B3CFEF5FE11700F303C0E1E013E0DCCF09
:100A1000F0E0EE0FFF1FE15EFD4F80819181892B99
:100A200009F41150E0910401F0910501111108C081
:100A300080E090E3918380839383828311E03FC0C1
:100A4000812F90E0880F991FEF01C80FD91FDC019B
:100A5000A15EBD4F2D913C91119748EE4203C0011C
:100A6000439F900D1124905A998388832D913C9136
:100A7000412F415058E119C0842F90E0880F991FF1
:100A8000EF01C80FD91FDC01A15EBD4F8D919C9174
:100A90001197281B390B529FC001539F900D1124B1
:100AA000998388832D913C9141504111E5CF48E1D4
:100AB000429FC001439F900D112491838083109227
:100AC0000702809107028823E1F3F8940E94200432
:100AD00010930801789404C0E11708F455CF91CF22
:100AE000DF91CF911F9108951F920F920FB60F9231
:100AF00011240BB60F921BBE2F933F934F935F931E
:100B00006F938F939F93EF93FF93809198009091B1
:100B100099006091B801262F30E0A901440F551FBC
:100B2000E0910601F0910701E40FF51F408151812A
:100B3000840F951F9093990080939800E091020193
:100B4000F0910301E20FF31F9081611105C092B98A
:100B500081E08093B80110C082B1892382B980916D
:100B60000801681306C081E0809307021092B80163
:100B700003C06F5F6093B801FF91EF919F918F91D8
:100B80006F915F914F913F912F910F900BBE0F90FE
:100B90000FBE0F901F90189580EE81B982E0809370
:100BA0009100E1E7F0E08081826080830895653004
:100BB00029F130F4633091F0C8F46230F1F506C0E9
:100BC000673061F118F16830C1F52FC097E0899F57
:100BD000F0011124E45FFE4F8481089597E0899F1E
:100BE000F0011124E45FFE4F8581089597E0899F0D
:100BF000F0011124E45FFE4F8681089597E0899FFC
:100C0000F0011124E45FFE4F8181089597E0899FF0
:100C1000F0011124E45FFE4F80810895689FF00188
:100C20001124E45FFE4F8281089597E0899FF001CF
:100C30001124E45FFE4F8381089580E00895CF93EF
:100C4000C091160180910901C81759F180910A01DC
:100C500090910B01EC2FF0E0EE0FFF1FE457FD4FDA
:100C600025913491289FA001299F500D1124509364
:100C70000B0140930A0180910A0190910B01E091D0
:100C80000901F0E0EE0FFF1FE457FD4F65917491ED
:100C900077270E94610970930B0160930A01C0934A
:100CA000090180910A0190910B019195819591091B
:100CB0009093320280933102E091BA0183E0E89F81
:100CC000F0011124E250FD4F85919491909117010C
:100CD000981710F421E001C02FEF20932802213053
:100CE00011F4891B02C0981B892F80932702209141
:100CF0000A0130910B0190E0821B930B9093340218
:100D000080933302E091BA0183E0E89FF00111245F
:100D1000E150FD4F8591949190911801981710F42E
:100D200021E001C02FEF20932C02213011F4891B08
:100D300002C0981B892F80932B0220910A013091C9
:100D40000B0190E0821B930B90932E0280932D0257
:100D5000E091BA0183E0E89FF0011124E050FD4FDB
:100D60008591949190911901981710F421E001C098
:100D70002FEF20932A02213011F4891B02C0981B07
:100D8000892F8093290220910A0130910B0190E074
:100D9000821B930B9093300280932F02CF91089582
:100DA00080911501811107C08FEF9FEF90930B0188
:100DB00080930A0108959091BA019F5F9093BA01C0
:100DC0004091BA0190E0FC01E359FC4F2591349128
:100DD000421738F0FC01E459FC4F859194918093BF
:100DE000BA01E091BA01F0E0EE0FFF1FEC54FD4FA5
:100DF00085919491E0911601F0E0EE0FFF1FE4570A
:100E0000FD4F25913491289FA001299F500D389FB7
:100E1000500D1124852F992790930B0180930A017F
:100E20000C941F06CF93DF9380910A0190910B01E0
:100E3000019790930B0180930A01892B11F40E9472
:100E4000D00680911501882309F48CC0809131026D
:100E500090913202D0912802A09117012091330283
:100E600030913402BC01660F771FA901440F551F52
:100E7000B0E004C0460F571FB1E0AC2FF901CA2FF4
:100E8000CD0F280F391F84179507A4F3A0931701DE
:100E900020912702AF01420F511D5093340240931D
:100EA0003302D0912C02A091180120912D02309193
:100EB0002E02A901440F551F04C0460F571FB1E071
:100EC000AC2FF901CA2FCD0F280F391F84179507B2
:100ED000A4F3A093180120912B02AF01420F511DE2
:100EE00050932E0240932D02D0912A02A091190115
:100EF00020912F0230913002A901440F551F04C0E8
:100F0000460F571FB1E0AC2FF901CA2FCD0F280FA4
:100F1000391F84179507A4F3A09319018091290222
:100F20009F01280F311D3093300220932F02BB23E5
:100F3000C9F02091170180911401829F9001112422
:100F40003093110220911801289F900111243093B1
:100F50001002A89FC001112490931202DF91CF913B
:100F60000C944104DF91CF9108952F923F924F92BC
:100F70005F926F927F928F929F92AF92BF92CF9229
:100F8000DF92EF92FF920F931F93CF93DF931F9205
:100F9000CDB7DEB7542E1DE0E12E11E0F12E00E1B9
:100FA000802E01E0902E91E1A92E91E0B92E22E150
:100FB000C22E21E0D22E0EE011E0212C312C412C4A
:100FC000682E712CC301022C02C0959587950A9456
:100FD000E2F780FF78C06530D1F138F46330E9F092
:100FE00068F5623009F06FC009C0673009F44AC083
:100FF00008F466C0683009F066C057C0F801108276
:10100000F4015082F1E02F125EC0F7018081859DCE
:10101000C0011124909311020EC0F8011082F50155
:101020005082F1E02F124FC0F7018081859DC001F1
:101030001124909310024424439445C0F801108277
:10104000F6015082F1E02F123EC0F70114C0F70103
:101050005082F1E02F1237C0F4018081859DC001DC
:10106000112490931102F5018081859DC001112406
:1010700090931002F6018081859DC0011124909308
:101080001202D9CFF8015082F1E02F121CC0E0917A
:101090001501F0E0E359FC4F8591949181508093C4
:1010A000BA0169830E94D00609C0F60133975082C5
:1010B00021E0221208C069830E941F06698103C0D3
:1010C000F601369750828091150181110AC04420A3
:1010D00041F08091B901811104C069830E944104EB
:1010E00069818FEF281A380AE7E0EE0EF11CF7E06D
:1010F0008F0E911C27E0A20EB11C87E0C80ED11CF8
:10110000095F1F4FE2E02E16310409F05BCF109209
:10111000B9010F90DF91CF911F910F91FF90EF9048
:10112000DF90CF90BF90AF909F908F907F906F9007
:101130005F904F903F902F9008951F920F920FB69F
:101140000F9211248F939F9310926F007894809147
:10115000C001982F9F5F9093C001863928F081E0ED
:101160008093BB011092C001F89482E080936F00DD
:101170009F918F910F900FBE0F901F90189584E351
:1011800095E0909389008093880089E080938100A6
:1011900082E080936F0008950F931F93CF93DF93A6
:1011A0001F92CDB7DEB7082F142F5C9A8AE191E029
:1011B00069830E944A03802F0E9464030E943503C2
:1011C0006981862F0E9464030E943503812F99272D
:1011D00087FD9095807F992724E0959587952A959E
:1011E000E1F70E9464030E943503812F8F700E94F3
:1011F00064030E943503412F6981802F0F90DF9196
:10120000CF911F910F910C94B5070895861708F49C
:10121000682F862F0895681708F4682F862F089581
:101220000E9412045C980E94BF080E94CC0578942A
:10123000C0E0D0EF0E9457020E941B0390FD25C022
:101240000E949703813019F08730F9F414C080911F
:10125000E1018230D1F48DE191E00E9486022FEF0E
:1012600088E09DE3215080409040E1F700C00000FD
:10127000FE0109950AC08091E101682F6F704091CD
:10128000E20182958F700E94B5078091BB0188238F
:1012900089F21092BB018091BC019091BD01A09197
:1012A000BE01B091BF010196A11DB11D8093BC018B
:1012B0009093BD01A093BE01B093BF010E9412079D
:1012C000B9CFAA1BBB1B51E107C0AA1FBB1FA617A2
:1012D000B70710F0A61BB70B881F991F5A95A9F7DF
:0E12E00080959095BC01CD010895F894FFCF44
:1012EE001B020302080213020108010000FF01089D
:1012FE0000000000FF01080000006C7300737461B1
:0E130E00727420426F6F746C6F6164657200C0
:00000001FF
