:100000000C945A010C9479010C9479010C947901A7
:100010000C9479010C9479010C9479010C94790178
:100020000C9479010C9479010C9479010C94790168
:100030000C9479010C9402070C9479010C947901C9
:100040000C9479010C9479010C9479010C94790148
:100050000C947B010C94AE010C9479010C94790101
:100060000C9479010C9479010C9479010C94790128
:100070000C943F020C9472020C94A7030C94790127
:100080000C9418050C9479010C947901000000007F
:100090000100010001000100020002000200020054
:1000A0000300030003000400040004000500050031
:1000B000050006000600060007000700070008000C
:1000C00008000800090009000A000A000A000B00E5
:1000D0000B000C000C000D000D000E000E000F00B8
:1000E0000F00100010001100110012001200130088
:1000F0001300140014001500160016001700170056
:100100001800190019001A001B001C001C001D001B
:100110001E001E001F0020002100220022002300DC
:1001200024002500260027002800280029002A0096
:100130002B002C002D002E002F003000310032004B
:100140003400350036003700380039003B003C00F1
:100150003D003E0040004100420044004500460092
:10016000480049004B004C004E004F005100530026
:1001700054005600580059005B005D005F006000AD
:1001800062006400660068006A006C006E00700027
:1001900072007500770079007B007E00800082008D
:1001A000850087008A008D008F00920094009700E0
:1001B0009A009D00A000A300A600A900AC00AF001B
:1001C000B200B500B900BC00BF00C300C600CA0041
:1001D000CE00D100D500D900DD00E100E500E90046
:1001E000ED00F100F600FA00FE00030107010C012A
:1001F000110116011B01200125012A012F013401E3
:100200003A013F0145014B01510156015C01630177
:1002100069016F0176017C018301890190019701D9
:100220009E01A601AD01B401BC01C401CB01D30103
:10023000DC01E401EC01F501FD0106020F021802E8
:1002400021022B0234023E02480252025C02670283
:1002500071027C02870292029D02A902B502C102CC
:10026000CD02D902E502F202FF020C031A032703B2
:1002700035034303510360036E037D038D039C0329
:10028000AC03BC03CC03DD03EE03FF030020A01688
:100290000010500B0008A8050004D40200026A01F7
:1002A0000001B50080005A0040002D00200016001B
:1002B00010000B0011241FBECFEFD0E4DEBFCDBF76
:1002C00011E0A0E0B1E0E8E2FFE000E00BBF02C017
:1002D00007900D92A438B107D9F712E0A4E8B1E075
:1002E00001C01D92AD38B107E1F70E9431070C94AF
:1002F00092070C9400001F920F920FB60F921124D8
:100300000BB60F921BBE2F938F939F93EF93FF9388
:100310008091C0009091C6008871E091CB01EF5FA1
:10032000EF712091CA01E21739F0E093CB01F0E0C0
:10033000E253FE4F908301C082E09091C901982B57
:100340009093C901FF91EF919F918F912F910F9001
:100350000BBE0F900FBE0F901F9018951F920F921B
:100360000FB60F9211240BB60F921BBE8F939F9363
:10037000EF93FF939091CD018091CC01981769F094
:10038000E091CC01EF5FEF71E093CC01F0E0E2513E
:10039000FE4F80818093C60005C08091C1008F7D93
:1003A0008093C100FF91EF919F918F910F900BBEB1
:1003B0000F900FBE0F901F9018951092CD011092C4
:1003C000CC011092CB011092CA0197FF04C022E029
:1003D0002093C0009F779093C5008093C40088E964
:1003E0008093C10086E08093C20008959091CB0174
:1003F0008091CA01981781F0E091CA01EF5FEF7117
:10040000E093CA01F0E0E253FE4F20818091C901E0
:100410001092C90130E002C020E031E0C901089526
:100420009091CD019F5F9F712091CC019217E1F3D4
:10043000E92FF0E0E251FE4F80839093CD0180914F
:10044000C10080628093C1000895CF93DF93EC01D7
:1004500002C00E94100289918111FBCFDF91CF91E0
:100460000895CF93DF93EC0102C00E941002FE01B9
:10047000219684918111F9CFDF91CF9108951F9238
:100480000F920FB60F9211240BB60F921BBE2F9333
:100490008F939F93EF93FF938091C8009091CE002C
:1004A0008871E0918601EF5FEF7120918501E2177D
:1004B00039F0E0938601F0E0E757FE4F908301C0EA
:1004C00082E090918401982B90938401FF91EF91A9
:1004D0009F918F912F910F900BBE0F900FBE0F9099
:1004E0001F9018951F920F920FB60F9211240BB602
:1004F0000F921BBE8F939F93EF93FF939091880170
:1005000080918701981769F0E0918701EF5FEF71A3
:10051000E0938701F0E0E755FE4F80818093CE00A5
:1005200005C08091C9008F7D8093C900FF91EF9134
:100530009F918F910F900BBE0F900FBE0F901F9049
:1005400018951092880110928701109286011092DE
:10055000850197FF04C022E02093C8009F77909305
:10056000CD008093CC0088E98093C90086E0809319
:10057000CA0008959091860180918501981781F0B5
:10058000E0918501EF5FEF71E0938501F0E0E757BF
:10059000FE4F2081809184011092C90130E002C099
:1005A00020E031E0C9010895909188019F5F9F711B
:1005B000209187019217E1F3E92FF0E0E755FE4F14
:1005C0008083909388018091C90080628093C900E4
:1005D0000895CF93DF93EC0102C00E94D402899169
:1005E0008111FBCFDF91CF910895CF93DF93EC0181
:1005F00002C00E94D402FE01219684918111F9CF9C
:10060000DF91CF9108958A3010F4805D0895895C60
:100610000895FC0120E030E018C09191492F40532B
:100620004A3058F04151463010F4975307C0492FD3
:100630004156463018F4975501C0942F44E0220FDC
:10064000331F4A95E1F7290F311D9E2F981B9617EE
:1006500020F3C9010895ACE3B2E0EC91EF5FEC93B5
:10066000F0E0EA0FFB1F808380E00895E0913C02F8
:10067000EF5FE0933C02F0E0E45CFD4F808380910B
:1006800019028230A1F020F4813009F051C006C077
:100690008430B1F1863009F04BC043C080911A021A
:1006A000823609F445C08C3609F442C026C09091C8
:1006B0001A02923619F09C3601F514C090911B0273
:1006C000983641F0933749F09136B9F493E090931E
:1006D000370210C0809337022BC081E0809337022D
:1006E00084E008C080911B02833739F487E080934F
:1006F000370286E080933B021BC01092190218C09B
:1007000062E08CE192E00E940903809339029091AB
:100710003702923069F490913B02980F90933B021C
:1007200007C062E08EE192E00E94090380933A02E2
:1007300080911902823048F090913B02891305C0E4
:100740001092190280913702089580E008951F9257
:100750000F920FB60F9211240F900FBE0F901F90A3
:10076000189510923C0281E890E00E94DD01109201
:10077000190281E890E00E94A102249AE9ECF0E0DD
:1007800080818064808308958091060190910701A3
:100790002091040130910501309307012093060157
:1007A00090930501809304018091020190910301CF
:1007B0002091000130910101309303012093020147
:1007C000909301018093000108951F93CF93DF93CD
:1007D000C8E6D2E0A9E7B2E09D0181E090E070E0D8
:1007E00060E2E0910001F0910101E80FF91F462F4E
:1007F00040954083E991F0E0EE0FFF1FE457FF4F73
:1008000045915491F901419351939F01452B09F072
:10081000762B660F01968430910519F7E09100015F
:10082000F0910101708381E090E03CC0E52FF0E0A1
:10083000EE0FFF1FE958FD4F60817181621773074A
:1008400010F49B01452F5F5F543080F34C1721F16A
:1008500050E0FA01EE0FFF1FE958FD4F2081318172
:100860006D917C9111977183608311963C932E93C7
:100870002091000130910101F901E40FF51F408141
:10088000E901C80FD91F28812083E0910001F09170
:100890000101E80FF91F40831296019684309105FB
:1008A00009F457C0C82F482F582F2FEF33E0BECF81
:1008B000232B71F02091000130910101D901A40F87
:1008C000B51FE901C80FD91F2C91888128232C93CB
:1008D0004E2F1BC0842F90E0DC01AA0FBB1FA7582E
:1008E000BD4F2D913C91DC01AA0FBB1FA958BD4FF4
:1008F0002D933C93A0910001B0910101A80FB91F65
:1009000011968C9111978C934F5F411718F31150EA
:100910008E2F90E0DC01AA0FBB1FA958BD4F2D916F
:100920003C91AC014F5F5F4FDA01AA0FBB1FA95882
:10093000BD4F6D917C912617370721F0232B09F4C9
:100940006FC003C0E11708F4B3CFEF5FE11700F306
:1009500003C0E1E013E0DCCFF0E0EE0FFF1FE95849
:10096000FD4F80819181892B09F41150E0910401A0
:10097000F0910501111108C080E090E3918380831C
:100980009383828311E03FC0812F90E0880F991FED
:10099000EF01C80FD91FDC01A958BD4F2D913C9123
:1009A000119748EE4203C001439F900D1124905AC5
:1009B000998388832D913C91412F415058E119C072
:1009C000842F90E0880F991FEF01C80FD91FDC0119
:1009D000A958BD4F8D919C911197281B390B529F9F
:1009E000C001539F900D1124998388832D913C91D0
:1009F00041504111E5CF48E1429FC001439F900D16
:100A000011249183808310925F0280915F0288237A
:100A1000E1F3F8940E94C40310930801789404C091
:100A2000E11708F455CF91CFDF91CF911F91089531
:100A30001F920F920FB60F9211240BB60F921BBE8E
:100A40002F933F934F935F936F938F939F93EF9366
:100A5000FF93809198009091990060910E02262F4B
:100A600030E0A901440F551FE0910601F091070104
:100A7000E40FF51F40815181840F951F90939900D9
:100A800080939800E0910201F0910301E20FF31FBF
:100A90009081611105C092B981E080930E0210C06F
:100AA00082B1892382B980910801681306C081E070
:100AB00080935F0210920E0203C06F5F60930E027C
:100AC000FF91EF919F918F916F915F914F913F9126
:100AD0002F910F900BBE0F900FBE0F901F90189587
:100AE00080EE81B982E080939100E1E7F0E08081BF
:100AF000826080830895823069F08330A1F0813074
:100B0000E1F4109246011092450160931202609345
:100B1000690211C0109246011092450160931102C2
:100B20006093680208C010924601109245016093DC
:100B3000100260936A020C94E5030895E0916E013F
:100B4000A0916D01EA17F9F0B0E0AA0FBB1FA457FE
:100B5000BD4FF0E0EE0FFF1FE457FD4F8D919C91CC
:100B6000608171810E947E0720916F013091700138
:100B7000269FC001279F900D369F900D11249093C2
:100B8000700180936F0180916F0190917001222715
:100B90003327281B390B30938A0220938902209136
:100BA0000F0243E0249F90011124F901E75FFE4FFB
:100BB000408150911202541710F461E001C06FEFB0
:100BC00060938002613011F4451B02C0541B452F15
:100BD00040937F0250E0481B590B50938C02409386
:100BE0008B02F901E75FFE4F4181509111025417CA
:100BF00010F461E001C06FEF60938402613011F482
:100C0000451B02C0541B452F4093830250E0481BF4
:100C1000590B5093860240938502F901E75FFE4F1E
:100C2000228130911002321710F441E001C04FEFE1
:100C300040938202413011F4231B02C0321B232F48
:100C40002093810230E0281B390B309388022093D7
:100C500087020895E0910F02EF5FE0930F02E43105
:100C600048F4F0E0EE0FFF1FEB5BFE4F80819181B7
:100C7000892B79F410920F028091450190914601E1
:100C8000892B39F48FEF9FEF9093700180936F0160
:100C90000895E0916E01F0E0EE0FFF1FE457FD4F65
:100CA00085919491E0910F02F0E0EE0FFF1FEB5B56
:100CB000FE4F40815181849F9001859F300D949F0C
:100CC000300D112430936F01109270010C949E0529
:100CD000CF93DF9380916F01909170010197909372
:100CE000700180936F01892B11F40E942A06809174
:100CF000450190914601892B09F481C080918902B8
:100D000090918A02D0918002A091120220918B02D0
:100D100030918C02BC01660F771FA901440F551F4B
:100D2000B0E004C0460F571FB1E0AC2FF901CA2F45
:100D3000CD0F280F391F84179507A4F3A093120233
:100D400020917F02AF01420F511D50938C024093BE
:100D50008B02D0918402A0911102209185023091E2
:100D60008602A901440F551F04C0460F571FB1E06A
:100D7000AC2FF901CA2FCD0F280F391F8417950703
:100D8000A4F3A093110220918302AF01420F511DE1
:100D90005093860240938502D0918202A091100266
:100DA0002091870230918802A901440F551F04C089
:100DB000460F571FB1E0AC2FF901CA2FCD0F280FF6
:100DC000391F84179507A4F3A09310028091810224
:100DD0009F01280F311D3093880220938702BB2387
:100DE00071F08091120280936902809111028093C8
:100DF0006802A0936A02DF91CF910C94E503DF9122
:100E0000CF9108951F920F920FB60F9211248F93D6
:100E10009F9310926F00789480911802982F9F5F93
:100E200090931802863928F081E080931302109283
:100E30001802F89482E080936F009F918F910F9039
:100E40000FBE0F901F90189584E395E09093890052
:100E50008093880089E08093810082E080936F0016
:100E600008950E94B1035C980E9424070E947005B7
:100E70007894C0E0D0EF0E94F6010E94BA0290FD83
:100E800021C00E943603813019F08730D9F414C094
:100E9000809139028230B1F483E791E00E9425020B
:100EA0002FEF88E09DE3215080409040E1F700C0A3
:100EB0000000FE01099506C060913A028091390256
:100EC0000E947B05809113028823A9F210921302DD
:100ED0008091140290911502A0911602B091170210
:100EE0000196A11DB11D8093140290931502A09349
:100EF0001602B09317020E946806BDCFAA1BBB1B47
:100F000051E107C0AA1FBB1FA617B70710F0A61B09
:100F1000B70B881F991F5A95A9F780959095BC012A
:080F2000CD010895F894FFCF04
:100F280073025B0260026B020100000000FFFF0019
:100F3800FFFF007F3F3F3F003F0000000000000030
:100F48000000000000000000000000000000000099
:100F58000000000000000000000000000000000089
:100F680000000000006400C80064006400640064BD
:100F78000000000000000000000000000000000069
:100F88000000000000000000000000000008080148
:100F980000FFFF737461727420426F6F746C6F612D
:040FA800646572000A
:00000001FF
